:020000040800F2
:1000000000000320FD730008197000081B70000831
:100010001D7000081F70000821700008000000001B
:10002000000000000000000000000000D15F000898
:10003000237000080000000071600008D56000080F
:100040004D7400084D7400084D7400084D7400088C
:100050004D7400084D7400084D7400084D7400087C
:100060004D7400084D7400084D7400084D7400086C
:100070004D7400084D7400084D7400084D7400085C
:100080004D7400084D7400084D7400084D7400084C
:100090004D7400084D7400084D7400084D7400083C
:1000A0004D7400084D7400084D7400084D7400082C
:1000B0004D7400084D7400084D7400084D7400081C
:1000C0004D7400084D7400084D7400084D7400080C
:1000D0004D740008257000084D7400084D74000828
:1000E0004D7400084D7400084D7400084D740008EC
:1000F0004D7400084D7400084D7400084D740008DC
:100100004D7400084D7400084D7400084D740008CB
:100110004D7400084D740008357000084D740008D7
:100120004D7400084D740008457000084D740008B7
:100130004D7400084D7400084D7400084D7400089B
:100140004D7400084D7400084D7400084D7400088B
:100150004D7400084D740008557000084D74000877
:100160004D7400084D7400084D7400084D7400086B
:100170004D740008657000084D7400080000000010
:100180004D7400084D7400084D7400084D7400084B
:100190004D7400084D7400084D7400084D7400083B
:0C01A000757000084D74000885700008A0
:1001B00010B5054C237833B9044B13B10448AFF3A1
:1001C00000800123237010BD940000200000000077
:1001D0006076000808B5034B1BB103490348AFF331
:1001E000008008BD00000000980000206076000834
:1001F00053B94AB9002908BF00281CBF4FF0FF318E
:100200004FF0FF3000F072B9ADF1080C6DE904CE8B
:1002100000F006F8DDF804E0DDE9022304B07047E1
:100220002DE9F047089E04468846002B4BD18A42B0
:10023000154667D9B2FA82F24AB1C2F1200701FA33
:1002400002F320FA07F7954047EA030894404FEA83
:10025000154E230CB8FBFEF71FFA85FC0EFB178822
:1002600043EA084307FB0CF1994209D9EB1807F15F
:10027000FF3080F01B81994240F21881023F2B44ED
:100280005B1AA4B2B3FBFEF00EFB103344EA034446
:1002900000FB0CFCA44509D92C1900F1FF3380F0B8
:1002A0000781A44540F2048102382C4440EA07400B
:1002B000A4EB0C0400271EB1D4400023C6E9004380
:1002C0003946BDE8F0878B4209D9002E00F0EB805B
:1002D0000027C6E9000138463946BDE8F087B3FA81
:1002E00083F7002F47D18B4202D3824200F2FA807B
:1002F000841A61EB030301209846002EE0D0C6E982
:100300000048DDE702B9FFDEB2FA82F2002A40F0CF
:100310008F80491B4FEA154E1FFA85F80127B1FB64
:10032000FEFC230C0EFB1C1143EA014308FB0CF1FD
:10033000994207D9EB180CF1FF3002D2994200F232
:10034000CD808446591AA3B2B1FBFEF00EFB101407
:1003500043EA044408FB00F8A04507D92C1900F132
:10036000FF3302D2A04500F2B6801846A4EB080481
:1003700040EA0C409FE7C7F1200CBB4022FA0CFE7C
:100380004EEA030E01FA07F420FA0CF521FA0CF3F9
:100390004FEA1E482543B3FBF8F92C0C08FB193330
:1003A0001FFA8EFA44EA034309FB0AF49C4202FA5C
:1003B00007F200FA07F10BD91EEB030309F1FF3036
:1003C00080F087809C4240F28480A9F10209734446
:1003D0001B1BADB2B3FBF8F008FB103345EA034436
:1003E00000FB0AFAA24508D91EEB040400F1FF3312
:1003F0006BD2A24569D90238744440EA0940A0FB97
:100400000289A4EB0A044C45C2464B4654D351D052
:10041000002E69D0B1EB0A0564EB030404FA0CFC6E
:10042000FD40FC404CEA0505C6E90054002747E7BB
:10043000C2F1200320FA03F7954001FA02F021FAF5
:1004400003F34FEA154E3843010CB3FBFEF71FFAD6
:1004500085F80EFB173341EA034107FB08F38B4293
:1004600004FA02F407D9691807F1FF3C2FD28B4236
:100470002DD9023F2944CB1A81B2B3FBFEF00EFB0B
:10048000103341EA034100FB08F38B4207D9691896
:1004900000F1FF3C17D28B4215D902382944C91A02
:1004A00040EA07473BE73746304609E70746E7E6B5
:1004B0001846FBE64145ABD2B8EB020A69EB0E02E7
:1004C00001381346A4E76046E9E7184695E7674612
:1004D000D1E781467CE702382C4447E7ACF1020CB7
:1004E0002B442FE7384608E73746E9E6704700BF58
:1004F00008B50B4B1A6842F400721A601A6842F48D
:1005000080621A601A6842F480721A60032000F058
:100510002FF8002006F042FD06F0F4FA002008BD96
:10052000003C0240034A1168034B1B780B441360E4
:10053000704700BF1C82002000000020014B18689B
:10054000704700BF1C82002038B50446FFF7F6FF55
:100550000546B4F1FF3F02D0044B1B781C44FFF763
:10056000EDFF401BA042FAD338BD00BF00000020C1
:10057000074AD36823F4E0631B041B0C000200F459
:10058000E060184340F0BF6040F40030D060704736
:1005900000ED00E030B4174BDB68C3F30223C3F176
:1005A0000704042C28BF04241D1D062D18D9033B65
:1005B0004FF0FF3505FA04F421EA0401994005FAE9
:1005C00003F322EA0303194300280BDB0901C9B234
:1005D00000F1604000F5614080F8001330BC7047C6
:1005E0000023E5E700F00F000901C9B2024B1954DE
:1005F000F4E700BF00ED00E014ED00E0002807DBA9
:1006000000F01F02400901239340024A42F82030C3
:10061000704700BF00E100E068B110B504464379BF
:100620002BB10223637101236371002010BD03719C
:1006300006F08AFAF5E70120704700000268D3B29D
:10064000103B0B49A1FB03131B090A49C95CC16597
:10065000032B06D822F47F7222F003028265806D9C
:10066000704722F47F7222F0030204328265F6E7BB
:10067000ABAAAAAA78760008836A826992B9012B8C
:100680000AD01BB1022B01D000207047C36A13F0BF
:10069000807F2CD100207047C36AB3F1C07F28D07F
:1006A00000207047B2F5005F05D0022B29D9032B3B
:1006B00015D000207047032B03D8DFE803F01C049B
:1006C0001C0A00207047C36A13F0807F15D10020F8
:1006D0007047C36AB3F1C07F11D000207047C36A6E
:1006E00013F0807F01D00120704700207047012067
:1006F000704701207047012070470120704701209A
:10070000704701207047000070B50446FFF716FFE0
:10071000002C5BD00546002384F83430022384F893
:1007200035302268136823F00103136023681A68C8
:1007300012F0010F0AD0FFF701FF401B0528F5D981
:1007400020236365032084F8350070BD1A682048B3
:1007500010406168A2680A43E1680A4321690A43BC
:1007600061690A43A1690A43E1690A43216A0A43AC
:100770000243616A04291ED01A602668756925F053
:100780000705636A1D43042B07D1A36A1D43E36A6F
:100790001BB12046FFF770FF90B975612046FFF747
:1007A0004DFFE26D3F23934083600020606501238D
:1007B00084F83530C9E7E16A206B01430A43DBE77F
:1007C00040236365012084F83500BEE70120BCE7C3
:1007D0003F8010F090F83530DBB2022B03D080233D
:1007E000436501207047052380F83530026813689F
:1007F00023F001031360002070470000F0B583B0C0
:10080000044600230193724B1D68724BA3FB053510
:10081000AD0A876D3E68C26D08239340334210D005
:1008200003681A6812F0040F0BD01A6822F0040251
:100830001A60C26D08239340BB60436D43F001030F
:100840004365E26D01239340334209D02268526927
:1008500012F0800F04D0BB60636D43F00203636548
:10086000E26D04239340334209D02268126812F0EB
:10087000020F04D0BB60636D43F004036365E26D57
:1008800010239340334224D02268126812F0080FDC
:100890001FD0BB6023681A6812F4802F0DD01B682C
:1008A00013F4002F04D1236C9BB12046984710E02D
:1008B000A36C73B1204698470BE01A6812F4807F4E
:1008C00003D11A6822F008021A60236C0BB120468B
:1008D0009847E26D20239340334255D02268126836
:1008E00012F0100F50D0BB6094F83530DBB2052BFE
:1008F0000ED023681A6812F4802F33D01B6813F4CB
:10090000002F2AD1636C002B3ED0204698473BE055
:100910002268136823F0160313602268536923F0DA
:1009200080035361236CA3B12268136823F008038A
:100930001360E26D3F239340BB60002384F83430A2
:10094000012384F83530236D002B3FD02046984793
:100950003CE0A36C002BE7D1EBE7E36BA3B12046AF
:10096000984711E01A6812F4807F09D11A6822F0C2
:1009700010021A60002384F83430012384F83530E3
:10098000E36B0BB120469847636DFBB1636D13F0C9
:10099000010F17D0052384F835302268136823F03F
:1009A00001031360019B01330193AB4204D8236818
:1009B0001B6813F0010FF5D1002384F834300123B4
:1009C00084F83530E36C0BB12046984703B0F0BD96
:1009D0002C000020B5814E1B48B310B5044690F89A
:1009E0003930FBB1022384F839302268136823F4CC
:1009F000403361680B4313602268536B23F0070395
:100A0000A1680B4353632268136C23F47F5323F0D4
:100A10003F03E1680B4313640020E063012384F883
:100A2000393010BD80F8383006F0A6F8DAE701203A
:100A300070477047704770B5044603685D681E686C
:100A400015F0010F16D016F4807F13D01A6822F427
:100A500080721A60C36B43F00103C3630368012211
:100A60009A60042380F83930002380F838304369D5
:100A700003B1984715F0200F18D016F4005F15D079
:100A80002268136823F400531360236820229A60BD
:100A9000E36B43F00203E363042384F8393000235B
:100AA00084F8383063690BB12046984715F0080F79
:100AB00018D016F4006F15D02268136823F4006371
:100AC0001360236808229A60E36B43F00403E36336
:100AD000042384F83930002384F8383063690BB17B
:100AE0002046984715F0040F02D016F4806F20D1ED
:100AF00015F0020F16D016F4007F13D02268136889
:100B000023F400731360236802229A60E36BE363AB
:100B1000012384F83930002384F8383023690BB17D
:100B20002046984715F0100F02D016F4805F0CD1C4
:100B300070BD2268136823F4806313602368042265
:100B40009A602046FFF775FFD2E72268136823F406
:100B500080531360236810229A60E36BE3630123E0
:100B600084F83930002384F838302046FFF762FFDC
:100B7000DEE7000090F83830012B59D030B4012363
:100B800080F83830022380F8393000EB0113DA693D
:100B90008B1C1B01C35842EA0343093A012A1ED9A0
:100BA0008A1C00EB0212526843EA026341BB0468EC
:100BB000656A204A2A4013436362026800EB01130E
:100BC0009C699461DB69093B012B10D9012380F8F2
:100BD0003930002380F83830184630BC70478A1C02
:100BE00000EB0212526802F07F421343DEE702314B
:100BF00000EB01114B68026823F07F439362E5E745
:100C00000468E5690B4A2A401343E361026800EB7C
:100C100001139C691461DB69093B012BD6D80231B1
:100C200000EB01114B68026823F07F431362CDE7AC
:100C300002207047F0FFFC0000230F2B00F2E3803E
:100C4000F0B482B039E0092200E00022B2403A4319
:100C500002346D4E46F824206C4A1468EA4302EAD6
:100C600004064F6817F4803F01D045EA0406674C3C
:100C70002660646802EA04064F6817F4003F01D05A
:100C800045EA0406614C6660A46802EA04064F68FF
:100C900017F4801F01D045EA04065C4CA660E468A6
:100CA00022404E6816F4001F01D045EA0402574C5A
:100CB000E26001330F2B00F2A38001229A400C68FE
:100CC00004EA0205AA42F4D14C68022C01D0122C8D
:100CD00010D1DE08083650F826C003F00704A7003C
:100CE0000F24BC402CEA040C0C69BC4044EA0C0400
:100CF00040F8264004685F000326BE40F64306EA3B
:100D0000040C4C6804F00304BC4044EA0C04046086
:100D10004C6804F1FF3CBCF1010F03D9112C01D048
:100D2000122C10D1846806EA040CCC68BC4044EA5A
:100D30000C048460446824EA02024C68C4F3001482
:100D40009C4014434460C26816408A68BA403243EB
:100D5000C2604A6812F0805FABD0002201922C4A38
:100D6000546C44F480445464526C02F48042019206
:100D7000019A9C08A61C244A52F8267003F003022C
:100D800096000F22B24027EA0207224A90423FF41F
:100D90005CAF02F58062904222D002F58062904200
:100DA00020D002F5806290421ED002F5806290420F
:100DB0001CD002F5806290421AD002F58062904207
:100DC00018D002F58062904216D002F580629042FF
:100DD00014D002F5806290423FF435AF0A2235E725
:100DE000012233E7022231E703222FE704222DE715
:100DF00005222BE7062229E7072227E7082225E715
:100E000002B0F0BC7047704700380140003C014020
:100E1000003802400000024012B9090481617047A5
:100E200081617047F8B50668346A04F00F07C4F3AF
:100E30004343C4F30A14022B2ED16CB307EB870291
:100E4000D3000344596C39B305462246304602F0BC
:100E5000BDFBBA003A44D3002B445A6C22445A6476
:100E6000DA6C2244DA6406EB4713D3F810150B4A08
:100E70000A408AB1D3F8002522F0804242F00042B5
:100E8000C3F80025BB00D919CA002A4492F8503093
:100E900083F0010382F85030F8BD00BF0000F81F56
:100EA000F0B585B09DF828509DF82C60BDF83070E5
:100EB00090F8B842012C41D0012480F8B8424FEAA2
:100EC000810C8C444FEACC0404444FF0000C84F8AD
:100ED0003DC084F83830A4F8407084F8391084F8A4
:100EE0003F6002F07F0C84F83AC012F0800F1BD1F3
:100EF00001EB810C4FEACC0404444FF0000C84F861
:100F00003BC0044601EB810C4FEACC00204480F842
:100F10003C50029701960095206802F063FC002384
:100F200084F8B83205B0F0BD01EB810C4FEACC0477
:100F300004444FF0010C84F83BC0E2E70220F1E7E3
:100F400090F8B832012B0BD010B50446012380F87D
:100F5000B832006802F0CFFC002084F8B80210BD5F
:100F600002207047002845D0F0B58BB006460468D3
:100F700090F8B932002B38D0032386F8B932E36BEE
:100F800013F4807F01D100233361306802F0C5FA89
:100F9000344654F810CB6D460FCC0FC50FCC0FC59F
:100FA00094E8030085E80300371D97E80E006046CB
:100FB00002F068FA0121306802F0B5FA344654F8BC
:100FC00010CB6D460FCC0FC50FCC0FC594E80300B6
:100FD00085E8030097E80E00604602F075FB0123E8
:100FE00086F8B93200200BB0F0BD80F8B83206F0B8
:100FF000CBF8C1E701207047F8B59DF81870BDF82F
:1010000020608D000D44EC00044484F83B2084F8FB
:101010003F306FB901EB8105EC000444032584F8EF
:101020004250032B00F29680DFE803F00A8D2F5E1A
:1010300001EB8105EC000444022584F84250F0E7FE
:10104000012F40F08780002A40F0848036B901EB00
:101050008102D3000344012283F8512001EB810275
:10106000D300034493F851303BB901EB8102D30024
:101070000344002283F842206CE001EB8102D3009C
:101080000344022283F8422064E0B2B901EB8102FA
:10109000D300034493F851303BB901EB8102D300F4
:1010A0000344002283F8422054E001EB8102D30084
:1010B0000344022283F842204CE001EB8102D3007A
:1010C000034493F850303BB901EB8102D300034451
:1010D000002283F842203DE001EB8102D30003446B
:1010E000022283F8422035E0B2B901EB8102D3003D
:1010F000034493F851303BB901EB8102D300034420
:10110000002283F8422025E001EB8102D300034452
:10111000022283F842201DE001EB8102D300034448
:1011200093F850303BB901EB8102D3000344002215
:1011300083F842200EE001EB8102D3000344022237
:1011400083F8422006E001EB8102D3000344002231
:1011500083F842208A005418E3000344079C5C642F
:101160009E64002483F85C40DC6483F8391083F8C3
:101170005D401144CB0003F13801027C014400685A
:1011800002F034FCF8BD30B583B005460468D4F8ED
:1011900040340193D4F840340093009B23F02E0395
:1011A0000093019B13F0020F07D0019B13F0010F76
:1011B00028D1009B43F002030093019B13F0080F1A
:1011C00013D0009B43F008030093019B13F0040F1E
:1011D00034D0AB69022B1CD0EB68012B29D02846F8
:1011E00006F030F8284606F01BF8019B13F0200F9C
:1011F00003D0009B43F020030093009BC4F84034CD
:1012000003B030BDA36923F00053A36106F008F8D2
:10121000CFE7019B03F4C023B3F5802F04D0012155
:10122000286802F0EFF9DAE70221286802F0EAF90B
:10123000D5E74EF66022C4F80424D0E7284606F02D
:1012400007F8D4F8403423F02E03C4F840342A6859
:10125000936943F000539361C7E7F8B506460D461E
:10126000076807EB411707F5A064A36813F0040FA4
:101270003ED00423A360E36843F00203E360A36865
:1012800013F4007F6AD1A36813F0010F00F0878088
:1012900033694BB1AA002A44D30033449A6C2169C4
:1012A000C1F31201521ADA64AA002A44D30033446B
:1012B000012283F85D2000219965A26093F83F30F8
:1012C000002B57D0022B55D0032B5DD1D7F800351A
:1012D00043F00053C7F8003505EB8502D3003344D3
:1012E000012283F85C202946304605F0A5FF4BE03B
:1012F000A36813F0200F02D02023A360BFE7A368E8
:1013000013F0080F17D1A36813F4806FB7D0E36808
:1013100043F00203E360006802F0EDFA1023A360DB
:1013200005EB8502D3003344082283F85D204FF497
:101330008063A360A3E7E36843F00203E36001EB8B
:101340008102D3000344052283F85D201023A360AB
:101350000823A360006802F0CEFA90E7E36843F048
:101360000203E3602946306802F0C5FA4FF40073C7
:10137000A36013E0E36843F00203E36029463068AA
:1013800002F0B9FA1023A360AB005919CA00324425
:1013900092F8503083F0010382F85030F8BDA36812
:1013A00013F0020F62D0E36823F00203E36005EB61
:1013B0008502D300334493F85D30012B17D0052B01
:1013C00029D0062B2FD0082B2DD0032B16D105EBBF
:1013D0008502D3003344022283F85C20D7F800351D
:1013E00023F0804343F00043C7F8003506E005EBE7
:1013F0008502D3003344012283F85C200223A360DA
:1014000005EB8502D300334493F85C20294630462F
:1014100005F012FFC2E705EB8502D3003344052235
:1014200083F85C20EAE7AA002A44D30033449A6D8B
:1014300001329A65032A11D9AA002A44D300334401
:1014400000229A65042283F85C20D7F8003523F047
:10145000804343F00043C7F80035CFE705EB850232
:10146000D3003344022283F85C20EEE7A36813F034
:10147000800F19D1A36813F0100F8FD005EB8502F0
:10148000D300334493F83F30032B25D00BB1022B0C
:1014900007D105EB8502D300334400229A653369F6
:1014A0004BB31023A36079E7E36843F00203E360E2
:1014B000AB005919CA003244916D013191652B443A
:1014C000DA003244062382F85D302946306802F0A3
:1014D00012FA8023A36061E705EB8502D300334451
:1014E00000229A65E36843F00203E360294630680E
:1014F00002F001FAD5E705EB8502D300334403225D
:1015000083F85D20E36843F00203E3602946306816
:1015100002F0F1F9C5E7F8B5036803EB411303F5F1
:10152000A064A26812F0040F24D10E460546A268FA
:1015300012F0200F25D02023A36001EB8102D300FD
:101540001A46034493F83D30012B19D18B00024415
:10155000002182F83D103344DA000244022382F86D
:101560005C30E36843F00203E3603146006802F058
:10157000C2F905E00423A360E36843F00203E360DB
:10158000F8BDA26812F0400F34D1A26812F4007FB7
:101590004AD1A26812F0010F51D1A26812F0080FCF
:1015A00062D1A26812F0100F6FD08A000A44D300F3
:1015B000034400229A65032283F85D2093F83D30AE
:1015C0006BB901EB8102D300034493F83C3033B98B
:1015D00001EB8102D3000344012283F83D20E3683C
:1015E00043F00203E3603146286802F084F91023D7
:1015F000A360C5E78B005918CA000244042182F891
:101600005D10012182F83D103344DA0002440023CA
:101610009365E36843F00203E3603146006802F03B
:101620006AF94023A360ABE7E36843F00203E36099
:10163000006802F060F94FF40073A360A0E78F0028
:101640007A18D300034400229A65E36843F002034A
:10165000E360006802F04FF90123A360B919C800E4
:10166000284480F85D308BE70823A360E36843F0EB
:101670000203E360006802F03EF906EB8601C80051
:101680002844052380F85D307AE7A26812F0800FC5
:1016900039D1A26812F4806F46D1A26812F0020F0D
:1016A0003FF46EAFE26822F00202E26001EB8101DA
:1016B000CA001146024492F85D20012A48D0032A4C
:1016C0005AD0042A6CD0052A72D0062A01D0082AE2
:1016D00059D1B1003144CA002A44916D013191655C
:1016E00003296BD9282202FB0652002191650421AF
:1016F00082F85C10D3F8002522F0804242F00042CC
:10170000C3F800253FE0E36843F00203E3600068AC
:1017100002F0F1F806EB8601CB002B44062283F899
:101720005D208023A3602BE7E36843F00203E360BE
:10173000006802F0E0F81023A3604FF48063A36018
:1017400006EB8601CB002B44082283F85D2017E7C7
:101750000B460344012283F85C2093F83F30023BA0
:10176000DBB293420FD80B46034493F8512082F02A
:10177000010283F8512006E006EB8602D300034401
:10178000022283F85C200223A36006EB8602D300CA
:101790002B4493F85C203146284605F04DFDEFE6DA
:1017A00006EB8602D3000344022283F85C20EAE7BA
:1017B000282303FB060383F85C20E4E7282202FBCE
:1017C0000652022182F85C1094E7F8B504460568D9
:1017D000284601F013FF012800D0F8BD206801F071
:1017E00009FF0028F9D0206801F004FF10F4001F61
:1017F00003D023684FF400125A61206801F0FAFE0A
:1018000010F4801F03D023684FF480125A612068BF
:1018100001F0F0FE10F0806F03D023684FF080627B
:101820005A61206801F0E6FE10F0020F02D0236832
:1018300002225A61206801F0DDFE10F0005F25D120
:10184000206801F0D7FE10F0807F31D1206801F0D0
:10185000D1FE10F0080F2FD1206801F0CBFE10F060
:10186000007F30D1206801F0C5FE10F0100FB4D019
:101870002268936923F0100393612046FFF7D2FAA0
:101880002268936943F010039361A6E7D5F84034CA
:1018900023F02E03C5F84034204605F0C7FC012193
:1018A000206801F0AFFE23684FF000525A61C7E78D
:1018B0002046FFF768FCC9E7204605F0ABFC23682B
:1018C00008225A61C8E7206802F010F8074600268F
:1018D00004E0F1B22046FFF71EFE0136A368B342D2
:1018E00012D906F00F0327FA03F313F0010FF4D017
:1018F00005EB4613D3F8003513F4004FE9D0F1B2ED
:101900002046FFF7AAFCE8E723684FF000725A610F
:10191000A8E738B590F8B832012B0ED0044601255F
:1019200080F8B852006801F0F2FD2946206801F005
:10193000A8FE002084F8B80238BD0220FCE790F829
:10194000B832012B0BD010B50446012380F8B83211
:10195000006802F0F7F8002084F8B80210BD0220F9
:10196000704708B5006801F06DFE08BD01EB81010C
:10197000CB00184490F85C00704701EB8101CB006C
:101980001844C06C704708B5006801F026FF08BD18
:1019900008B5006801F016FF08BD0000002800F03F
:1019A000BE80F8B5044690F83D30002B6BD0242360
:1019B00084F83D302268136823F00103136000F0BF
:1019C000CBFD6268584B9A4262D8584B98428CBF04
:1019D00000230123002B40F0A480554BA3FB0023E0
:1019E0009B0C21684A6822F03F021A434A6025682E
:1019F0002A6A22F03F0266684B498E424ED8013374
:101A000013432B622568E96921F44F4121F0FF015E
:101A10006368454A93424BD801385B00B0FBF3F34F
:101A20000133C3F30B03042B38BF04230B43EB61D7
:101A300021680B6823F0C003E269206A0243134364
:101A40000B6021688B6823F4034323F0FF032269B2
:101A5000E068024313438B602168CB6823F0FF03E7
:101A60006269A06902431343CB602268136843F0A4
:101A70000103136000202064202384F83D3020639C
:101A800084F83E00F8BD80F83C3005F095F88EE70C
:101A9000284B98428CBF002301239BE74FF496719B
:101AA00001FB03F32449A1FB03139B090133A7E7BF
:101AB000A268BAB9461E03EB4307B6FBF7F6013638
:101AC000C6F30B06B6FA86F6760936BBC2B90138FC
:101AD00003EB4303B0FBF3F30133C3F30B0242F414
:101AE0000043A3E7461E03EB830707EB8707B6FB1C
:101AF000F7F60136C6F30B06B6FA86F67609E4E782
:101B0000013803EB830303EB8303B0FBF3F20132F1
:101B1000C2F30B0242F4404388E7012386E7012029
:101B200070470120AEE700BFA08601007F841E0041
:101B300083DE1B43FF083D00D34D621090F83D301B
:101B4000DBB2202B1AD1242380F83D3002681368C1
:101B500023F0010313600268536A23F010035362F9
:101B60000268536A194351620268136843F0010323
:101B70001360202380F83D3000207047022070471A
:101B800090F83D30DBB2202B19D1242380F83D3072
:101B90000268136823F0010313600268536A9BB262
:101BA00023F00F03194389B251620268136843F0AE
:101BB00001031360202380F83D300020704702208D
:101BC0007047F0B44D680468E368C3F30B431D44E9
:101BD000D2011444D4F8883003F47043C4F8883038
:101BE0000B680468E668C6F30B46334401331444BB
:101BF00043EA0543C4F88830CD680468E368C3F35A
:101C00000A031D441444D4F88C3003F47043C4F820
:101C10008C308B680468E668C6F30A0633440133E7
:101C2000144443EA0543C4F88C3003681344D3F8E2
:101C3000944024F00704C3F89440036813440C69EB
:101C4000C3F8944091F831C091F832708E690568FC
:101C50001544D5F89C300024C5F89C4091F83030EC
:101C600043EA0C2343EA07430568154443EA066345
:101C7000C5F89C3003681344D3F8985025F0FF054D
:101C8000C3F89850036813444D69C3F8985003682B
:101C90001344D3F8A05025F4E06525F00705C3F8F8
:101CA000A050CD690E6A036813443543C3F8A050B1
:101CB00003681344D3F8AC50C3F8AC400368134432
:101CC0004C6AC3F8AC400B696BB1012B3CD0042BC0
:101CD0003CD0022B08D0032B3AD0072B01D0012394
:101CE00002E0022300E0042304681444D4F8B05056
:101CF00005F0E025C4F8B0508C6A03FB04F54C688D
:101D00000E68A41B03FB04F303330468144443EA82
:101D10000543C4F8B03003681344D3F8B44024F446
:101D2000FF6424F00704C3F8B44003681344C96A8D
:101D3000C3F8B41003681A44D2F8843043F00103A6
:101D4000C2F88430F0BC70470323CDE70223CBE711
:101D50000223C9E7002872D038B5044690F8A130B4
:101D6000002B67D0022384F8A1302268936923F006
:101D70007043936121688A696368A0680343E068DF
:101D800003432069034313438B6121688A682D4B09
:101D90001A408A60656920688268A16941EA054144
:101DA0000A4382602168CA681A40CA60E5692068EF
:101DB000C268216A41EA05410A43C26021680A6992
:101DC0001A400A61656A20680269A16A41EA054110
:101DD0000A43026121684A6913404B61E06A216845
:101DE0004B69226B42EA004213434B6194F8350081
:101DF00094F836301B042168CA6A02F07F42CA6236
:101E00002168CA6A43EA002394F834000343134369
:101E1000CB622268536B43F00603536322689369D5
:101E200043F0010393610020C4F8A400012384F867
:101E3000A13038BD80F8A03004F012FF92E70120F5
:101E4000704700BF00F800F070477047704770B5EA
:101E5000044603689D6B5E6B15F0040F02D016F00C
:101E6000040F12D115F0020F02D016F0020F21D18B
:101E700015F0010F02D016F0010F32D115F0080F46
:101E800002D016F0080F3DD170BD5A6B22F004024B
:101E90005A6303680422DA63D0F8A43043F00103E4
:101EA000C0F8A43080F8A120002380F8A030FFF70C
:101EB000CBFFD7E72268536B23F0020353632368F9
:101EC0000222DA63D4F8A4301343C4F8A430042304
:101ED00084F8A130002384F8A0302046FFF7B4FF37
:101EE000C6E72268536B23F0010353632268012382
:101EF000D36384F8A130002384F8A0302046FFF794
:101F0000A4FFBBE72268536B23F0080353632368E5
:101F10000822DA63012384F8A130002384F8A0307A
:101F20002046FFF793FFAFE790F8A030012B27D0B2
:101F30002DE9F04194460F4606464FF0010880F81F
:101F4000A080022380F8A130342404FB020438343A
:101F50000D460FCD0FC40FCD0FC40FCD0FC42B688E
:101F60002360624639463046FFF72BFE3368C3F8DC
:101F7000248086F8A180002086F8A000BDE8F081CA
:101F800002207047002800F0BB8170B582B0044683
:101F9000036813F0010F3BD0A74B9B6803F00C03C1
:101FA000042B2CD0A44B9B6803F00C03082B21D0EE
:101FB0006368B3F5803F4FD0B3F5A02F52D09E4B4E
:101FC0001A6822F480321A601A6822F480221A6099
:101FD0006368002B50D0FEF7B1FA0546964B1B689C
:101FE00013F4003F14D1FEF7A9FA401B6428F5D979
:101FF00003208AE1904B5B6813F4800FD8D08E4B9E
:102000001B6813F4003F03D06368002B00F07A8153
:10201000236813F0020F55D0874B9B6813F00C0F09
:102020003ED0854B9B6803F00C03082B33D0E3684C
:10203000002B68D0814B01221A60FEF77FFA05461B
:102040007D4B1B6813F0020F54D1FEF777FA401B4B
:102050000228F5D9032058E1774A136843F4803306
:102060001360B5E7744B1A6842F480221A601A684C
:1020700042F480321A60ABE7FEF760FA05466E4B19
:102080001B6813F4003FC3D0FEF758FA401B6428C6
:10209000F5D9032039E1684B5B6813F4800FC6D192
:1020A000654B1B6813F0020F04D0E368012B01D0CD
:1020B00001202AE1604A136823F0F803216943EA0A
:1020C000C1031360236813F0080F40D0636963B342
:1020D0005B4B01221A60FEF731FA0546564B5B6FE7
:1020E00013F0020F33D1FEF729FA401B0228F5D96D
:1020F00003200AE1504A136823F0F803216943EAF8
:10210000C1031360DEE74D4B00221A60FEF716FA9A
:102110000546494B1B6813F0020FD3D0FEF70EFAA9
:10212000401B0228F5D90320EFE0454B00221A603E
:10213000FEF704FA0546404B5B6F13F0020F06D022
:10214000FEF7FCF9401B0228F5D90320DDE02368E7
:1021500013F0040F79D0384B1B6C13F0805F33D130
:1021600000230193344B1A6C42F080521A641B6CAA
:1021700003F080530193019B0125324B1B6813F43C
:10218000807F23D0A368012B34D0052B38D02A4B75
:102190001A6F22F001021A671A6F22F004021A67FE
:1021A000A368002B36D0FEF7C9F90646224B1B6FF9
:1021B00013F0020F48D1FEF7C1F9801B41F28833BA
:1021C0009842F3D90320A0E00025D6E71D4A136802
:1021D00043F480731360FEF7B1F90646194B1B6890
:1021E00013F4807FCED1FEF7A9F9801B0228F5D920
:1021F00003208AE0104A136F43F001031367CFE70F
:102200000D4B1A6F42F004021A671A6F42F0010276
:102210001A67C5E7FEF792F90646074B1B6F13F0E6
:10222000020F11D0FEF78AF9801B41F288339842E1
:10223000F3D9032069E000BF0038024000004742A4
:10224000800E474200700040E5B9A369002B5BD0C7
:10225000304A926802F00C02082A58D0022B17D09C
:102260002D4B00221A60FEF769F90446294B1B68C2
:1022700013F0007F42D0FEF761F9001B0228F5D968
:10228000032042E0234A136C23F080531364DCE7FD
:10229000214B00221A60FEF751F905461D4B1B68C1
:1022A00013F0007F06D0FEF749F9401B0228F5D94C
:1022B00003202AE0E369226A1343626A43EA821335
:1022C000A26A5208013A43EA0243E26A43EA02631D
:1022D000104A5360104B01221A60FEF72FF9044692
:1022E0000C4B1B6813F0007F06D1FEF727F9001B8B
:1022F0000228F5D9032008E0002006E0002004E0D1
:1023000001207047012000E0002002B070BD0120D4
:10231000FBE700BF0038024060004742324B9B6839
:1023200003F00C03042B5CD0082B01D02F4870471E
:102330002DE9F04B2C4B5A6802F03F025B6813F416
:10234000800F2BD0284B5B68C3F388131E460027F1
:102350005C010025E41A65EB0705A90141EA9461D7
:10236000A001001B61EB0501CB0043EA5073C400E0
:10237000A01943EB07014B0243EAD0534402204625
:1023800019460023FDF734FF174B5B68C3F3014385
:1023900001335B00B0FBF3F0BDE8F08B124B5B68E0
:1023A000C3F388131E4600275C010025E41A65EB81
:1023B0000705A90141EA9461A001001B61EB050139
:1023C000CB0043EA5073C400A01943EB07018B0212
:1023D00043EA90538402204619460023FDF708FF84
:1023E000D2E70348704700BF003802400024F400E1
:1023F00000127A00002800F09D8070B504464F4B13
:102400001B6803F00F038B4209D2CBB24B4A137007
:10241000136803F00F038B4201D0012070BD2368C5
:1024200013F0020F17D013F0040F04D0444A93683E
:1024300043F4E0539360236813F0080F04D0404A3C
:10244000936843F4604393603D4A936823F0F0033C
:10245000A068034393600D46236813F0010F32D048
:102460006368012B21D09A1E012A25D9344A1268AB
:1024700012F0020F60D032498A6822F0030213433F
:102480008B60FEF75BF806462D4B9B6803F00C0350
:102490006268B3EB820F16D0FEF750F8801B41F252
:1024A00088339842F0D90320B8E7254A126812F41D
:1024B000003FE0D10120B1E7214A126812F0007F0D
:1024C000D9D10120AAE71D4B1B6803F00F03AB42D3
:1024D00009D9EAB2194B1A701B6803F00F03AB421B
:1024E00001D001209AE7236813F0040F06D0144AA4
:1024F000936823F4E053E1680B439360236813F07F
:10250000080F07D00E4A936823F46043216943EA19
:10251000C1039360FFF702FF094B9B68C3F30313EA
:10252000084AD35CD840084B1860002004F036FD00
:10253000002073E70120704701206FE7003C024054
:1025400000380240B07600082C000020014B1868CB
:10255000704700BF2C00002008B5FFF7F7FF044BC1
:102560009B68C3F38223034AD35CD84008BD00BFF5
:1025700000380240C076000808B5FFF7E7FF044BBB
:102580009B68C3F34233034AD35CD84008BD00BF05
:1025900000380240C07600080F2303600B4B9A6896
:1025A00002F0030242609A6802F0F00282609A68C8
:1025B00002F4E052C2609B68DB0803F4E05303615D
:1025C000034B1B6803F00F030B6070470038024099
:1025D000003C024030B583B00446036813F0030F9B
:1025E00014D1236813F00C0F5AD1236813F0200F75
:1025F00040F0AF80236813F0100F00F0118194F8C1
:102600002C20884B1A60002003B030BD864B00227E
:102610001A60FDF793FF0546844B1B6813F0006FAB
:1026200006D0FDF78BFF401B0228F5D90320EBE70E
:10263000236813F0010F07D06268A3681B0743EA01
:1026400082137A4AC2F88430236813F0020F15D03F
:10265000764AD2F884106068E3681B0643EA801368
:1026600001F0E0410B43C2F88430D2F88C3023F003
:102670001F03E16901390B43C2F88C306A4B012218
:102680001A60FDF75BFF0546684B1B6813F0006F8F
:10269000A7D1FDF753FF401B0228F5D90320B3E76C
:1026A000634B00221A60FDF749FF05465F4B1B682C
:1026B00013F0005F06D0FDF741FF401B0228F5D95B
:1026C0000320A1E7236813F0040F16D0574AD2F86D
:1026D0008810206963691B0643EA801301F0E0411A
:1026E0000B43C2F88830D2F88C3023F4F853216AB7
:1026F000013943EA0123C2F88C30236813F0080F34
:1027000014D04A4AD2F88830216903F0706343EA52
:102710008113A16943EA0173C2F88830D2F88C3082
:1027200023F44033616A0B43C2F88C30404B0122E2
:102730001A60FDF703FF05463C4B1B6813F0005F72
:102740007FF453AFFDF7FAFE401B0228F4D90320B3
:102750005AE700230193354B1A6C42F080521A64F9
:102760001B6C03F080530193019B324A136843F4BE
:1027700080731360FDF7E2FE05462E4B1B6813F4D1
:10278000807F06D1FDF7DAFE401B0228F5D9032031
:102790003AE7264B1B6F13F4407312D0A26A02F47F
:1027A00040729A420DD0214B1A6F22F44072224996
:1027B00001200860002008601A671B6F13F0010FEA
:1027C00012D1A36A03F44072B2F5407F1DD0174ABC
:1027D000936823F4F813936014490B6FA26AC2F351
:1027E0000B0213430B6705E7FDF7A8FE05460F4BE9
:1027F0001B6F13F0020FE4D1FDF7A0FE401B41F266
:1028000088339842F3D90320FEE608498A6822F407
:10281000F81223F0704323F4407313438B60DBE71B
:102820000020F1E6E01147426800474200380240CC
:102830007000474200700040400E4742D8B138B5A2
:1028400004460D4690F82C3083B1022384F82C30D6
:10285000211D206800F070FD62682946206800F0A4
:10286000A7FD012384F82C30002038BD80F82D30DE
:1028700004F090FBE9E70120704700283BD010B539
:1028800004460023836290F85130002B2ED002239F
:1028900084F851302268136823F0400313606368A2
:1028A000A2681343E2681343226913436269134326
:1028B000A26902F400721343E2691343226A1343CC
:1028C000A16A22680B431360638B03F00403616AFF
:1028D00022680B4353602268D36923F40063D361F9
:1028E00000206065012384F8513010BD80F850301D
:1028F00004F082FACBE70120704710B4036A046A3F
:1029000024F001040462846924F0F00444EA021211
:1029100023F00A030B43826103625DF8044B7047A6
:1029200010B4036A23F0100303628469036A24F479
:10293000704444EA023223F0A00343EA01138261A7
:1029400003625DF8044B7047836823F070031943FA
:1029500041F00701816070470268D36843F00103CA
:10296000D3600268936803F00703062B03D0136853
:1029700043F00103136000207047704770477047B1
:10298000704710B5044603681A6912F0020F11D09F
:10299000DA6812F0020F0DD06FF002021A61012303
:1029A000037703689B6913F0030F70D0FFF7E6FF0E
:1029B0000023237723681A6912F0040F12D0DA6813
:1029C00012F0040F0ED06FF004021A610223237775
:1029D00023689B6913F4407F5FD02046FFF7CEFF4A
:1029E0000023237723681A6912F0080F12D0DA68DF
:1029F00012F0080F0ED06FF008021A61042323773B
:102A00002368DB6913F0030F4ED02046FFF7B6FFB3
:102A10000023237723681A6912F0100F12D0DA68A6
:102A200012F0100F0ED06FF010021A6108232377F6
:102A30002368DB6913F4407F3DD02046FFF79EFFFB
:102A40000023237723681A6912F0010F03D0DA6894
:102A500012F0010F36D123681A6912F0800F03D0EB
:102A6000DA6812F0800F34D123681A6912F0400F2F
:102A700003D0DA6812F0400F32D123681A6912F0DD
:102A8000200F03D0DA6812F0200F30D110BDFFF70D
:102A900074FF2046FFF773FF8AE72046FFF76DFFBC
:102AA0002046FFF76CFF9BE72046FFF766FF2046B6
:102AB000FFF765FFACE72046FFF75FFF2046FFF713
:102AC0005EFFBDE76FF001021A61204603F09EFF32
:102AD000C1E76FF080021A61204600F029F9C3E7D0
:102AE0006FF040021A612046FFF74AFFC5E76FF01A
:102AF00020021A61204600F01AF9C7E70368304A3D
:102B0000904212D0B0F1804F0FD0A2F57C4290429B
:102B10000BD002F58062904207D002F580629042AD
:102B200003D002F57842904203D123F070034A6843
:102B30001343234A90422AD0B0F1804F27D0A2F508
:102B40007C42904223D002F5806290421FD002F571
:102B5000806290421BD002F57842904217D002F575
:102B60007052904213D002F5806290420FD002F56D
:102B7000806290420BD0A2F59832904207D002F5C5
:102B80008062904203D002F58062904203D123F428
:102B90004073CA68134323F080034A6913430360F8
:102BA0008B68C3620B688362054B984203D003F5C0
:102BB0008063984201D10B6903630123436170472D
:102BC00000000140A8B110B5044690F83D305BB15B
:102BD000022384F83D30211D2068FFF78FFF012379
:102BE00084F83D30002010BD80F83C3004F03AF904
:102BF000EEE70120704710B4846824F47F4442EA71
:102C000003230B43234383605DF8044B704790F824
:102C10003C30012B66D010B50446012380F83C30CF
:102C2000022380F83D300268936823F47F4323F049
:102C3000770393600B68402B4AD013D9602B3DD0AB
:102C40001ED9702B28D0B3F5005F30D1CB684A680D
:102C500089680068FFF7CFFF2268936843F48043D8
:102C6000936024E0102B06D004D9202B03D0302B06
:102C700001D01CE0DBB919462068FFF765FE16E0BD
:102C8000502B14D1CA6849680068FFF736FE5021FE
:102C90002068FFF759FE0AE0CB684A688968006837
:102CA000FFF7A9FF2268936843F07703936001233D
:102CB00084F83D30002084F83C0010BDCA684968A3
:102CC0000068FFF72DFE60212068FFF73DFEEEE76C
:102CD000CA6849680068FFF710FE40212068FFF7C6
:102CE00033FEE4E70220704790F83C30012B1CD003
:102CF00070B4012680F83C60022380F83D30026801
:102D00005568936825F070050C682C4323F0800506
:102D10004B682B4354600268936080F83D60002349
:102D200080F83C30184670BC7047022070477047EE
:102D300070470268D36823F49073D36002685369C4
:102D400023F001035361202380F83A30704790F854
:102D50003930DBB2212B2AD18368B3F5805F16D0DE
:102D6000036A5A1C02621A7803685A60C38C013BDA
:102D70009BB2C384EBB90268D36823F08003D360AD
:102D80000268D36843F04003D36000207047036AB1
:102D90001B880268C3F30803536003691BB9036A05
:102DA00002330362E2E7036A01330362DEE70220D3
:102DB00070470020704700002DE9F8430446026880
:102DC000136923F44053C1680B431361836802699C
:102DD000134342691343C2691A430168CB6823F461
:102DE000164323F00C031343CB600268536923F4AA
:102DF000407381690B435361C369B3F5004F60D0E1
:102E00000368B84A934200F0148102F5806293424D
:102E100000F00F81FFF7A0FB00EB800000EB8000CB
:102E20006568AD00B0FBF5F5AF4FA7FB05356D0943
:102E30002E01FFF791FB00EB800000EB800065683E
:102E4000AD00B0FBF5F9FFF787FB00EB800000EB6E
:102E500080006568AD00B0FBF5F5A7FB05356D0991
:102E60004FF0640808FB15952D013235A7FB053599
:102E70006D0905F0F0053544FFF76EFB00EB8000AF
:102E800000EB80006668B600B0FBF6F6FFF764FB67
:102E900000EB800000EB800063689B00B0FBF3F068
:102EA000A7FB0030400908FB10684FEA081808F13A
:102EB0003208A7FB0837C7F3431723682F449F60E6
:102EC0000DE10368874A93425BD002F5806293422A
:102ED00057D0FFF741FB00EB800000EB80006568F6
:102EE0006D00B0FBF5F5804FA7FB05356D092E0190
:102EF000FFF732FB00EB800000EB800065686D009F
:102F0000B0FBF5F9FFF728FB00EB800000EB800039
:102F100065686D00B0FBF5F5A7FB05356D094FF051
:102F2000640808FB1595ED003235A7FB05356D09E2
:102F30006D0005F4F8753544FFF70EFB00EB8000DB
:102F400000EB800066687600B0FBF6F6FFF704FB46
:102F500000EB800000EB800063685B00B0FBF3F3E4
:102F6000A7FB03235B0908FB13684FEAC80808F1B5
:102F70003208A7FB0837C7F3421723682F449F6026
:102F8000ADE0FFF7F9FA00EB800000EB8000656828
:102F90006D00B0FBF5F5544FA7FB05356D092E010B
:102FA000FFF7EAFA00EB800000EB800065686D0037
:102FB000B0FBF5F9FFF7E0FA00EB800000EB8000D2
:102FC00065686D00B0FBF5F5A7FB05356D094FF0A1
:102FD000640808FB1595ED003235A7FB05356D0932
:102FE0006D0005F4F8753544FFF7C6FA00EB800074
:102FF00000EB800066687600B0FBF6F6FFF7BCFADF
:1030000000EB800000EB800063685B00B0FBF3F333
:10301000A7FB03235B0908FB13684FEAC80808F104
:103020003208A7FB0837C7F3421723682F449F6075
:1030300055E0FFF7A1FA00EB800000EB8000656827
:10304000AD00B0FBF5F5284FA7FB05356D092E0146
:10305000FFF792FA00EB800000EB80006568AD009E
:10306000B0FBF5F9FFF788FA00EB800000EB800079
:103070006568AD00B0FBF5F5A7FB05356D094FF0B0
:10308000640808FB15952D013235A7FB05356D0940
:1030900005F0F0053544FFF76FFA00EB800000EB18
:1030A00080006668B600B0FBF6F6FFF765FA00EB45
:1030B000800000EB800063689B00B0FBF3F0A7FB8F
:1030C0000030400908FB10684FEA081808F1320880
:1030D000A7FB0837C7F3431723682F449F60BDE859
:1030E000F88300BF001001401F85EB5158B310B5A5
:1030F000044690F839300BB3242384F83930226821
:10310000D36823F40053D3602046FFF755FE2268AE
:10311000136923F4904313612268536923F02A034F
:1031200053612268D36843F40053D3600020E06306
:10313000202384F8393084F83A3010BD80F83830D4
:1031400003F0A8FED8E701207047704708B5016872
:10315000CB6823F04003CB60202380F83930FFF7A1
:10316000F4FF002008BD704708B590F83A30DBB294
:10317000222B45D18368B3F5805F0ED0036903BB72
:1031800003685A68836A591C81621A70C38D013BB7
:103190009BB2C385F3B1002033E0826A036943B96F
:1031A00003685B68C3F308031380836A0233836296
:1031B000ECE703685B68DBB21380836A01338362E8
:1031C000E4E703685B68826A511C816203F07F0355
:1031D0001370DBE70268D36823F02003D360026832
:1031E000D36823F48073D3600268536923F001032A
:1031F0005361202380F83A30FFF7B5FF002000E04C
:10320000022008BD7047000010B50446026813682C
:10321000D168526913F00F0005D113F0200F02D0CE
:1032200011F0200F53D1002867D012F0010202D113
:1032300011F4907F61D013F0010F06D011F4807F5C
:1032400003D0E06B40F00100E06313F0040F04D002
:103250001AB1E06B40F00200E06313F0020F04D0FB
:103260001AB1E06B40F00400E06313F0080F04D0E3
:103270001AB1E26B42F00802E263E26B002A48D026
:1032800013F0200F02D011F0200F24D123685B69C6
:1032900003F04003E26B12F0080F00D13BB320466D
:1032A000FFF747FD23685A6912F0400F1BD05A6997
:1032B00022F040025A61636B8BB11A4A1A65606B47
:1032C000FDF788FA28B3606B036D984721E020462C
:1032D000FFF74AFF1DE02046FFF746FFD6E72046EE
:1032E000FFF790FF15E02046FFF78CFF11E0204626
:1032F000FFF788FF0023E3630BE013F0800F02D099
:1033000011F0800F06D113F0400F02D011F0400FE2
:1033100004D110BD2046FFF71AFDFAE72046FFF75B
:1033200015FFF6E72933000808B5806B0023C38535
:10333000C384FFF767FF08BD30B40B68012B1AD0B8
:10334000026822F4FF4222F07F024B688C6823431C
:10335000CC6823430C6923434C6923438C69234382
:10336000CC6923430C6A2343496A0B43134303602C
:10337000002030BC7047026822F4F842CB690C6A26
:103380001C434B6A1C431443426822F4FF4222F060
:103390007F024B688D682B43CD682B430D692B430F
:1033A0004D692B4389690B43134304604360DFE796
:1033B00030B4012A21D0826802F070420B68013BD0
:1033C0004C68013C43EA04138C68013C43EA042343
:1033D000CC68013C43EA04330C69013C43EA0443F2
:1033E0004C69013C43EA04538969013943EA0163AA
:1033F00013438360002030BC7047846824F4700459
:1034000024F47044CA68551E4B695A1E120542EADC
:1034100005322243C46804F070440B68013B4D68D8
:10342000013D43EA05138D68013D43EA05230D691B
:10343000013D43EA05438969013943EA01632343B6
:103440008260C360D6E70000002301330C4A934238
:1034500011D80269002AF8DA036943F00103036115
:1034600000230133064A934207D8026912F0010F84
:10347000F7D100207047032070470320704700BF3A
:10348000400D030084B010B5044603A880E80E0088
:10349000089B012B1FD1A36B23F48033A363E36844
:1034A00023F4840323F04003E360E36823F4401330
:1034B000E3600F9B012B09D02046FFF7C5FF069B59
:1034C000012B1BD0BDE8104004B07047E36843F403
:1034D0008013E360F0E7E36843F04003E3602046D5
:1034E000FFF7B2FF0C9B23B9A36B43F48033A363B4
:1034F000E5E7A36B23F48033A363E0E7A36843F01D
:103500000603A360A36843F02003A360DAE783689F
:1035100043F00103836000207047836823F00103B8
:1035200083600020704708B5C36823F0C043C360C0
:10353000012909D069B9C36843F08043C3603220D0
:10354000FDF702F8002008BDC36843F00053C360D4
:10355000F5E70120F7E70000890141F02001016152
:1035600000230133054A934205D8026912F0200F67
:10357000F7D1002070470320704700BF400D0300C3
:103580001023036100230133054A934205D80269E1
:1035900012F0100FF7D1002070470320704700BFD2
:1035A000400D030070B49DF80C4064B903339D08CE
:1035B00007E000EB023303F5805351F8046B1E6003
:1035C0000134AC42F5D3002070BC7047033292083E
:1035D000002393420CD210B400F58054246841F8C3
:1035E000044B01339342F7D308465DF8044B704710
:1035F000084670474269806910407047406900F092
:103600000100704710B400F58064D0F8003423F056
:103610000303C0F80034D0F8003401F00302134370
:10362000C0F80034012905D0022907D000205DF838
:10363000044B70474BF680336360F7E741F27073D9
:103640006360F3E730B583B0044600250195D0F8F8
:1036500040340193019B23F02E030193019B43F41B
:103660008073C0F840346420FCF76EFF019B23F4A4
:103670008073C4F840340A20FCF766FF284603B084
:1036800030BD82B000230193D0F840340193019BF8
:1036900023F02E030193019B13F4805F01D10129D4
:1036A0000CD0019B13F4805F05D021B9019B23F45A
:1036B0008053C0F84034002002B07047019B43F4AF
:1036C0008053C0F84034ECE784B038B5044605A810
:1036D00080E80E0025460023C4F8003EA36B43F4A7
:1036E0000013A363A36B23F40023A363A36B23F44E
:1036F0008023A363E36B13F4807F10D0079B032B1D
:1037000006D0D4F8003423F00403C4F800340CE0ED
:10371000D4F8003443F00403C4F8003405E0D4F8CE
:10372000003423F00403C4F8003410212046FFF7CE
:1037300013FF2046FFF724FF002209E005EB4213A8
:103740004FF0FF31C3F808150021C3F80C15013202
:10375000069B9342F2D801212046FFF792FFC82032
:10376000FCF7F2FE0023A3614FF0FF336361E36BCC
:1037700013F4807F17D04FF40073636203F18073FA
:10378000A3620D4BC4F80031089B1BB9A36943F039
:103790001003A361A269094B1343A3610020BDE894
:1037A000384004B070478023636203F5C003A3620E
:1037B000034BC4F80031E7E70003E000080020A352
:1037C000E000400082B000230193D0F84034019320
:1037D0000198C0F3414002B0704700F580608068F6
:1037E00080B27047F0B506469DF8184000EB4115D1
:1037F00005F5A0604FF0FF378760032C65D8DFE840
:1038000004F00256021840F29D47C76012F0800F84
:1038100009D1F76B17F4807F59D0C76847F060076C
:10382000C76000200CE0C76847F48077C7600020BD
:1038300006E040F29D67C76012F0800F31D1002092
:1038400006F5806ED6F8187401F00F014FF0010CE8
:103850000CFA01F13943C6F81814B16941F000714E
:10386000B16112F0800F34D100269DF814100229A6
:1038700032D000219B0503F0FE53D20202F4F04245
:103880001343A20402F440221343BDF81C20C2F3E8
:103890000A02134333430B43C5F80035032C1ED0F3
:1038A000F0BDC76847F48077C7600020C8E740F2E2
:1038B0002527C76012F0800F01D10020C0E7C7683C
:1038C00047F4C077C7600020BAE70120B8E70020BE
:1038D000B6E74FF40046C8E74FF40031CAE7D5F821
:1038E000003543F00053C5F80035D9E700F5806096
:1038F000406980B2704710B400EB411101F5A0643B
:10390000D1F80035C3F381433BB3022B25D0D1F866
:10391000003543F08043C1F80035D0F8103413F47B
:103920007F0F49D1D1F8003523F00043C1F80035AD
:10393000D1F8003543F00043C1F80035D1F8003527
:1039400023F40043C1F8003500230133B3F57A7F37
:1039500027D82268002AF8DB23E0D1F8003543F0AD
:103960008043C1F80035C36A13F47F0F1DD1D1F82D
:10397000003523F00043C1F80035D1F8003543F09D
:103980000043C1F80035D1F8003523F40043C1F8F5
:10399000003500230133B3F57A7F02D82268002A6C
:1039A000F8DB00205DF8044B7047D1F8003543F098
:1039B0000043C1F80035F4E7D1F8003543F0004387
:1039C000C1F80035EDE7000000EB4111064AC1F8EF
:1039D0001025D1F8003523F0804343F00043C1F8AF
:1039E00000350020704700BF0000088070B582B02D
:1039F0004C78C36B13F4807F07D00B792BB912B9C5
:103A00004B79012B11D0012A13D00B69E3B10D8939
:103A10002B44013BB3FBF5F39BB2B3F5807F14D984
:103A20002D020D614FF480730FE02146FFF7CCFFAC
:103A300075E000EB4413D3F80C5525F06005C3F88E
:103A40000C5500234B71E0E70123CD781DB10D89A2
:103A500005FB03F50D610D69C5F31205374E06EA46
:103A6000C3432B438D7A6D0705F0C04500EB44142A
:103A70002B43C4F8103512B1CB68C4F8143500F5E7
:103A80008066B36813F0010FD4F8003523F00053BB
:103A9000C4F80035D4F800350CBF4FF000550025B0
:103AA0002B43C4F80035D4F80055254B1D601D6824
:103AB00025F080451D60CB78C3B1214D2B6843F4C0
:103AC00000432B601E4B1D6845F000451D601B68C0
:103AD000C4F800351ABBCB780BBB0B69FBB1CA79B4
:103AE000032A14D8DFE802F0081E081E144D2B68C4
:103AF00023F400432B60E5E70333C26A92B2C3F3B9
:103B00008F039A4203D2836943F020038361CC6818
:103B10004A780B8A002100912146FFF743FD0020DF
:103B200002B070BD0333326992B2C3F38F039A427D
:103B3000EDD2836943F080638361E8E70000F81FFA
:103B4000B000002070B505460446FFF7E6FC1021E2
:103B50002846FFF701FD2846FFF712FD00220AE084
:103B600004EB4211D1F8003523F0802343F0804369
:103B7000C1F8003501320F2AF2D90020034600E0D7
:103B800001300F2813D804EB401606F5A061D6F8D3
:103B9000002522F4004242F04042C6F800250133DD
:103BA000B3F57A7FECD80A68002AF8DBE8E74FF033
:103BB000FF33C5F814346B612846FFF7A8FC0020DA
:103BC00070BD0020704708B5212202742022427483
:103BD0000022428282820722C28200F06AFF08BD70
:103BE00008B5A122027421224274002242828282FC
:103BF0000722C28200F05DFF08BD38B50446D0F848
:103C00007833D9694031FFF7EBFF054620B9D4F886
:103C1000C833022120469847284638BD38B50546A6
:103C2000D0F87833DC69217879B9217BB1B9617B2F
:103C3000F1B9D5F87833D86928B103F03BFCD5F851
:103C400078330022DA61002038BD01F08CF8217849
:103C5000284601F09EF800232370E6E7284601F08D
:103C600082F8217B284601F094F800232373DEE7D5
:103C7000284601F078F8617B284601F08AF8002395
:103C80006373D6E770B584B004460123022211465F
:103C900000F0F8FAFF2800F0A18006460146204611
:103CA00000F0E6FAD4F87853502003F0FBFBE8610B
:103CB000D4F87833DD691A2303FB064393F84A33BB
:103CC00013F0800F72D16978204601F051F8014657
:103CD000287094F81C336A78688902900320019058
:103CE00094F81D030090204601F02DF80022297859
:103CF000204603F008FB00231A460A21204600F064
:103D0000C1FAFF286CD01A2303FB004393F84A330F
:103D100013F0800F52D1AB731A2303FB0043B3F8A7
:103D20004C332B831A2303FB004393F8523313F0D5
:103D3000800F4BD1AB731A2303FB0040B0F8543310
:103D40002B83A97B204601F013F86873E97B20469A
:103D500001F00EF8287394F81C33AA7B697B288B3A
:103D600002900226019694F81D030090204600F070
:103D7000EAFF94F81C33EA7B297B688B029001965A
:103D800094F81D030090204600F0DDFF002685F822
:103D90004C603246697B204603F0B5FA3246297BF7
:103DA000204603F0B0FA304604B070BD6B701A23A1
:103DB00003FB0646B6F84C336B8184E7EB731A239A
:103DC00003FB0043B3F84C336B83ABE7EB731A236D
:103DD00003FB0040B0F854336B83B2E70220E3E703
:103DE0000220E1E7704730B583B00546D0F878335C
:103DF000DC6994F84D30012B03D0022B19D003B0AD
:103E000030BD606A228B90420AD9637BE169012050
:103E10000090284600F05FFF022384F84D30EEE763
:103E2000637BE1690122009282B2284600F053FFD1
:103E3000F2E7617B03F054FA01280DD00228DED1AD
:103E4000012384F84D300421C5F8D4130022D5F89D
:103E5000CC0300F0E5FFD2E7636A228B934212D9CC
:103E60009B1A6362E3691A44E261636A73B10123D6
:103E700084F84D300421C5F8D4130022D5F8CC03C2
:103E800000F0CEFFBBE700236362EEE7002384F877
:103E90004D302846FFF7A6FFECE7704738B50546DA
:103EA000D0F87833DC6994F84E30032B02D0042B21
:103EB00009D038BD237B628B216A00F022FF0423E6
:103EC00084F84E30F5E7217B03F00AFA0128F0D19F
:103ED000217B284603F0FEF9A36A83420BD0628B54
:103EE000824208D21B1AA362236A18442062032369
:103EF00084F84E3005E0002384F84E302846FFF762
:103F0000CCFF0421C5F8D4130022D5F8CC0300F06F
:103F100087FFCEE7704738B50546D0F87833DC69BF
:103F200094F84C30042B04D8DFE803F04C05163C21
:103F30004300012347E0A16CFFF745FE034630B183
:103F4000012840D0042384F84C3001233BE00223B5
:103F500084F84C30012336E004F14001FFF740FEC5
:103F60000346C0B9002384F84C30636C23F07F42D1
:103F7000A16C4B6823F07F439A4201D0012322E0D9
:103F8000226C0B689A4201D001231CE02846FFF7FF
:103F9000C1FF012317E0012815D0042384F84C3019
:103FA000012310E0FFF71FFF2846FFF777FF0123EB
:103FB00009E0002100F046FE38B9002384F84C30B7
:103FC000012300E00023184638BD0123FBE700234E
:103FD00005E003F1E002002140F8221001330E2B2E
:103FE000F7D9002304E0C218002182F81C11013324
:103FF000B3F5007FF7D30023037043700122827072
:10400000C0F8BC33027640218171437680F81C33BE
:1040100080F81D231846704708B50378DBB20B2BD8
:1040200000D008BDD0F87833002BFAD09B699847B0
:10403000F7E770B584B004464378072B00F2C880D8
:10404000DFE803F0042C365F687295AE082100F0BB
:104050007CFD18B10125284604B070BD94F82923D1
:10406000A2710125657094F81C3321790292002613
:10407000019694F81D2300928022204600F063FEF2
:1040800094F81C336179A2790292019694F81D2369
:1040900000923246204600F056FEDCE7122100F086
:1040A00054FD002840F09680022363700125D2E77A
:1040B000012100F094FD08B10125CCE7022003F0B6
:1040C0003BF9012584F81C53032363702179A379FC
:1040D00002930026019694F81D3300932B4680220C
:1040E000204600F030FE94F81C336179A2790292E8
:1040F000019694F81D2300923246204600F023FEDC
:10410000A9E7092100F03AFD002865D10423637076
:104110000125A0E7B0F8361300F030FD00285DD18E
:1041200005236370012596E790F8301399B1FF23BA
:1041300000F58E7200F03BFD08B101258BE70623E8
:1041400063700521C4F8D4130022D4F8CC0300F026
:1041500067FE01257FE7062343700521C0F8D413CD
:104160000022D0F8CC0300F05BFE012573E790F845
:10417000311349B1FF2300F58E7200F018FD78BBB2
:1041800007236370012566E7072343700521C0F804
:10419000D4130022D0F8CC0300F042FE01255AE7E8
:1041A00090F8321351B1FF2300F58E7200F0FFFC3E
:1041B000054600283FF44FAF01254CE70521C0F824
:1041C000D4130022D0F8CC0300F02AFE002542E7E9
:1041D000012540E701253EE701253CE701253AE7B7
:1041E000012538E768B370B588B004460D4680F8FD
:1041F000C0230023C0F87833C0F87C33FFF7E7FE14
:104200000DB1C4F8C853104D06AB95E8030083E820
:1042100003000021184600F0FBFDC4F8CC0301AEFA
:1042200008350FCD0FC62B683360214601A800F07A
:10423000CCFDC4F8D003204603F010F8002008B0ED
:1042400070BD0220704700BF807600080A4659B151
:10425000D0F87C3353B9591CC0F87C13DC3300EB25
:1042600083004260002070470220704702207047A0
:1042700090F838338B4203D980F820130020704720
:104280000220704770B4064600200AE01A2404FB9E
:10429000056595F845439C421AD0FF2B18D0441C65
:1042A000E0B2012813D805461A2404FB006494F8F0
:1042B00043438C4201D0FF29F1D11A2404FB056449
:1042C00094F844439442E1D0FF2AE8D1DEE7FF208E
:1042D00070BC704710B5044603F03BF8012120463E
:1042E00003F004F8002010BDC0F8BC13704708B5F7
:1042F000D0F8BC330133C0F8BC33FFF78DFE08BDE6
:10430000012380F81F337047002380F81F33704764
:1043100090F81F03704730B587B0044602238DF82C
:104320001730FFF7F5FF38B923782BB12378DBB2CC
:10433000032B01D0032323702378DBB20B2B60D82F
:10434000DFE813F00C00210028000D015F0062007F
:10435000E900740086009700B000040194F81E3351
:10436000002B4ED001252570C82002F0E5FF204625
:1043700002F0FFFFC4F8D45300222946D4F8CC033E
:1043800000F04EFD3DE094F81F33012B39D102239C
:10439000237036E0642002F0CFFF204602F08CFF4D
:1043A00084F81D03052323700021204600F0E0FC63
:1043B00060718021204600F0DBFC0146207194F8FA
:1043C0001C33A27902920025019594F81D230092D6
:1043D0008022204600F0B7FC94F81C336179A27962
:1043E0000292019594F81D2300922A46204600F07F
:1043F000AAFC0121C4F8D4132A46D4F8CC0300F057
:104400000FFD002007B030BD2046FFF712FE002848
:10441000F7D1002384F8203394F83333012B02D0F2
:1044200007232370EDE708232370EAE7D4F8C833A5
:10443000002BE6D001212046984708232370052150
:10444000C4F8D4130022D4F8CC0300F0E9FCD8E778
:1044500094F83913204600F0D3FB08B909232370E0
:104460000121C4F8D4130022D4F8CC0300F0D8FC06
:10447000C7E794F83B3313F0200F0AD10A232370C7
:104480000121C4F8D4130022D4F8CC0300F0C8FCF6
:10449000B7E70121204600F0C4FB0028F0D10A2331
:1044A0002370EDE7D4F87C338BB10023C4F8783364
:1044B000B3B1D4F878335BB39B682046984720BBF0
:1044C00006232370D4F8C8330321204698470521DA
:1044D000C4F8D4130022D4F8CC0300F0A1FC90E778
:1044E00003F1DC0204EB82025268117994F8432351
:1044F000914202D00133DBB2DAE703F1DC0204EBD4
:1045000082025268C4F87823F4E70D232370DEE7B3
:104510000D232370DBE7D4F8783363B11B692046A1
:1045200098478DF817009DF81730002B7FF469AF7E
:104530000B23237065E70D2323700521C4F8D413E2
:104540000022D4F8CC0300F06BFC5AE7D4F878339F
:10455000002B3FF456AF5B692046984751E7204651
:10456000FFF735FDD4F87833002B3FF44AAFDB6812
:10457000204698470023C4F8783342E700B585B059
:1045800004464FF0FF32D4F8CC1301A800F07CFCB5
:10459000019B102BF5D12046FFF7BDFEF1E710B5CA
:1045A000044603788BB9012380F81E33D0F8C83352
:1045B0000BB1042198470121C4F8D4130022D4F888
:1045C000CC0300F02DFC002010BD90F81F33012B10
:1045D000F1D102230370EEE710B5044602F0C1FEEC
:1045E0002179204600F0D5FB6179204600F0D1FB0F
:1045F000002384F81E33D4F8C83313B105212046B4
:104600009847204602F0A5FE032323700121C4F839
:10461000D4130022D4F8CC0300F002FC002010BD1B
:1046200008B50121C0F8D4130022D0F8CC0300F063
:10463000F7FB002008BD10B40B7803704B78437073
:104640008B78CC7843EA042343800B7903714B7950
:1046500043718B798371CB79C371082A16D90B7A90
:104660004A7A43EA022303818B7ACA7A43EA022315
:1046700043810B7B4A7B43EA022383818B7B8373D9
:10468000CB7BC3730B7C03744B7C43745DF8044B8E
:1046900070470B7803704B7843708B788370CB78BE
:1046A000C3700B7903714B7943718B798371CB792B
:1046B000C3710B7A037270470B7803704B784370A9
:1046C0008B788370CB78C3700B794A7943EA0223E5
:1046D00083808B79837170474378032B00D07047B8
:1046E0000378023B9A4228BF1A4692B200239342B3
:1046F0000DD210B4C418A47801F8014B02339BB258
:104700009342F7D300230B705DF8044B70470023EE
:104710000B70704730B583B00446037E013B0A2B13
:1047200000F25D81DFE813F00B0015004A0056002F
:1047300084009200D000DC000A0118014701427990
:1047400000F1100100F090FA02232376012003B05B
:1047500030BD417902F0C4FD012805D0042821D0E4
:1047600002281FD00120F2E7237CE28A8AB113F0ED
:10477000800F0BD1052323760321C4F8D413002224
:10478000D4F8CC0300F04CFB0120E0E703232376B0
:10479000F2E713F0800F02D107232376ECE7092319
:1047A0002376E9E70B2323760321C4F8D4130022F0
:1047B000D4F8CC0300F034FB0120C8E7D0F8BC33B8
:1047C000C38103798289816800F075FA0423237616
:1047D0000120BCE7017902F083FD0546012805D0E0
:1047E000052D0ED0042D17D00120B0E70923237624
:1047F0000321C4F8D4130022D4F8CC0300F010FB3A
:10480000EEE70325C4F8D45300222946D4F8CC039C
:1048100000F006FB28469AE70B2323760321C4F811
:10482000D4130022D4F8CC0300F0FAFA01208EE76A
:104830004379828901250095816800F026FAD4F831
:10484000BC33E38106232376284680E7417902F0D2
:1048500047FD012807D0052811D002281CD00428C4
:1048600026D0012073E7072323760321C4F8D4134D
:104870000022D4F8CC0300F0D3FA012067E70C2320
:1048800023760325C4F8D45300222946D4F8CC0358
:1048900000F0C6FA28465AE7052323760321C4F818
:1048A000D4130022D4F8CC0300F0BAFA01204EE76A
:1048B0000B2323760321C4F8D4130022D4F8CC03AD
:1048C00000F0AEFA022042E703790022114600F020
:1048D000F2F9D4F8BC33E38108232376012036E7CC
:1048E000017902F0FDFC012805D004280FD005282D
:1048F00019D001202BE70D2323760321C4F8D4130C
:104900000022D4F8CC0300F08BFA00201FE70B2321
:1049100023760321C4F8D4130022D4F8CC0300F08A
:104920007FFA012013E70325C4F8D4530022294657
:10493000D4F8CC0300F074FA284608E7437901253F
:1049400000950022114600F0A0F9D4F8BC33E381B1
:104950000A2323762846FAE6417902F0C1FC0128B1
:1049600005D002280FD0042819D00120EFE60D232E
:1049700023760321C4F8D4130022D4F8CC0300F02A
:104980004FFA0020E3E6092323760321C4F8D41369
:104990000022D4F8CC0300F043FA0120D7E60B2321
:1049A00023760321C4F8D4130022D4F8CC0300F0FA
:1049B00037FA0120CBE6437E0133DBB24376022B8C
:1049C00007D9D0F8C8330621984700236376022020
:1049D000BDE602F0C6FC01202076A070B7E60120FB
:1049E000B5E603780A8813440B80037818447047AF
:1049F0002DE9F04182B00C460B7803704B78437080
:104A00008B78C97843EA0123438023790371637962
:104A10004371A3798371E379C371237A0372092AFD
:104A200044D905460923ADF806300026012E3DD8AD
:104A30006A88BDF806309A4238D90DF10601204641
:104A4000FFF7CFFF04464378042BEFD1B0461A207E
:104A500000FB06F00830284421460230FFF719FE1B
:104A600000271A2303FB08539B7BBB421BD96A8890
:104A7000BDF806309A4216D90DF106012046FFF71F
:104A8000B0FF04464378052BEBD101371A2000FB19
:104A900008F000EBC7000830284421460430FFF737
:104AA0000BFEFFB2DDE70136F6B2BFE702B0BDE8AC
:104AB000F08138B504468378012B03D0022B11D046
:104AC00001250DE081608281012505760223837036
:104AD0000321C0F8D4130022D0F8CC0300F0A0F9D1
:104AE000284638BDFFF716FE054630B1032809D029
:104AF0000228F5D10122A270F2E70122A270002261
:104B00002276EDE70122A27000222276E8E738B58E
:104B1000BDF810508478012C04D02A461946FFF7BE
:104B2000C8FF38BD61F07F040474062141744282DD
:104B300002F47F44B4F5407F03D000228282C58214
:104B4000EBE740F209428282F9E7F0B583B0044610
:104B500000F58E750E4600912B464FF480720021B1
:104B6000FFF7D5FF074610B1384603B0F0BD324617
:104B7000294604F22230FFF75EFDF5E7F0B583B079
:104B800004460E4600F11C0500912B464FF40072BE
:104B90000021FFF7BCFF074610B1384603B0F0BD57
:104BA0003246294604F54D70FFF722FFF5E7F0B5D0
:104BB00083B017461D4600F58E740093234641F4DA
:104BC00040720021FFF7A3FF064610B1304603B044
:104BD000F0BD2A4639462046FFF77EFDF6E708B5C8
:104BE0008378012B04D000221146FFF762FF08BD35
:104BF000002303740522427441828382C382F2E758
:104C000008B58378012B04D000221146FFF751FF2D
:104C100008BD002303740922427441828382C38247
:104C2000F2E708B58378012B04D000221146FFF784
:104C300040FF08BD00230374032242744182838233
:104C4000C382F2E708B58378012B04D00022114615
:104C5000FFF72FFF08BD02230374012343740023D1
:104C600043828182C382F1E730B585B015460024C6
:104C70000394082302930191009423462246294677
:104C800002F09AFB204605B030BD30B585B00C4629
:104C900019469DF8203090F81D5305B10023039369
:104CA000029201940123009300231A4602F084FB30
:104CB000002005B030BD30B585B01D4600240394FA
:104CC00002920191012200922346294602F074FBD0
:104CD000204605B030BD30B585B00C4619469DF86C
:104CE000203090F81D5305B10023039302920194E4
:104CF000012300930223002202F05EFB002005B096
:104D000030BD30B585B01D46002403940292019158
:104D1000012200920223294602F04EFB204605B0F4
:104D200030BD00230A2B0BD803F1E00250F82220FB
:104D300012F4004F02D00133DBB2F3E798B27047B0
:104D40004FF6FF70704710B584B0BDF82040029454
:104D50009DF81C4001949DF81840009402F011FB4E
:104D6000002004B010BD08B502F01EFB002008BDF5
:104D700038B505460C46FFF7D4FF4FF6FF7398424F
:104D800005D044F4004400F1E00345F82340C0B2EC
:104D900038BD0A2906D8E03150F82130C3F30E039C
:104DA00040F8213000207047842801D0033070473C
:104DB00000207047EFF30580003018BF01207047D6
:104DC00008B500F0C9FD002008BDF0B585B00F465C
:104DD000446805680669B0F90800FFF7E5FF03AB12
:104DE000019300903B46B2B22946204600F082FD76
:104DF000012802D1039805B0F0BD0020FBE708B5FB
:104E0000034600B90123184600F0E8FE002008BD63
:104E100008B500224168006800F0BEF908BD000036
:104E200030B585B00446019100230393154602B9BD
:104E30000125FFF7BFFF98B1002303AA01A920466F
:104E400000F08CFA012818D1039BC3B10D4B4FF031
:104E500080521A60BFF34F8FBFF36F8F002008E0BE
:104E600000232A4601A9204600F0BAF9012802D100
:104E7000002005B030BDFF20FBE7FF20F9E7002050
:104E8000F7E700BF04ED00E070B584B0044602917E
:104E90000023019349B10D46164600230393B2F156
:104EA000FF3F0BD062B91E460AE004AB802243F8F4
:104EB000102D93E8070084E807002AE04FF0FF3642
:104EC000FFF778FFB0B103AA01A9284600F058FB0C
:104ED00001280CD000230093039BABB1114B4FF082
:104EE00080521A60BFF34F8FBFF36F8F0CE0102317
:104EF0000093F1E7324601A9284600F095FA01280F
:104F00000AD066B9002300936B4693E8070084E853
:104F10000700204604B070BD10230093F4E740233F
:104F2000F1E700BF04ED00E000F1080343604FF03B
:104F3000FF328260C3600361002303607047002377
:104F40000361704743684B609A688A609A68516051
:104F500099600861036801330360704730B40D68DD
:104F6000B5F1FF3F02D000F1080202E0026904E05F
:104F70001A4653681C68AC42FAD953684B60996072
:104F80008A605160086103680133036030BC704778
:104F900003694268816891608268416851605A681B
:104FA000824206D0002202611A68013A1A6018682B
:104FB000704782685A60F5E710B5044601F01AF8A8
:104FC000A26BE36B9A4204D0002401F035F820462E
:104FD00010BD0124F9E710B5044601F00BF8A36BEE
:104FE00023B1002401F028F8204610BD0124F9E780
:104FF00070B504461646856B026C5AB903681BB13E
:1050000000200135A56370BD406800F02FFF00232C
:105010006360F6E76EB9806802F054FA226CA36808
:105020001344A3606268934219D32368A3600020ED
:10503000E7E7C06802F046FA226C5242E368134484
:10504000E36021688B4202D263681A44E260022E58
:1050500001D00020D5E725B1013D0020D1E7002097
:10506000CFE70020CDE7026C72B110B5C3681344DE
:10507000C3604468A34201D30368C3600C46C1689F
:10508000204602F01FFA10BD704738B5054600F003
:10509000B1FF95F8454064B203E000F0CFFE013C5B
:1050A00064B2002C08DD6B6A33B105F1240000F016
:1050B00039FE0028F3D0F0E7FF2385F8453000F0F3
:1050C000BBFF00F097FF95F8444064B203E000F0A6
:1050D000B5FE013C64B2002C08DD2B6933B105F14B
:1050E000100000F01FFE0028F3D0F0E7FF2385F842
:1050F000443000F0A1FF38BD38B540B94FF050033F
:1051000083F31188BFF36F8FBFF34F8FFEE7044621
:105110000D4600F06FFF2168E26B236C03FB021069
:1051200060600020A063A160013A02FB0313E3600A
:10513000FF2384F8443084F84530A5B923691BB9AE
:1051400000F07AFF012038BD04F1100000F0EAFD04
:105150000028F5D0084B4FF080521A60BFF34F8FF4
:10516000BFF36F8FECE704F11000FFF7DDFE04F1F1
:105170002400FFF7D9FEE3E704ED00E010B5029B41
:105180000C4639B11A60D8631C6401211846FFF738
:10519000B3FF10BD1B60F6E740B94FF0500383F337
:1051A0001188BFF36F8FBFF34F8FFEE7F0B583B069
:1051B000054611B101FB00F000E0002017460C4647
:1051C000483001F0B9F8064638B100903B4600F18E
:1051D000480221462846FFF7D1FF304603B0F0BD14
:1051E000F0B585B0019260B1044699B9026C8AB1FC
:1051F0004FF0500383F31188BFF36F8FBFF34F8FCE
:10520000FEE74FF0500383F31188BFF36F8FBFF3B6
:105210004F8FFEE7022B0BD1E26B012A08D04FF033
:10522000500383F31188BFF36F8FBFF34F8FFEE7F7
:105230001E460F4600F00AFE50B9019B53B14FF0D5
:10524000500383F31188BFF36F8FBFF34F8FFEE7D7
:1052500000253AE0002538E0324639462046FFF77F
:10526000C7FE636A4BB9A8B13B4B4FF080521A603E
:10527000BFF34F8FBFF36F8F0CE004F1240000F0F9
:1052800051FD38B1344B4FF080521A60BFF34F8F4D
:10529000BFF36F8F00F0D0FE012005B0F0BD00F02D
:1052A000CBFE0020F9E702A800F07EFD012519E001
:1052B000002384F8443021E0002384F8453023E0C3
:1052C0002046FFF7E2FE00F011FC00F093FEA26B17
:1052D000E36B9A42C0D3022EBED0019B002BDED0DE
:1052E000002DE0D000F0A8FE00F070FB00F082FE80
:1052F00094F844305BB2B3F1FF3FD9D094F8453015
:105300005BB2B3F1FF3FD7D000F096FE01A902A82F
:1053100000F054FDC8B92046FFF74EFE0028CFD05C
:10532000019904F1100000F0E3FC2046FFF7ADFE08
:1053300000F0DCFB0028C8D1074B4FF080521A6008
:10534000BFF34F8FBFF36F8FBFE72046FFF79DFE80
:1053500000F0CCFB0020A0E704ED00E02DE9F843CD
:1053600060B1044699B9006C88B14FF0500383F3E3
:105370001188BFF36F8FBFF34F8FFEE74FF05003DD
:1053800083F31188BFF36F8FBFF34F8FFEE7022BBC
:105390000BD1E06B012808D04FF0500383F3118844
:1053A000BFF36F8FBFF34F8FFEE71F4690468946CE
:1053B00000F046FFEFF311864FF0500383F311889E
:1053C000BFF36F8FBFF34F8FA26BE36B9A4203D390
:1053D000022F01D000200FE094F845506DB23A46FC
:1053E00049462046FFF704FEB5F1FF3F08D06B1C8D
:1053F0005BB284F84530012086F31188BDE8F8835C
:10540000636A5BB104F1240000F08CFC40B1B8F198
:10541000000F07D00120C8F80000EDE70120EBE7FE
:105420000120E9E70120E7E7F0B585B0019260B11E
:10543000044699B9036C8BB14FF0500383F3118884
:10544000BFF36F8FBFF34F8FFEE74FF0500383F32F
:105450001188BFF36F8FBFF34F8FFEE70F4600F049
:10546000F5FC50B9019B53B14FF0500383F3118801
:10547000BFF36F8FBFF34F8FFEE700263EE000269D
:105480003CE039462046FFF7EEFD013DA563236968
:1054900023B900F0D1FD012005B0F0BD04F11000EA
:1054A00000F040FC0028F4D0344B4FF080521A60DA
:1054B000BFF34F8FBFF36F8FEBE700F0BDFD002010
:1054C000EAE702A800F070FC012621E0002384F83E
:1054D000443029E0002384F845302BE02046FFF7D4
:1054E000D4FD00F003FB09E02046FFF7CEFD00F0FD
:1054F000FDFA2046FFF76FFD00283DD100F07AFD50
:10550000A56B002DBDD1019B002BD6D0002ED8D08D
:1055100000F092FD00F05AFA00F06CFD94F844306F
:105520005BB2B3F1FF3FD1D094F845305BB2B3F139
:10553000FF3FCFD000F080FD01A902A800F03EFCA3
:105540000028D1D12046FFF746FD0028C6D001999A
:1055500004F1240000F0CCFB2046FFF796FD00F09C
:10556000C5FA0028CAD1054B4FF080521A60BFF32C
:105570004F8FBFF36F8FC1E700208DE704ED00E090
:105580002DE9F84360B1044699B9036C8BB14FF033
:10559000500383F31188BFF36F8FBFF34F8FFEE784
:1055A0004FF0500383F31188BFF36F8FBFF34F8F1A
:1055B000FEE71746894600F043FEEFF311864FF0F1
:1055C000500383F31188BFF36F8FBFF34F8FD4F86D
:1055D0003880B8F1000F1DD094F844506DB24946A0
:1055E0002046FFF740FD08F1FF33A363B5F1FF3F0D
:1055F00005D06B1C5BB284F8443001200BE02369BA
:105600006BB104F1100000F08DFB50B15FB10120CF
:10561000386000E0002086F31188BDE8F88301209F
:10562000F9E70120F7E70120F5E70000074B9B6A47
:105630001B6833B1054B9A6AD268D2685268DA6245
:105640007047024B4FF0FF32DA627047B40000201F
:1056500010B50446006B00F0F5FE204600F0F2FEA7
:1056600010BD2DE9F04781460D4617469A46089E23
:10567000DDF824800A9C9200A521206B01F02DFF0B
:10568000236B07F18042013A03EB820727F00707FB
:1056900000230F2B07D8E95CE21882F83410EA5C8B
:1056A0000AB10133F5E7002384F84330062E00D910
:1056B0000626E66266640025A564201DFFF73FFC10
:1056C00004F11800FFF73BFC2461C6F10706A66150
:1056D0006462E564256584F854505246494638466C
:1056E00000F05AFC2060B8F1000F01D0C8F800406B
:1056F000BDE8F08770B5002407E004EB8402930056
:1057000010481844FFF710FC0134062CF5D90E4C54
:1057100004F1BC063046FFF707FC04F1D00528462B
:10572000FFF702FC04F11400FFF7FEFB04F1E400B4
:10573000FFF7FAFB2046FFF7F7FBA662C4F8F85024
:1057400070BD00BFE4000020B400002038B505465D
:1057500000F050FC264BD3F8FC200132C3F8FC20AB
:10576000D3F8003173B1224BD3F804318BB9204BFD
:10577000D3F80031DA6AEB6A9A420AD81C4BC3F8B4
:10578000005106E01A4BC3F80051D3F8FC30012B4E
:105790002AD0174CD4F808310133C4F80831EB6A29
:1057A00001229A40D4F80C110A43C4F80C2104F1E8
:1057B000300003EB83039A00291D1044FFF7C2FB5E
:1057C00000F03AFCD4F804316BB1D4F80031DA6A55
:1057D000EB6A9A4207D2074B4FF080521A60BFF330
:1057E0004F8FBFF36F8F38BDFFF784FFD1E700BF46
:1057F000B400002004ED00E038B517E000F0FAFB3B
:105800000D4CD4F8F030DD68281DFFF7C1FBD4F84B
:10581000FC30013BC4F8FC30D4F81031013BC4F833
:10582000103100F009FC2846FFF712FF024BD3F8B5
:105830001031002BE2D138BDB400002070B5044611
:105840000E461F4BD3F81451D3F800010430FFF774
:105850009FFB60B91A4BD3F80021D16A012202FAEA
:1058600001F1D3F80C2122EA0102C3F80C21B4F1B2
:10587000FF3F12D02C44124BD3F800315C60A5429C
:1058800014D80F4DA86AD5F800110431FFF766FB54
:10589000EB6AA34212D9EC6210E0002EEAD008486D
:1058A000D0F800110431FFF74DFB07E0044BD3F8AB
:1058B000F800D3F800110431FFF750FB70BD00BFB2
:1058C000B400002008B501E000F0F2FDFFF794FFFE
:1058D000064B1B6B012BF7D9054B4FF080521A601A
:1058E000BFF34F8FBFF36F8FEEE700BFB400002010
:1058F00004ED00E02DE9F04385B0074688461546E3
:105900009946900000F018FDF8B10646582000F0C6
:1059100013FD0446A8B10663D4B100230393029497
:105920000D9B01930C9B00934B462A4641463846FB
:10593000FFF797FE2046FFF709FF012005B0BDE8FD
:10594000F083304600F07EFDE6E74FF0FF30F5E7EC
:105950004FF0FF30F2E7000000B583B0174B019322
:1059600000230093802216491648FFF7C3FF012841
:1059700005D0B0F1FF3F17D003B05DF804FB4FF046
:10598000500383F31188BFF36F8FBFF34F8F0E4B1C
:105990004FF0FF32DA620122C3F804210022C3F87B
:1059A000142100F0C9FBE7E74FF0500383F311889F
:1059B000BFF36F8FBFF34F8FFEE700BFD001002012
:1059C000D8760008C5580008B4000020034AD2F871
:1059D00018310133C2F81831704700BFB4000020FD
:1059E0002DE9F041404BD3F81831002B6CD13E4BE0
:1059F000D3F814510135C3F81451CDB99B6A1B6813
:105A000043B14FF0500383F31188BFF36F8FBFF39F
:105A10004F8FFEE7344B9A6AD3F8F8109962C3F8B7
:105A2000F820D3F820210132C3F82021FFF7FEFD32
:105A30002D4BDB6AAB423DD900242B4AD2F8003112
:105A4000DB6A03EB830399000A44136B012B42D9F1
:105A5000012440E00124244B9B6A1B6863B3224B62
:105A60009B6ADB68DE6873689D422AD306F10408EE
:105A70004046FFF78DFAB36A1BB106F11800FFF735
:105A800087FAF36A01229A40174FD7F80C110A439C
:105A9000C7F80C2107F1300003EB83039A0041465D
:105AA0001044FFF74FFAF26AD7F80031DB6A9A42E6
:105AB000D0D2D0E70024CEE70B4B4FF0FF32DA62B2
:105AC000BBE7094AD362B8E7074AD2F82431013369
:105AD000C2F824310024044BD3F8283103B1012447
