:020000040800F2
:10000000005000200D0E0008E1030008E303000883
:10001000E5030008E7030008E9030008000000000A
:10002000000000000000000000000000EB030008DA
:10003000ED03000800000000EF030008F1030008D2
:10004000550E0008550E0008550E0008550E000804
:10005000550E0008550E0008550E0008550E0008F4
:10006000550E0008550E0008550E0008550E0008E4
:10007000550E0008550E0008550E0008550E0008D4
:10008000550E0008550E0008550E0008550E0008C4
:10009000550E0008550E0008550E0008550E0008B4
:1000A000550E0008550E0008550E0008550E0008A4
:1000B000550E0008550E0008550E0008550E000894
:1000C000550E0008550E0008550E0008550E000884
:1000D000550E0008550E0008550E0008550E000874
:1000E000550E0008550E0008550E000800000000CF
:1000F0000000000000000000000000000000000000
:0C01000000000000000000005FF808F1A3
:10010C00044B05481B1A062B02D9044B03B11847A4
:10011C00704700BF0F0000200C0000200000000002
:10012C0005490648091A891001EBD171491002D012
:10013C00034B03B1184770470C0000200C00002043
:10014C000000000010B5064C237843B9FFF7D8FF28
:10015C00044B13B10448AFF300800123237010BD8E
:10016C000C00002000000000580E000808B5084BD9
:10017C001BB108490848AFF300800848036813B95D
:10018C00BDE80840CCE7064B002BF9D09847F7E7C1
:10019C000000000010000020580E00080C00002089
:1001AC000000000070402DE964609FE564509FE5FD
:1001BC00066065E04661B0E10040A0130500000A4E
:1001CC00014084E2043095E40FE0A0E113FF2FE13D
:1001DC00040056E1F9FFFF1A3C609FE53C509FE597
:1001EC00066065E0180300FA4661B0E10040A01318
:1001FC000500000A014084E2043095E40FE0A0E120
:10020C0013FF2FE1040056E1F9FFFF1A7040BDE81F
:10021C001EFF2FE1940E0008940E0008980E0008A3
:10022C00940E0008030010E310402DE93700000A7B
:10023C00000052E3012042E23200000AFFC001E25A
:10024C000030A0E1020000EA000052E3012042E28B
:10025C002C00000A01C0C3E4030013E3F9FFFF1AEA
:10026C00030052E32000009AFFE001E20EE48EE16D
:10027C000F0052E30EE88EE11000009A0240A0E15C
:10028C0010C083E2104044E20F0054E310E00CE590
:10029C000CE00CE508E00CE504E00CE510C08CE289
:1002AC00F7FFFF8A10C042E20FC0CCE30F2002E23E
:1002BC0010C08CE2030052E30C3083E00A00009A79
:1002CC000340A0E102C0A0E104C04CE203005CE3E7
:1002DC0004E084E4FBFFFF8A04C042E203C0CCE3E9
:1002EC0004C08CE20C3083E0032002E2000052E3F5
:1002FC00FF100112022083100200000A0110C3E457
:10030C00020053E1FCFFFF1A1040BDE81EFF2FE175
:10031C000030A0E1D1FFFFEA30B587B00024029491
:10032C000394049405940F4B9A6942F008029A6165
:10033C009B6903F008030193019B0B4D22464FF47C
:10034C008051284600F0D2FC4FF4805302930123D5
:10035C00039304940223059302A9284600F0D0FBD2
:10036C0007B030BD00100240000C014010B590B039
:10037C002822002106A8FFF755FF002401940294BF
:10038C000394049405940223069301230A931023E7
:10039C000B9306A800F0C0F80F230193029403946A
:1003AC0004940594214601A800F0DCFA10B010BDAD
:1003BC0008B500F063F8FFF7D9FFFFF7ADFF4FF476
:1003CC008051034800F098FC642000F07BF8F6E7BD
:1003DC00000C01407047FEE7FEE7FEE7FEE77047C2
:1003EC007047704708B500F05BF808BD82B00E4B43
:1003FC009A6942F001029A619A6902F00102009234
:10040C00009ADA6942F08052DA61DB6903F08053BA
:10041C000193019B054A536823F0E06343F080632A
:10042C00536002B0704700BF001002400000014052
:10043C0010B504460E4B18784FF47A73B3FBF0F3F7
:10044C000C4A1068B0FBF3F000F09EFC68B90F2C5E
:10045C0001D9012010BD002221464FF0FF3000F0E1
:10046C0061FC054B1C60002010BD012010BD00BFBD
:10047C0000000020080000200400002008B5074AF6
:10048C00136843F010031360032000F039FC0020C4
:10049C00FFF7CEFFFFF7AAFF002008BD00200240A7
:1004AC00034A1168034B1B780B441360704700BF61
:1004BC002800002000000020014B1868704700BF86
:1004CC002800002038B50446FFF7F6FF0546B4F1C6
:1004DC00FF3F02D0044B1B781C44FFF7EDFF401B81
:1004EC008442FAD838BD00BF0000002082B0084B0F
:1004FC001B68084AA2FB03235B0A00FB03F0019074
:10050C0000BF019B5A1E0192002BF9D102B070471B
:10051C0008000020D34D621070B582B00446036809
:10052C0013F0010F3DD0AC4B5B6803F00C03042BB4
:10053C002ED0A94B5B6803F00C03082B23D0636807
:10054C00B3F5803F51D0002B55D103F1804303F517
:10055C0004331A6822F480321A601A6822F480225A
:10056C001A606368002B60D0FFF7A6FF05469A4B14
:10057C001B6813F4003F14D1FFF79EFF401B642847
:10058C00F5D90320AFE1944B5B6813F4803FD6D0D0
:10059C00914B1B6813F4003F03D06368002B00F0F1
:1005AC009F81236813F0020F65D08B4B5B6813F0AF
:1005BC000C0F4ED0884B5B6803F00C03082B43D018
:1005CC002369002B79D00122844B1A60FFF774FF4A
:1005DC000546814B1B6813F0020F65D1FFF76CFFCA
:1005EC00401B0228F5D903207DE17B4A136843F4B4
:1005FC0080331360B5E7B3F5A02F09D0764B1A689A
:10060C0022F480321A601A6822F480221A60A8E759
:10061C0003F18043A3F53C331A6842F480221A603C
:10062C001A6842F480321A609BE7FFF745FF0546D3
:10063C00694B1B6813F4003FB3D0FFF73DFF401B21
:10064C006428F5D903204EE1634B5B6813F4803FBB
:10065C00B6D1614B1B6813F0020F04D02369012B38
:10066C0001D001203FE15C4A136823F0F803616973
:10067C0043EAC1031360236813F0080F32D0A36957
:10068C00002B6ED00122564B1A60FFF715FF054662
:10069C00514B5B6A13F0020F21D1FFF70DFF401B8A
:1006AC000228F5D903201EE14B4A136823F0F80306
:1006BC00616943EAC1031360DDE70022474B1A600E
:1006CC00FFF7FAFE0546444B1B6813F0020FD2D01D
:1006DC00FFF7F2FE401B0228F5D9032003E10120AD
:1006EC00FFF704FF236813F0040F00F099803A4BD6
:1006FC00DB6913F0805F46D1374BDA6942F08052E8
:10070C00DA61DB6903F080530193019B0125354BC2
:10071C001B6813F4807F38D0E368012B49D0002B81
:10072C004DD103F1804303F504331A6A22F0010220
:10073C001A621A6A22F004021A62E368002B5DD076
:10074C00FFF7BAFE0646244B1B6A13F0020F66D164
:10075C00FFF7B2FE801B41F288339842F3D9032095
:10076C00C1E000221E4B1A60FFF7A6FE05461A4B8D
:10077C005B6A13F0020FB5D0FFF79EFE401B0228F8
:10078C00F5D90320AFE00025C1E7164A136843F4FE
:10079C0080731360FFF790FE0646124B1B6813F430
:1007AC00807FB9D1FFF788FE801B6428F5D9032020
:1007BC0099E0094A136A43F001031362BDE7052B64
:1007CC0012D0054B1A6A22F001021A621A6A22F040
:1007DC0004021A62B1E700BF00100240000042425E
:1007EC008004424200700040414B1A6A42F00402FD
:1007FC001A621A6A42F001021A629EE7FFF75CFE67
:10080C0006463B4B1B6A13F0020F08D0FFF754FE51
:10081C00801B41F288339842F3D9032063E0E5B999
:10082C00E369002B5ED0324A526802F00C02082AAF
:10083C005BD0022B17D000222E4B1A60FFF73CFE28
:10084C0004462B4B1B6813F0007F47D0FFF734FE98
:10085C00001B0228F5D9032045E0254AD36923F073
:10086C008053D361DCE70022224B1A60FFF724FE91
:10087C0005461F4B1B6813F0007F06D0FFF71CFECC
:10088C00401B0228F5D903202DE0236AB3F5803FE5
:10089C001AD017494B6823F47413226A606A024316
:1008AC0013434B600122134B1A60FFF705FE0446FD
:1008BC000F4B1B6813F0007F0ED1FFF7FDFD001BE3
:1008CC000228F5D903200EE0094A536823F40033BB
:1008DC00A1680B435360DCE7002004E0002002E039
:1008EC00012000E0002002B070BD0120FBE700BF3A
:1008FC00001002406000424210B586B0154C94E8DE
:10090C000F000DF1180E0EE90F00238AADF804301C
:10091C00114B5B6803F00C02082A18D1C3F3834215
:10092C00724412F8102C13F4803F03D10B4800FBD7
:10093C0002F00DE0084B5B68C3F34043734413F8BB
:10094C00143C074800FB02F0B0FBF3F000E0044855
:10095C0006B010BD700E00080010024000093D00EA
:10096C0000127A00624B1B6803F007038B420CD217
:10097C005F4A136823F007030B431360136803F0FB
:10098C000703994201D00120704770B5036813F03A
:10099C00020F17D013F0040F04D0564A536843F4D7
:1009AC00E0635360036813F0080F04D0514A536896
:1009BC0043F4605353604F4A536823F0F003846848
:1009CC00234353600D460446036813F0010F52D0C5
:1009DC004368012B23D0022B28D0464A126812F010
:1009EC00020F00F0828043494A6822F0030213434D
:1009FC004B60FFF761FD06466368012B1DD0022B8F
:100A0C002AD03C4B5B6813F00C0F34D0FFF754FD2D
:100A1C00801B41F288339842F3D9032070BD354ACC
:100A2C00126812F4003FDED1012070BD314A126809
:100A3C0012F0007FD7D1012070BD2E4B5B6803F004
:100A4C000C03042B17D0FFF737FD801B41F28833C2
:100A5C009842F2D9032070BD264B5B6803F00C035F
:100A6C00082B08D0FFF728FD801B41F288339842F1
:100A7C00F2D9032070BD1E4B1B6803F007039D4287
:100A8C000CD21B4A136823F007032B431360136823
:100A9C0003F007039D4201D0012070BD236813F0C1
:100AAC00040F06D0134A536823F4E063E1680B4348
:100ABC005360236813F0080F07D00E4A536823F4D1
:100ACC006053216943EAC1035360FFF715FF094BDB
:100ADC005B68C3F30313084AD35CD840074B186018
:100AEC000020FFF7A5FC002070BD012070BD00BFE9
:100AFC000020024000100240840E00080800002074
:100B0C00F0B583B00026344671E0002D00F0A180D2
:100B1C00012D00D1CE68FF2B00F2AF808646FF2B53
:100B2C0000F2AE80A500DEF800200F27AF4022EACD
:100B3C00070206FA05F52A43CEF800204A6812F09F
:100B4C00805F53D0634A956945F0010595619269C0
:100B5C0002F001020192019AA508AF1C5E4A52F8FC
:100B6C00272004F00307BF004FF00F0E0EFA07FE0C
:100B7C0022EA0E02DFF870E1704500F088800EF575
:100B8C00806E704500F086800EF5806E704500F02A
:100B9C0084800EF5806E704576D04FF0040E0EFA00
:100BAC0007F73A4302354C4F47F825204A6812F4B0
:100BBC00803F75D0494D2A681A432A604A6812F45E
:100BCC00003F73D0454D6A681A436A604A6812F454
:100BDC00801F71D0414DAA681A43AA604A6812F46A
:100BEC00001F6FD03D4DEA681343EB6001340F2CAE
:100BFC006ED80122A2400B6813409A42F6D14D6880
:100C0C00122D30D00BD8022D2AD07FF67EAF032DBB
:100C1C002FD0112D7FF47FAFCE6804367BE7304F99
:100C2C00BD4216D00CD92F4FBD4212D007F58037DC
:100C3C00BD420ED0A7F58017BD427FF46CAF08E023
:100C4C00A7F58017BD4204D007F58037BD427FF46D
:100C5C0062AF8D687DB1012D08D0426108265AE73C
:100C6C00CE68083657E7CE680C3654E70261082682
:100C7C0051E700264FE704264DE700F1040E4EE73E
:100C8C00A4F10805AD004EE74FF0030E87E74FF0D7
:100C9C00000E84E74FF0010E81E74FF0020E7EE765
:100CAC000E4D2A6822EA03022A6087E70B4D6A6818
:100CBC0022EA03026A6089E7084DAA6822EA030265
:100CCC00AA608BE7054DEA6822EA0303EB608DE727
:100CDC0003B0F0BD001002400000014000040140D0
:100CEC0000002110000031100008014012B9090465
:100CFC000161704701617047C3685940C16070471A
:100D0C00074AD36823F4E0631B041B0C000200F4B5
:100D1C00E060184340F0BF6040F40030D060704792
:100D2C0000ED00E030B4164BDB68C3F30223C3F1D3
:100D3C000704042C28BF04241D1D062D17D9033BC2
:100D4C00012505FA04F4013C2140994005FA03F30E
:100D5C00013B1340194300280BDB0901C9B200F118
:100D6C00604000F5614080F8001330BC70470023F0
:100D7C00E6E700F00F000901C9B2024B1954F4E781
:100D8C0000ED00E014ED00E00138B0F1807F0AD2F4
:100D9C00064B5860F021064A82F823100020986018
:100DAC0007221A6070470120704700BF10E000E076
:100DBC0000ED00E00F4B1A6842F001021A6059680E
:100DCC000D4A0A405A601A6822F0847222F480326A
:100DDC001A601A6822F480221A605A6822F4FE0201
:100DEC005A604FF41F029A604FF00062034B9A60F6
:100DFC00704700BF001002400000FFF800ED00E05B
:100E0C00002103E00B4B5B58435004310A480B4B59
:100E1C0042189A42F6D30A4A02E0002342F8043BF5
:100E2C00084B9A42F9D3FFF7C5FFFFF7BBF9FFF761
:100E3C00BFFA70479C0E0008000000200C00002038
:100E4C000C0000202C000020FEE70000F8B500BFCD
:100E5C00F8BC08BC9E467047F8B500BFF8BC08BC8F
:040E6C009E467047E7
:100E700002030405060708090A0B0C0D0E0F1010DB
:100E80000102000000000000000000000102030455
:040E90000607080940
:040E940079010008D8
:040E980051010008FC
:0C0E9C00010000001000000000A24A0449
:0400000508000E0DD4
:00000001FF
