:020000040800F2
:100000000000032015630008016200080362000875
:10001000056200080762000809620008000000008D
:10002000000000000000000000000000D1460008B1
:100030000B6200080000000071470008D547000867
:100040006563000865630008656300086563000870
:100050006563000865630008656300086563000860
:100060006563000865630008656300086563000850
:100070006563000865630008656300086563000840
:100080006563000865630008656300086563000830
:100090006563000865630008656300086563000820
:1000A0006563000865630008656300086563000810
:1000B0006563000865630008656300086563000800
:1000C00065630008656300086563000865630008F0
:1000D00065630008656300086563000865630008E0
:1000E00065630008656300086563000865630008D0
:1000F00065630008656300086563000865630008C0
:1001000065630008656300086563000865630008AF
:1001100065630008656300080D62000865630008F8
:10012000656300086563000865630008656300088F
:10013000656300086563000865630008656300087F
:10014000656300086563000865630008656300086F
:10015000656300086563000865630008656300085F
:10016000656300086563000865630008656300084F
:10017000656300081D620008656300080000000058
:10018000656300086563000865630008656300082F
:10019000656300086563000865630008656300081F
:0C01A0002D620008656300083D62000845
:1001B00010B5054C237833B9044B13B10448AFF3A1
:1001C00000800123237010BD880000200000000083
:1001D000D863000808B5034B1BB103490348AFF3CC
:1001E000008008BD000000008C000020D8630008DB
:1001F00053B94AB9002908BF00281CBF4FF0FF318E
:100200004FF0FF3000F072B9ADF1080C6DE904CE8B
:1002100000F006F8DDF804E0DDE9022304B07047E1
:100220002DE9F047089E04468846002B4BD18A42B0
:10023000154667D9B2FA82F24AB1C2F1200701FA33
:1002400002F320FA07F7954047EA030894404FEA83
:10025000154E230CB8FBFEF71FFA85FC0EFB178822
:1002600043EA084307FB0CF1994209D9EB1807F15F
:10027000FF3080F01B81994240F21881023F2B44ED
:100280005B1AA4B2B3FBFEF00EFB103344EA034446
:1002900000FB0CFCA44509D92C1900F1FF3380F0B8
:1002A0000781A44540F2048102382C4440EA07400B
:1002B000A4EB0C0400271EB1D4400023C6E9004380
:1002C0003946BDE8F0878B4209D9002E00F0EB805B
:1002D0000027C6E9000138463946BDE8F087B3FA81
:1002E00083F7002F47D18B4202D3824200F2FA807B
:1002F000841A61EB030301209846002EE0D0C6E982
:100300000048DDE702B9FFDEB2FA82F2002A40F0CF
:100310008F80491B4FEA154E1FFA85F80127B1FB64
:10032000FEFC230C0EFB1C1143EA014308FB0CF1FD
:10033000994207D9EB180CF1FF3002D2994200F232
:10034000CD808446591AA3B2B1FBFEF00EFB101407
:1003500043EA044408FB00F8A04507D92C1900F132
:10036000FF3302D2A04500F2B6801846A4EB080481
:1003700040EA0C409FE7C7F1200CBB4022FA0CFE7C
:100380004EEA030E01FA07F420FA0CF521FA0CF3F9
:100390004FEA1E482543B3FBF8F92C0C08FB193330
:1003A0001FFA8EFA44EA034309FB0AF49C4202FA5C
:1003B00007F200FA07F10BD91EEB030309F1FF3036
:1003C00080F087809C4240F28480A9F10209734446
:1003D0001B1BADB2B3FBF8F008FB103345EA034436
:1003E00000FB0AFAA24508D91EEB040400F1FF3312
:1003F0006BD2A24569D90238744440EA0940A0FB97
:100400000289A4EB0A044C45C2464B4654D351D052
:10041000002E69D0B1EB0A0564EB030404FA0CFC6E
:10042000FD40FC404CEA0505C6E90054002747E7BB
:10043000C2F1200320FA03F7954001FA02F021FAF5
:1004400003F34FEA154E3843010CB3FBFEF71FFAD6
:1004500085F80EFB173341EA034107FB08F38B4293
:1004600004FA02F407D9691807F1FF3C2FD28B4236
:100470002DD9023F2944CB1A81B2B3FBFEF00EFB0B
:10048000103341EA034100FB08F38B4207D9691896
:1004900000F1FF3C17D28B4215D902382944C91A02
:1004A00040EA07473BE73746304609E70746E7E6B5
:1004B0001846FBE64145ABD2B8EB020A69EB0E02E7
:1004C00001381346A4E76046E9E7184695E7674612
:1004D000D1E781467CE702382C4447E7ACF1020CB7
:1004E0002B442FE7384608E73746E9E6704700BF58
:1004F00008B50B4B1A6842F400721A601A6842F48D
:1005000080621A601A6842F480721A60032000F058
:100510002FF8002005F036FE05F014FC002008BD81
:10052000003C0240034A1168034B1B780B441360E4
:10053000704700BFE803002000000020014B18684E
:10054000704700BFE803002038B50446FFF7F6FF08
:100550000546B4F1FF3F02D0044B1B781C44FFF763
:10056000EDFF401BA042FAD338BD00BF00000020C1
:10057000074AD36823F4E0631B041B0C000200F459
:10058000E060184340F0BF6040F40030D060704736
:1005900000ED00E030B4174BDB68C3F30223C3F176
:1005A0000704042C28BF04241D1D062D18D9033B65
:1005B0004FF0FF3505FA04F421EA0401994005FAE9
:1005C00003F322EA0303194300280BDB0901C9B234
:1005D00000F1604000F5614080F8001330BC7047C6
:1005E0000023E5E700F00F000901C9B2024B1954DE
:1005F000F4E700BF00ED00E014ED00E0002807DBA9
:1006000000F01F02400901239340024A42F82030C3
:10061000704700BF00E100E068B110B504464379BF
:100620002BB10223637101236371002010BD03719C
:1006300005F0AAFBF5E70120704700000268D3B27D
:10064000103B0B49A1FB03131B090A49C95CC16597
:10065000032B06D822F47F7222F003028265806D9C
:10066000704722F47F7222F0030204328265F6E7BB
:10067000ABAAAAAAF0630008836A826992B9012B27
:100680000AD01BB1022B01D000207047C36A13F0BF
:10069000807F2CD100207047C36AB3F1C07F28D07F
:1006A00000207047B2F5005F05D0022B29D9032B3B
:1006B00015D000207047032B03D8DFE803F01C049B
:1006C0001C0A00207047C36A13F0807F15D10020F8
:1006D0007047C36AB3F1C07F11D000207047C36A6E
:1006E00013F0807F01D00120704700207047012067
:1006F000704701207047012070470120704701209A
:10070000704701207047000070B50446FFF716FFE0
:10071000002C5BD00546002384F83430022384F893
:1007200035302268136823F00103136023681A68C8
:1007300012F0010F0AD0FFF701FF401B0528F5D981
:1007400020236365032084F8350070BD1A682048B3
:1007500010406168A2680A43E1680A4321690A43BC
:1007600061690A43A1690A43E1690A43216A0A43AC
:100770000243616A04291ED01A602668756925F053
:100780000705636A1D43042B07D1A36A1D43E36A6F
:100790001BB12046FFF770FF90B975612046FFF747
:1007A0004DFFE26D3F23934083600020606501238D
:1007B00084F83530C9E7E16A206B01430A43DBE77F
:1007C00040236365012084F83500BEE70120BCE7C3
:1007D0003F8010F000282CD038B5044690F8353012
:1007E000DBB2022B27D00268136823F001031360E9
:1007F000036800251D6003685D6003689D600368F1
:10080000DD6003681D61036821225A61FFF716FF4E
:10081000E56325646564A564E5642565E26D3F23B1
:1008200093408360656584F8355084F834502846D9
:1008300038BD012070470220FAE770B40668746C76
:1008400004F04044039D45EA03431C437464036879
:10085000DA634368B3F5403F03D00368D96070BCE6
:10086000704701F07F4601F47F0301F47F45CAB26F
:10087000846894B1012C0ED0022C11D0032C17D017
:10088000360F1B0D2D0B190241EA051141EA063105
:1008900041EA121101E021F07F4103689963DEE72C
:1008A000DB0CAD0AD90241EA451141EAD201F4E775
:1008B000F60FDB0CED0A990241EA451141EAC63117
:1008C00041EAD201E9E748B310B5044690F839305F
:1008D000FBB1022384F839302268136823F44033D3
:1008E00061680B4313602268536B23F00703A16810
:1008F0000B4353632268136C23F47F5323F03F03AD
:10090000E1680B4313640020E063012384F839306D
:1009100010BD80F8383005F04FFADAE70120704753
:1009200010B582B090F83840012C13D00446012055
:1009300084F83800022084F839000498009020469A
:10094000FFF77BFF2268136843F001031360002068
:1009500002B010BD0220FBE770B582B004460D4620
:100960000023019303681B6813F0010F11D1226863
:10097000D369526A134313F0200F47D12368122220
:100980009A60012384F83930002084F8380002B0DE
:1009900070BDFFF7D3FD064623685A6812F0020FB8
:1009A000E5D15A680192019A12F0210F14D1B5F1E4
:1009B000FF3FF1D0FFF7C2FD801BA84201D8002DF8
:1009C000EAD1E36B43F02003E363032084F83900AA
:1009D000002384F83830DAE7019A12F0200F03D0B0
:1009E000E26B42F00202E263019A12F0010F03D0BF
:1009F000E26B42F00102E26321229A60042384F850
:100A00003930002384F838300120C0E7FFF796FD25
:100A1000064623685A6812F0100FAFD15A68019247
:100A2000019A12F0290F14D1B5F1FF3FF1D0FFF771
:100A300085FD801BA84201D8002DEAD1E36B43F06D
:100A40002003E363032084F83900002384F838305E
:100A50009DE7019A12F0080F03D0E26B42F0040206
:100A6000E263019A12F0200F03D0E26B42F002021F
:100A7000E263019A12F0010F03D0E26B42F001022F
:100A8000E26329229A60042384F83930002384F831
:100A9000383001207BE77047704770B50446036823
:100AA0005D681E6815F0010F16D016F4807F13D014
:100AB0001A6822F480721A60C36B43F00103C363A7
:100AC000036801229A60042380F83930002380F8FB
:100AD0003830436903B1984715F0200F18D016F449
:100AE000005F15D02268136823F400531360236855
:100AF00020229A60E36B43F00203E363042384F84B
:100B00003930002384F8383063690BB120469847A8
:100B100015F0080F18D016F4006F15D0226813686E
:100B200023F400631360236808229A60E36B43F0A8
:100B30000403E363042384F83930002384F8383055
:100B400063690BB12046984715F0040F02D016F4E4
:100B5000806F20D115F0020F16D016F4007F13D04D
:100B60002268136823F400731360236802229A60DA
:100B7000E36BE363012384F83930002384F83830D1
:100B800023690BB12046984715F0100F02D016F4D8
:100B9000805F0CD170BD2268136823F480631360FA
:100BA000236804229A602046FFF775FFD2E7226887
:100BB000136823F480531360236810229A60E36B58
:100BC000E363012384F83930002384F83830204669
:100BD000FFF762FFDEE7000090F83830012B59D0B4
:100BE00030B4012380F83830022380F8393000EB2C
:100BF0000113DA698B1C1B01C35842EA0343093A0B
:100C0000012A1ED98A1C00EB0212526843EA0263D1
:100C100041BB0468656A204A2A4013436362026844
:100C200000EB01139C699461DB69093B012B10D92E
:100C3000012380F83930002380F83830184630BC62
:100C400070478A1C00EB0212526802F07F42134385
:100C5000DEE7023100EB01114B68026823F07F43AD
:100C60009362E5E70468E5690B4A2A401343E361B0
:100C7000026800EB01139C691461DB69093B012BDD
:100C8000D6D8023100EB01114B68026823F07F4394
:100C90001362CDE702207047F0FFFC0000230F2B0A
:100CA00000F2E380F0B482B039E0092200E00022D3
:100CB000B2403A4302346D4E46F824206C4A146820
:100CC000EA4302EA04064F6817F4803F01D045EA80
:100CD0000406674C2660646802EA04064F6817F44D
:100CE000003F01D045EA0406614C6660A46802EA50
:100CF00004064F6817F4801F01D045EA04065C4CD7
:100D0000A660E46822404E6816F4001F01D045EA50
:100D10000402574CE26001330F2B00F2A380012242
:100D20009A400C6804EA0205AA42F4D14C68022CED
:100D300001D0122C10D1DE08083650F826C003F07E
:100D40000704A7000F24BC402CEA040C0C69BC402B
:100D500044EA0C0440F8264004685F000326BE40C5
:100D6000F64306EA040C4C6804F00304BC4044EA71
:100D70000C0404604C6804F1FF3CBCF1010F03D982
:100D8000112C01D0122C10D1846806EA040CCC6816
:100D9000BC4044EA0C048460446824EA02024C68C3
:100DA000C4F300149C4014434460C26816408A682F
:100DB000BA403243C2604A6812F0805FABD0002272
:100DC00001922C4A546C44F480445464526C02F4F2
:100DD00080420192019A9C08A61C244A52F826706F
:100DE00003F0030296000F22B24027EA0207224ACC
:100DF00090423FF45CAF02F58062904222D002F54F
:100E00008062904220D002F5806290421ED002F5AE
:100E1000806290421CD002F5806290421AD002F5A6
:100E20008062904218D002F58062904216D002F59E
:100E30008062904214D002F5806290423FF435AF58
:100E40000A2235E7012233E7022231E703222FE7A6
:100E500004222DE705222BE7062229E7072227E7B0
:100E6000082225E702B0F0BC704770470038014007
:100E7000003C0140003802400000024000230F2BDC
:100E800000F29380F0B529E0092700E0002707FA77
:100E900005F5B54270D005685E000324B440E44314
:100EA00025400560DD08083550F8256003F0070788
:100EB0004FEA870C0F2707FA0CF726EA070640F8D7
:100EC0002560856825408560456825EA0202426004
:100ED000C2681440C46001330F2B65D801229A40C8
:100EE00002EA0104A242F6D14FEA930C0CF1020689
:100EF0002E4D55F8266003F00305AD000F2707FAC5
:100F000005FE0EEA06062A4FB842BFD007F58067F5
:100F1000B84221D007F58067B8421FD007F5806737
:100F2000B8421DD007F58067B8421BD007F580672F
:100F3000B84219D007F58067B84217D007F5806727
:100F4000B84215D007F58067B84213D007F580671F
:100F5000B84299D00A279AE7012798E7022796E72F
:100F6000032794E7042792E7052790E706278EE7F3
:100F700007278CE708278AE70C4E0CF1020556F884
:100F8000257027EA0E0746F825700A4D2E68E443BF
:100F900026402E606E6826406E60AE682640AE60C9
:100FA000EE683440EC6076E7F0BD704700380140F1
:100FB00000000240003C014012B909048161704701
:100FC00081617047F8B50668346A04F00F07C4F30E
:100FD0004343C4F30A14022B2ED16CB307EB8702F0
:100FE000D3000344596C39B305462246304602F01B
:100FF000F9FCBA003A44D3002B445A6C22445A6498
:10100000DA6C2244DA6406EB4713D3F810150B4A66
:101010000A408AB1D3F8002522F0804242F0004213
:10102000C3F80025BB00D919CA002A4492F85030F1
:1010300083F0010382F85030F8BD00BF0000F81FB4
:1010400030B583B005460468D4F840340193D4F831
:1010500040340093009B23F02E030093019B13F078
:10106000020F07D0019B13F0010F28D1009B43F022
:1010700002030093019B13F0080F13D0009B43F071
:1010800008030093019B13F0040F34D0AB69022BCB
:101090001CD0EB68012B29D0284605F015F928460D
:1010A00005F000F9019B13F0200F03D0009B43F0E3
:1010B00020030093009BC4F8403403B030BDA36903
:1010C00023F00053A36105F0EDF8CFE7019B03F493
:1010D000C023B3F5802F04D00121286802F09EFCC4
:1010E000DAE70221286802F099FCD5E74EF6602283
:1010F000C4F80424D0E7284605F0ECF8D4F84034CE
:1011000023F02E03C4F840342A68936943F0005357
:101110009361C7E7F8B506460D46076807EB411728
:1011200007F5A064A36813F0040F3ED00423A36066
:10113000E36843F00203E360A36813F4007F6AD11D
:10114000A36813F0010F00F0878033694BB1AA0048
:101150002A44D30033449A6C2169C1F31201521A14
:10116000DA64AA002A44D3003344012283F85D20C4
:1011700000219965A26093F83F30002B57D0022BD5
:1011800055D0032B5DD1D7F8003543F00053C7F895
:10119000003505EB8502D3003344012283F85C203F
:1011A0002946304605F08AF84BE0A36813F0200F7B
:1011B00002D02023A360BFE7A36813F0080F17D164
:1011C000A36813F4806FB7D0E36843F00203E360D1
:1011D000006802F06BFC1023A36005EB8502D300CE
:1011E0003344082283F85D204FF48063A360A3E7B3
:1011F000E36843F00203E36001EB8102D3000344A0
:10120000052283F85D201023A3600823A3600068F3
:1012100002F04CFC90E7E36843F00203E3602946E8
:10122000306802F043FC4FF40073A36013E0E368FE
:1012300043F00203E3602946306802F037FC1023D4
:10124000A360AB005919CA00324492F8503083F0C1
:10125000010382F85030F8BDA36813F0020F62D08A
:10126000E36823F00203E36005EB8502D300334417
:1012700093F85D30012B17D0052B29D0062B2FD0EA
:10128000082B2DD0032B16D105EB8502D300334458
:10129000022283F85C20D7F8003523F0804343F026
:1012A0000043C7F8003506E005EB8502D300334460
:1012B000012283F85C200223A36005EB8502D300A2
:1012C000334493F85C202946304604F0F7FFC2E728
:1012D00005EB8502D3003344052283F85C20EAE75E
:1012E000AA002A44D30033449A6D01329A65032A36
:1012F00011D9AA002A44D300334400229A6504225B
:1013000083F85C20D7F8003523F0804343F0004396
:10131000C7F80035CFE705EB8502D300334402223E
:1013200083F85C20EEE7A36813F0800F19D1A3685F
:1013300013F0100F8FD005EB8502D300334493F8E0
:101340003F30032B25D00BB1022B07D105EB8502D3
:10135000D300334400229A6533694BB31023A36052
:1013600079E7E36843F00203E360AB005919CA0070
:101370003244916D013191652B44DA0032440623E9
:1013800082F85D302946306802F090FB8023A3602C
:1013900061E705EB8502D300334400229A65E368D8
:1013A00043F00203E3602946306802F07FFBD5E793
:1013B00005EB8502D3003344032283F85D20E36804
:1013C00043F00203E3602946306802F06FFBC5E793
:1013D000F8B5036803EB411303F5A064A26812F0AB
:1013E000040F24D10E460546A26812F0200F25D026
:1013F0002023A36001EB8102D3001A46034493F833
:101400003D30012B19D18B000244002182F83D10A0
:101410003344DA000244022382F85C30E36843F08C
:101420000203E3603146006802F040FB05E004235C
:10143000A360E36843F00203E360F8BDA26812F022
:10144000400F34D1A26812F4007F4AD1A26812F092
:10145000010F51D1A26812F0080F62D1A26812F0F8
:10146000100F6FD08A000A44D300034400229A650B
:10147000032283F85D2093F83D306BB901EB8102C4
:10148000D300034493F83C3033B901EB8102D3001D
:101490000344012283F83D20E36843F00203E36044
:1014A0003146286802F002FB1023A360C5E78B00D9
:1014B0005918CA000244042182F85D10012182F803
:1014C0003D103344DA00024400239365E36843F09F
:1014D0000203E3603146006802F0E8FA4023A360AB
:1014E000ABE7E36843F00203E360006802F0DEFA72
:1014F0004FF40073A360A0E78F007A18D300034471
:1015000000229A65E36843F00203E360006802F09A
:10151000CDFA0123A360B919C800284480F85D30D2
:101520008BE70823A360E36843F00203E3600068ED
:1015300002F0BCFA06EB8601C8002844052380F8B7
:101540005D307AE7A26812F0800F39D1A26812F4F8
:10155000806F46D1A26812F0020F3FF46EAFE268CE
:1015600022F00202E26001EB8101CA00114602444E
:1015700092F85D20012A48D0032A5AD0042A6CD060
:10158000052A72D0062A01D0082A59D1B100314467
:10159000CA002A44916D0131916503296BD9282233
:1015A00002FB065200219165042182F85C10D3F8F9
:1015B000002522F0804242F00042C3F800253FE0BF
:1015C000E36843F00203E360006802F06FFA06EBA1
:1015D0008601CB002B44062283F85D208023A36084
:1015E0002BE7E36843F00203E360006802F05EFA71
:1015F0001023A3604FF48063A36006EB8601CB0049
:101600002B44082283F85D2017E70B460344012290
:1016100083F85C2093F83F30023BDBB293420FD853
:101620000B46034493F8512082F0010283F85120C5
:1016300006E006EB8602D3000344022283F85C2016
:101640000223A36006EB8602D3002B4493F85C20B0
:101650003146284604F032FEEFE606EB8602D30060
:101660000344022283F85C20EAE7282303FB0603F5
:1016700083F85C20E4E7282202FB0652022182F86C
:101680005C1094E7F8B504460568284602F0C2F9F4
:10169000012800D0F8BD206802F0B8F90028F9D080
:1016A000206802F0B3F910F4001F03D023684FF450
:1016B00000125A61206802F0A9F910F4801F03D0CB
:1016C00023684FF480125A61206802F09FF910F0ED
:1016D000806F03D023684FF080625A61206802F067
:1016E00095F910F0020F02D0236802225A61206897
:1016F00002F08CF910F0005F25D1206802F086F925
:1017000010F0807F31D1206802F080F910F0080FCE
:101710002FD1206802F07AF910F0007F30D12068D4
:1017200002F074F910F0100FB4D02268936923F01E
:10173000100393612046FFF745FC2268936943F04C
:1017400010039361A6E7D5F8403423F02E03C5F8C3
:101750004034204604F0ACFD0121206802F05EF91F
:1017600023684FF000525A61C7E72046FFF768FC34
:10177000C9E7204604F090FD236808225A61C8E7B3
:10178000206802F08EF90746002604E0F1B22046F8
:10179000FFF71EFE0136A368B34212D906F00F030D
:1017A00027FA03F313F0010FF4D005EB4613D3F837
:1017B000003513F4004FE9D0F1B22046FFF7AAFC40
:1017C000E8E723684FF000725A61A8E738B590F84F
:1017D000B832012B0ED00446012580F8B8520068BB
:1017E00002F0CDF82946206802F038F9002084F88C
:1017F000B80238BD0220FCE790F8B832012B0BD0BC
:1018000010B50446012380F8B832006802F0B6F93A
:10181000002084F8B80210BD02207047002800F0B4
:10182000BE80F8B5044690F83D30002B6BD02423E1
:1018300084F83D302268136823F00103136000F040
:10184000E5FD6268584B9A4262D8584B98428CBF6B
:1018500000230123002B40F0A480554BA3FB002361
:101860009B0C21684A6822F03F021A434A602568AF
:101870002A6A22F03F0266684B498E424ED80133F5
:1018800013432B622568E96921F44F4121F0FF01E0
:101890006368454A93424BD801385B00B0FBF3F3D1
:1018A0000133C3F30B03042B38BF04230B43EB6159
:1018B00021680B6823F0C003E269206A02431343E6
:1018C0000B6021688B6823F4034323F0FF03226934
:1018D000E068024313438B602168CB6823F0FF0369
:1018E0006269A06902431343CB602268136843F026
:1018F0000103136000202064202384F83D3020631E
:1019000084F83E00F8BD80F83C3004F075FA8EE7AC
:10191000284B98428CBF002301239BE74FF496711C
:1019200001FB03F32449A1FB03139B090133A7E740
:10193000A268BAB9461E03EB4307B6FBF7F60136B9
:10194000C6F30B06B6FA86F6760936BBC2B901387D
:1019500003EB4303B0FBF3F30133C3F30B0242F495
:101960000043A3E7461E03EB830707EB8707B6FB9D
:10197000F7F60136C6F30B06B6FA86F67609E4E703
:10198000013803EB830303EB8303B0FBF3F2013273
:10199000C2F30B0242F4404388E7012386E70120AB
:1019A00070470120AEE700BFA08601007F841E00C3
:1019B00083DE1B43FF083D00D34D621090F83D309D
:1019C000DBB2202B1AD1242380F83D300268136843
:1019D00023F0010313600268536A23F0100353627B
:1019E0000268536A194351620268136843F00103A5
:1019F0001360202380F83D3000207047022070479C
:101A000090F83D30DBB2202B19D1242380F83D30F3
:101A10000268136823F0010313600268536A9BB2E3
:101A200023F00F03194389B251620268136843F02F
:101A300001031360202380F83D300020704702200E
:101A40007047F0B44D680468E368C3F30B431D446A
:101A5000D2011444D4F8883003F47043C4F88830B9
:101A60000B680468E668C6F30B463344013314443C
:101A700043EA0543C4F88830CD680468E368C3F3DB
:101A80000A031D441444D4F88C3003F47043C4F8A2
:101A90008C308B680468E668C6F30A063344013369
:101AA000144443EA0543C4F88C3003681344D3F864
:101AB000944024F00704C3F89440036813440C696D
:101AC000C3F8944091F831C091F832708E6905687E
:101AD0001544D5F89C300024C5F89C4091F830306E
:101AE00043EA0C2343EA07430568154443EA0663C7
:101AF000C5F89C3003681344D3F8985025F0FF05CF
:101B0000C3F89850036813444D69C3F898500368AC
:101B10001344D3F8A05025F4E06525F00705C3F879
:101B2000A050CD690E6A036813443543C3F8A05032
:101B300003681344D3F8AC50C3F8AC4003681344B3
:101B40004C6AC3F8AC400B696BB1012B3CD0042B41
:101B50003CD0022B08D0032B3AD0072B01D0012315
:101B600002E0022300E0042304681444D4F8B050D7
:101B700005F0E025C4F8B0508C6A03FB04F54C680E
:101B80000E68A41B03FB04F303330468144443EA04
:101B90000543C4F8B03003681344D3F8B44024F4C8
:101BA000FF6424F00704C3F8B44003681344C96A0F
:101BB000C3F8B41003681A44D2F8843043F0010328
:101BC000C2F88430F0BC70470323CDE70223CBE793
:101BD0000223C9E7002872D038B5044690F8A13036
:101BE000002B67D0022384F8A1302268936923F088
:101BF0007043936121688A696368A0680343E06861
:101C000003432069034313438B6121688A682D4B8A
:101C10001A408A60656920688268A16941EA0541C5
:101C20000A4382602168CA681A40CA60E569206870
:101C3000C268216A41EA05410A43C26021680A6913
:101C40001A400A61656A20680269A16A41EA054191
:101C50000A43026121684A6913404B61E06A2168C6
:101C60004B69226B42EA004213434B6194F8350002
:101C700094F836301B042168CA6A02F07F42CA62B7
:101C80002168CA6A43EA002394F8340003431343EB
:101C9000CB622268536B43F0060353632268936957
:101CA00043F0010393610020C4F8A400012384F8E9
:101CB000A13038BD80F8A03004F0F2F892E701209E
:101CC000704700BF00F800F070477047704770B56C
:101CD000044603689D6B5E6B15F0040F02D016F08E
:101CE000040F12D115F0020F02D016F0020F21D10D
:101CF00015F0010F02D016F0010F32D115F0080FC8
:101D000002D016F0080F3DD170BD5A6B22F00402CC
:101D10005A6303680422DA63D0F8A43043F0010365
:101D2000C0F8A43080F8A120002380F8A030FFF78D
:101D3000CBFFD7E72268536B23F00203536323687A
:101D40000222DA63D4F8A4301343C4F8A430042385
:101D500084F8A130002384F8A0302046FFF7B4FFB8
:101D6000C6E72268536B23F0010353632268012303
:101D7000D36384F8A130002384F8A0302046FFF715
:101D8000A4FFBBE72268536B23F008035363236867
:101D90000822DA63012384F8A130002384F8A030FC
:101DA0002046FFF793FFAFE790F8A030012B27D034
:101DB0002DE9F04194460F4606464FF0010880F8A1
:101DC000A080022380F8A130342404FB02043834BC
:101DD0000D460FCD0FC40FCD0FC40FCD0FC42B6810
:101DE0002360624639463046FFF72BFE3368C3F85E
:101DF000248086F8A180002086F8A000BDE8F0814C
:101E00000220704790F8A030012B11D0012280F8F9
:101E1000A020022380F8A13006498B6943F4803367
:101E20008B6180F8A120002380F8A030184670470D
:101E30000220704700680140002800F0BB8170B5A7
:101E400082B00446036813F0010F3BD0A74B9B6898
:101E500003F00C03042B2CD0A44B9B6803F00C0361
:101E6000082B21D06368B3F5803F4FD0B3F5A02F86
:101E700052D09E4B1A6822F480321A601A6822F4FB
:101E800080221A606368002B50D0FEF757FB05468E
:101E9000964B1B6813F4003F14D1FEF74FFB401B19
:101EA0006428F5D903208AE1904B5B6813F4800F16
:101EB000D8D08E4B1B6813F4003F03D06368002B0F
:101EC00000F07A81236813F0020F55D0874B9B688E
:101ED00013F00C0F3ED0854B9B6803F00C03082BCE
:101EE00033D0E368002B68D0814B01221A60FEF7E3
:101EF00025FB05467D4B1B6813F0020F54D1FEF7FE
:101F00001DFB401B0228F5D9032058E1774A1368CE
:101F100043F480331360B5E7744B1A6842F48022AF
:101F20001A601A6842F480321A60ABE7FEF706FBCB
:101F300005466E4B1B6813F4003FC3D0FEF7FEFA54
:101F4000401B6428F5D9032039E1684B5B6813F422
:101F5000800FC6D1654B1B6813F0020F04D0E368F5
:101F6000012B01D001202AE1604A136823F0F80315
:101F7000216943EAC1031360236813F0080F40D0BE
:101F8000636963B35B4B01221A60FEF7D7FA05461B
:101F9000564B5B6F13F0020F33D1FEF7CFFA401BA5
:101FA0000228F5D903200AE1504A136823F0F80308
:101FB000216943EAC1031360DEE74D4B00221A603A
:101FC000FEF7BCFA0546494B1B6813F0020FD3D04D
:101FD000FEF7B4FA401B0228F5D90320EFE0454B89
:101FE00000221A60FEF7AAFA0546404B5B6F13F019
:101FF000020F06D0FEF7A2FA401B0228F5D90320F3
:10200000DDE0236813F0040F79D0384B1B6C13F01C
:10201000805F33D100230193344B1A6C42F080521D
:102020001A641B6C03F080530193019B0125324B12
:102030001B6813F4807F23D0A368012B34D0052BB9
:1020400038D02A4B1A6F22F001021A671A6F22F059
:1020500004021A67A368002B36D0FEF76FFA064613
:10206000224B1B6F13F0020F48D1FEF767FA801B5B
:1020700041F288339842F3D90320A0E00025D6E747
:102080001D4A136843F480731360FEF757FA06463F
:10209000194B1B6813F4807FCED1FEF74FFA801BDB
:1020A0000228F5D903208AE0104A136F43F0010398
:1020B0001367CFE70D4B1A6F42F004021A671A6FCD
:1020C00042F001021A67C5E7FEF738FA0646074BE9
:1020D0001B6F13F0020F11D0FEF730FA801B41F294
:1020E00088339842F3D9032069E000BF00380240EA
:1020F00000004742800E474200700040E5B9A369E6
:10210000002B5BD0304A926802F00C02082A58D0AB
:10211000022B17D02D4B00221A60FEF70FFA04464F
:10212000294B1B6813F0007F42D0FEF707FA001B13
:102130000228F5D9032042E0234A136C23F0805390
:102140001364DCE7214B00221A60FEF7F7F905461D
:102150001D4B1B6813F0007F06D0FEF7EFF9401B04
:102160000228F5D903202AE0E369226A1343626A50
:1021700043EA8213A26A5208013A43EA0243E26A3E
:1021800043EA0263104A5360104B01221A60FEF7C3
:10219000D5F904460C4B1B6813F0007F06D1FEF7FF
:1021A000CDF9001B0228F5D9032008E0002006E045
:1021B000002004E001207047012000E0002002B070
:1021C00070BD0120FBE700BF0038024060004742BD
:1021D000324B9B6803F00C03042B5CD0082B01D01E
:1021E0002F4870472DE9F04B2C4B5A6802F03F0204
:1021F0005B6813F4800F2BD0284B5B68C3F3881304
:102200001E4600275C010025E41A65EB0705A901BD
:1022100041EA9461A001001B61EB0501CB0043EA98
:102220005073C400A01943EB07014B0243EAD0539B
:102230004402204619460023FDF7DAFF174B5B687E
:10224000C3F3014301335B00B0FBF3F0BDE8F08B57
:10225000124B5B68C3F388131E4600275C01002500
:10226000E41A65EB0705A90141EA9461A001001B8E
:1022700061EB0501CB0043EA5073C400A01943EBA6
:1022800007018B0243EA905384022046194600233B
:10229000FDF7AEFFD2E70348704700BF00380240A9
:1022A0000024F40000127A00002800F09D8070B530
:1022B00004464F4B1B6803F00F038B4209D2CBB28D
:1022C0004B4A1370136803F00F038B4201D00120B7
:1022D00070BD236813F0020F17D013F0040F04D061
:1022E000444A936843F4E0539360236813F0080F63
:1022F00004D0404A936843F4604393603D4A936836
:1023000023F0F003A068034393600D46236813F0A5
:10231000010F32D06368012B21D09A1E012A25D9E2
:10232000344A126812F0020F60D032498A6822F0F3
:10233000030213438B60FEF701F906462D4B9B68A1
:1023400003F00C036268B3EB820F16D0FEF7F6F8C9
:10235000801B41F288339842F0D90320B8E7254A20
:10236000126812F4003FE0D10120B1E7214A12685F
:1023700012F0007FD9D10120AAE71D4B1B6803F0A2
:102380000F03AB4209D9EAB2194B1A701B6803F06C
:102390000F03AB4201D001209AE7236813F0040F2A
:1023A00006D0144A936823F4E053E1680B4393602A
:1023B000236813F0080F07D00E4A936823F4604394
:1023C000216943EAC1039360FFF702FF094B9B6851
:1023D000C3F30313084AD35CD840084B18600020AD
:1023E00003F0D0FE002073E70120704701206FE763
:1023F000003C024000380240D4A0000884000020C5
:10240000014B1868704700BF8400002008B5FFF733
:10241000F7FF044B9B68C3F38223034AD35CD84085
:1024200008BD00BF00380240E4A0000808B5FFF76F
:10243000E7FF044B9B68C3F34233034AD35CD840A5
:1024400008BD00BF00380240E4A000080F2303606D
:102450000B4B9A6802F0030242609A6802F0F002A5
:1024600082609A6802F4E052C2609B68DB0803F461
:10247000E0530361034B1B6803F00F030B607047CD
:1024800000380240003C024030B583B00446036887
:1024900013F0030F14D1236813F00C0F5AD12368E3
:1024A00013F0200F40F0AF80236813F0100F00F0FE
:1024B000118194F82C20884B1A60002003B030BDA5
:1024C000864B00221A60FEF739F80546844B1B68DC
:1024D00013F0006F06D0FEF731F8401B0228F5D943
:1024E0000320EBE7236813F0010F07D06268A368AD
:1024F0001B0743EA82137A4AC2F88430236813F038
:10250000020F15D0764AD2F884106068E3681B0683
:1025100043EA801301F0E0410B43C2F88430D2F863
:102520008C3023F01F03E16901390B43C2F88C3072
:102530006A4B01221A60FEF701F80546684B1B68DA
:1025400013F0006FA7D1FDF7F9FF401B0228F5D962
:102550000320B3E7634B00221A60FDF7EFFF054647
:102560005F4B1B6813F0005F06D0FDF7E7FF401BD1
:102570000228F5D90320A1E7236813F0040F16D031
:10258000574AD2F88810206963691B0643EA801312
:1025900001F0E0410B43C2F88830D2F88C3023F4CC
:1025A000F853216A013943EA0123C2F88C302368C9
:1025B00013F0080F14D04A4AD2F88830216903F08A
:1025C000706343EA8113A16943EA0173C2F888305A
:1025D000D2F88C3023F44033616A0B43C2F88C305C
:1025E000404B01221A60FDF7A9FF05463C4B1B68D2
:1025F00013F0005F7FF453AFFDF7A0FF401B0228EC
:10260000F4D903205AE700230193354B1A6C42F0AA
:1026100080521A641B6C03F080530193019B324A71
:10262000136843F480731360FDF788FF05462E4B53
:102630001B6813F4807F06D1FDF780FF401B022842
:10264000F5D903203AE7264B1B6F13F4407312D0E1
:10265000A26A02F440729A420DD0214B1A6F22F402
:102660004072224901200860002008601A671B6F31
:1026700013F0010F12D1A36A03F44072B2F5407F48
:102680001DD0174A936823F4F813936014490B6F15
:10269000A26AC2F30B0213430B6705E7FDF74EFF77
:1026A00005460F4B1B6F13F0020FE4D1FDF746FFF9
:1026B000401B41F288339842F3D90320FEE60849D3
:1026C0008A6822F4F81223F0704323F44073134312
:1026D0008B60DBE70020F1E6E011474268004742EB
:1026E000003802407000474200700040400E4742F0
:1026F000D8B138B504460D4690F82C3083B102238A
:1027000084F82C30211D206801F082F86268294687
:10271000206801F0B9F8012384F82C30002038BD7E
:1027200080F82D3003F02AFDE9E70120704738B525
:1027300090F82C30DBB2022B14D00D460446022355
:1027400080F82C30006801F0EAF82B68022B04D0E6
:10275000012384F82C30002038BD052384F82C3068
:102760000020F9E70220F7E790F82C30DBB2022BCB
:102770000CD010B50446022380F82C30006801F01C
:10278000F8F8012384F82C30002010BD0220704797
:10279000F8B505460F4616461C462B689B6837EA77
:1027A00003030CBF01230023B34237D0B4F1FF3F32
:1027B000F3D0FDF7C3FE069BC01AA04201D2002C45
:1027C000EBD12A68536823F0E00353606B68B3F5DC
:1027D000827F0BD0AB6AB3F5005F14D0012385F87C
:1027E0005130002385F85030032018E0AB68B3F572
:1027F000004F02D0B3F5806FECD12A68136823F044
:1028000040031360E6E72A68136823F4005313605B
:102810002A68136843F400531360DFE70020F8BD13
:1028200030B585B0164C2468164DA5FB0434640DF4
:102830004FF47A7505FB04F403944468B4F5827F81
:102840000BD0039BC3B1039B013B039303689B68BD
:1028500013F0800FF5D100230FE00B4604460092E1
:1028600000228021FFF794FF034630B1636D43F0EF
:1028700020036365032300E00023184605B030BD44
:1028800084000020819F5E1610B582B00446406827
:10289000B0F5827F16D06068B0F5827F2ED1A36834
:1028A000B3F5806F1BD000920B460022802120469A
:1028B000FFF76EFF034650B3636D43F0200363657B
:1028C000032324E0A368B3F5004F02D0B3F5806F73
:1028D000E1D12068036823F040030360DBE7009246
:1028E0000B46002201212046FFF752FF034670B13C
:1028F000636D43F020036365032308E000920B46F9
:10290000002201212046FFF743FF034610B9184675
:1029100002B010BD636D43F0200363650323F6E747
:1029200000283BD010B504460023836290F8513054
:10293000002B2ED0022384F851302268136823F034
:10294000400313606368A2681343E268134322697B
:10295000134362691343A26902F400721343E269EC
:102960001343226A1343A16A22680B431360638BEB
:1029700003F00403616A22680B4353602268D36941
:1029800023F40063D36100206065012384F8513093
:1029900010BD80F8503003F04FFBCBE701207047AB
:1029A00090B110B50446022380F8513002681368D4
:1029B00023F04003136003F075FB0020606584F88A
:1029C000510084F8500010BD012070472DE9F041FE
:1029D00082B090F85040012C00F0C3801D4617468D
:1029E00088460446012380F85030FDF7A7FD0646CF
:1029F00094F85130DBB2012B09D00220012384F876
:102A00005130002384F8503002B0BDE8F081B8F1B5
:102A1000000F00F09880002F00F09780032384F8C7
:102A2000513000236365C4F83080A786E786A3632E
:102A3000A387E38763642364A368B3F5004F1CD0C6
:102A400023681A6812F0400F03D11A6842F040025E
:102A50001A60E368B3F5006F15D063680BB1012FFE
:102A600049D1226B236812781A73236B01332363D5
:102A7000E38E013B9BB2E3863DE02268136843F49A
:102A800080431360DCE763680BB1012F15D1226B23
:102A900023681288DA60236B02332363E38E013BE1
:102AA0009BB2E38609E0FDF749FD801BA84202D3F3
:102AB000B5F1FF3F4BD1002D4BD0E38E9BB2002BE5
:102AC0002CD023689A6812F0020FECD0226B128887
:102AD000DA60236B02332363E38E013B9BB2E38610
:102AE000EBE7FDF72BFD801BA84202D3B5F1FF3FBA
:102AF00031D1002D31D0E38E9BB27BB123689A682F
:102B000012F0020FEDD0226B12781A73236B01338F
:102B10002363E38E013B9BB2E386ECE73246294612
:102B20002046FFF77DFE08B120236365A36833B913
:102B300001932368DA6801929B680193019B636D9E
:102B40006BB900205AE7012058E7012056E703201F
:102B500054E7032052E7032050E703204EE701200B
:102B60004CE7022050E72DE9F04383B0DDF82880E0
:102B700090F85040012C00F00B811D4617460E4680
:102B80000446012380F85030FDF7D8FC814694F8C4
:102B90005100C0B26368012815D0B3F5827F0AD016
:102BA0000223012284F85120002284F85020184684
:102BB00003B0BDE8F083A368002B40F0DB8004285D
:102BC00001D00223EDE7002E00F0D680002F00F0A8
:102BD000D580002D00F0D48094F85130DBB2042B66
:102BE00002D0052384F8513000236365A763E5878D
:102BF000A5872663E586A5862364636423681A682F
:102C000012F0400F03D11A6842F040021A60E368E4
:102C1000B3F5006F10D063680BB1012D0AD1226BA0
:102C2000236812781A73236B01332363E38E013B0D
:102C30009BB2E386012569E063680BB1012D0AD1DF
:102C4000226B23681288DA60236B02332363E38EDE
:102C5000013B9BB2E38601251BE023689A6812F0D2
:102C6000010F0DD0E28F92B252B1DA68A36B1A80D5
:102C7000A36B0233A363E38F013B9BB2E387012580
:102C8000FDF75CFCA0EB0900404502D3B8F1FF3F23
:102C900078D1E38E9BB21BB9E38F9BB2002B52D04D
:102CA00023689A6812F0020FD7D0E28E92B2002AFF
:102CB000D3D0002DD1D0226B1288DA60236B02337F
:102CC0002363E38E013B9BB2E3860025C5E72368BF
:102CD0009A6812F0010F0DD0E28F92B252B1DA6809
:102CE000A36B1A70A36B0133A363E38F013B9BB209
:102CF000E3870125FDF722FCA0EB0900404502D344
:102D0000B8F1FF3F40D1B8F1000F3FD0E38E9BB246
:102D100013B9E38F9BB2B3B123689A6812F0020F24
:102D2000D5D0E28E92B2002AD1D0002DCFD0226B26
:102D300012781A73236B01332363E38E013B9BB23A
:102D4000E3860025C3E74A4641462046FFF768FD73
:102D5000034618B120236365012322E7A268002AF5
:102D60007FF41FAF01922268D168019192680192AD
:102D7000019A16E7022314E7012312E7012310E763
:102D800001230EE703230CE703230AE7032308E7E5
:102D900002230CE72DE9F04182B004460F4690462D
:102DA0001D464368B3F5827F19D094F85030012B4B
:102DB00000F09F80012384F85030FDF7BFFB0646EA
:102DC00094F85130DBB2012B15D00220012384F896
:102DD0005130002384F8503002B0BDE8F0818368A0
:102DE000002BE2D1042380F85130009513460A46A7
:102DF000FFF7B9FEF0E7002F6DD0B8F1000F6CD0EF
:102E0000042384F8513000236365A763A4F83C8051
:102E1000A4F83E802363A386E38623646364A368E7
:102E2000B3F5004F0BD023681A6812F0400F03D19E
:102E30001A6842F040021A60E36883B12CE022680D
:102E4000136823F480431360EDE7FDF777FB801BE5
:102E5000A84202D3B5F1FF3F41D1002D41D0E38F0D
:102E60009BB2002B2BD023689A6812F0010FECD094
:102E7000A26B1B7B1370A36B0133A363E38F013B36
:102E80009BB2E387EBE7FDF759FB801BA84202D317
:102E9000B5F1FF3F27D145B3E38F9BB27BB12368E8
:102EA0009A6812F0010FEED0DA68A36B1A80A36B58
:102EB0000233A363E38F013B9BB2E387ECE7324627
:102EC00029462046FFF7E0FC08B120236365636DC7
:102ED0006BB900207AE7012078E7012076E703202C
:102EE00074E7032072E7032070E703206EE70120F8
:102EF0006CE7022070E790F85100704710B4036A45
:102F0000046A24F001040462846924F0F00444EAB1
:102F1000021223F00A030B43826103625DF8044B43
:102F2000704710B4036A23F0100303628469036AD4
:102F300024F4704444EA023223F0A00343EA01136C
:102F4000826103625DF8044B7047836823F070036D
:102F5000194341F00701816070470268D36843F06C
:102F60000103D3600268936803F00703062B03D0C4
:102F7000136843F0010313600020704770477047E7
:102F80007047704710B5044603681A6912F0020FC3
:102F900011D0DA6812F0020F0DD06FF002021A6140
:102FA0000123037703689B6913F0030F70D0FFF7C9
:102FB000E6FF0023237723681A6912F0040F12D06A
:102FC000DA6812F0040F0ED06FF004021A610223C7
:102FD000237723689B6913F4407F5FD02046FFF777
:102FE000CEFF0023237723681A6912F0080F12D04E
:102FF000DA6812F0080F0ED06FF008021A6104238D
:1030000023772368DB6913F0030F4ED02046FFF7C8
:10301000B6FF0023237723681A6912F0100F12D02D
:10302000DA6812F0100F0ED06FF010021A61082348
:1030300023772368DB6913F4407F3DD02046FFF7F8
:103040009EFF0023237723681A6912F0010F03D033
:10305000DA6812F0010F36D123681A6912F0800F76
:1030600003D0DA6812F0800F34D123681A6912F0A5
:10307000400F03D0DA6812F0400F32D123681A698A
:1030800012F0200F03D0DA6812F0200F30D110BDFB
:10309000FFF774FF2046FFF773FF8AE72046FFF72C
:1030A0006DFF2046FFF76CFF9BE72046FFF766FFAA
:1030B0002046FFF765FFACE72046FFF75FFF20469D
:1030C000FFF75EFFBDE76FF001021A61204601F0D5
:1030D000D5FFC1E76FF080021A61204600F02AF99F
:1030E000C3E76FF040021A612046FFF74AFFC5E7C9
:1030F0006FF020021A61204600F01BF9C7E70000BC
:103100000368304A904212D0B0F1804F0FD0A2F540
:103110007C4290420BD002F58062904207D002F5CB
:103120008062904203D002F57842904203D123F0AE
:1031300070034A681343234A90422AD0B0F1804F6B
:1031400027D0A2F57C42904223D002F580629042C3
:103150001FD002F5806290421BD002F57842904267
:1031600017D002F57052904213D002F5806290425F
:103170000FD002F5806290420BD0A2F598329042B7
:1031800007D002F58062904203D002F5806290423F
:1031900003D123F44073CA68134323F080034A69C0
:1031A000134303608B68C3620B688362054B9842CC
:1031B00003D003F58063984201D10B6903630123B7
:1031C0004361704700000140A8B110B5044690F873
:1031D0003D305BB1022384F83D30211D2068FFF7AC
:1031E0008FFF012384F83D30002010BD80F83C3073
:1031F00002F070FFEEE70120704710B4846824F4F9
:103200007F4442EA03230B43234383605DF8044B6E
:10321000704790F83C30012B66D010B5044601236E
:1032200080F83C30022380F83D300268936823F434
:103230007F4323F0770393600B68402B4AD013D968
:10324000602B3DD01ED9702B28D0B3F5005F30D154
:10325000CB684A6889680068FFF7CFFF22689368E7
:1032600043F48043936024E0102B06D004D9202B34
:1032700003D0302B01D01CE0DBB919462068FFF7E2
:1032800064FE16E0502B14D1CA6849680068FFF745
:1032900035FE50212068FFF758FE0AE0CB684A68E7
:1032A00089680068FFF7A9FF2268936843F07703F5
:1032B0009360012384F83D30002084F83C0010BD69
:1032C000CA6849680068FFF72CFE60212068FFF794
:1032D0003CFEEEE7CA6849680068FFF70FFE402130
:1032E0002068FFF732FEE4E70220704790F83C3098
:1032F000012B1CD070B4012680F83C60022380F8BA
:103300003D3002685568936825F070050C682C43C1
:1033100023F080054B682B4354600268936080F86B
:103320003D60002380F83C30184670BC7047022096
:1033300070477047704700002DE9F8430446026863
:10334000136923F44053C1680B4313618368026916
:10335000134342691343C2691A430168CB6823F4DB
:10336000164323F00C031343CB600268536923F424
:10337000407381690B435361C369B3F5004F60D05B
:103380000368B84A934200F0148102F580629342C8
:1033900000F00F81FFF73AF800EB800000EB8000AF
:1033A0006568AD00B0FBF5F5AF4FA7FB05356D09BE
:1033B0002E01FFF72BF800EB800000EB8000656822
:1033C000AD00B0FBF5F9FFF721F800EB800000EB52
:1033D00080006568AD00B0FBF5F5A7FB05356D090C
:1033E0004FF0640808FB15952D013235A7FB053514
:1033F0006D0905F0F0053544FFF708F800EB800093
:1034000000EB80006668B600B0FBF6F6FEF7FEFF44
:1034100000EB800000EB800063689B00B0FBF3F0E2
:10342000A7FB0030400908FB10684FEA081808F1B4
:103430003208A7FB0837C7F3431723682F449F6060
:103440000DE10368874A93425BD002F580629342A4
:1034500057D0FEF7DBFF00EB800000EB80006568D3
:103460006D00B0FBF5F5804FA7FB05356D092E010A
:10347000FEF7CCFF00EB800000EB800065686D007C
:10348000B0FBF5F9FEF7C2FF00EB800000EB800017
:1034900065686D00B0FBF5F5A7FB05356D094FF0CC
:1034A000640808FB1595ED003235A7FB05356D095D
:1034B0006D0005F4F8753544FEF7A8FF00EB8000B9
:1034C00000EB800066687600B0FBF6F6FEF79EFF24
:1034D00000EB800000EB800063685B00B0FBF3F35F
:1034E000A7FB03235B0908FB13684FEAC80808F130
:1034F0003208A7FB0837C7F3421723682F449F60A1
:10350000ADE0FEF793FF00EB800000EB8000656804
:103510006D00B0FBF5F5544FA7FB05356D092E0185
:10352000FEF784FF00EB800000EB800065686D0013
:10353000B0FBF5F9FEF77AFF00EB800000EB8000AE
:1035400065686D00B0FBF5F5A7FB05356D094FF01B
:10355000640808FB1595ED003235A7FB05356D09AC
:103560006D0005F4F8753544FEF760FF00EB800050
:1035700000EB800066687600B0FBF6F6FEF756FFBB
:1035800000EB800000EB800063685B00B0FBF3F3AE
:10359000A7FB03235B0908FB13684FEAC80808F17F
:1035A0003208A7FB0837C7F3421723682F449F60F0
:1035B00055E0FEF73BFF00EB800000EB8000656804
:1035C000AD00B0FBF5F5284FA7FB05356D092E01C1
:1035D000FEF72CFF00EB800000EB80006568AD007B
:1035E000B0FBF5F9FEF722FF00EB800000EB800056
:1035F0006568AD00B0FBF5F5A7FB05356D094FF02B
:10360000640808FB15952D013235A7FB05356D09BA
:1036100005F0F0053544FEF709FF00EB800000EBF4
:1036200080006668B600B0FBF6F6FEF7FFFE00EB22
:10363000800000EB800063689B00B0FBF3F0A7FB09
:103640000030400908FB10684FEA081808F13208FA
:10365000A7FB0837C7F3431723682F449F60BDE8D3
:10366000F88300BF001001401F85EB512DE9F041A8
:1036700005460F4616469846069C2B681B6837EA97
:1036800003030CBF01230023B3421DD1B4F1FF3F5C
:10369000F3D02CB1FCF752FFA0EB0800A042ECD90C
:1036A0002A68D36823F4D073D3602A68536923F05F
:1036B00001035361202385F8393085F83A3000231F
:1036C00085F83830032000E00020BDE8F08158B3D1
:1036D00010B5044690F839300BB3242384F8393000
:1036E0002268D36823F40053D3602046FFF724FEFA
:1036F0002268136923F4904313612268536923F00D
:103700002A0353612268D36843F40053D360002036
:10371000E063202384F8393084F83A3010BD80F813
:10372000383002F0EFFCD8E7012070472DE9F04176
:1037300082B01E4690F83A30DBB2202B5AD10446B4
:103740000D469046002959D0002A59D090F83830BB
:10375000012B57D0012380F838300023C363222384
:1037600080F83A30FCF7EAFE0746A4F82C80A4F86B
:103770002E801DE000963B46002220212046FFF7C8
:1037800075FF002840D1236933B923685B68C3F310
:10379000080325F8023B0BE023685B68DBB225F8E1
:1037A000013B05E023685B6803F07F032B70013564
:1037B000E38D9BB2BBB1E38D013B9BB2E385A36874
:1037C000B3F5805FD6D000963B46002220212046EC
:1037D000FFF74CFFD0B92369002BE3D123685B6866
:1037E0002B700135E4E7202384F83A30002084F878
:1037F000380000E0022002B0BDE8F0810120FAE7C5
:103800000120F8E70220F6E70320F4E70320F2E7BF
:1038100030B40B68012B1AD0026822F4FF4222F068
:103820007F024B688C682343CC6823430C69234395
:103830004C6923438C692343CC6923430C6A23439B
:10384000496A0B4313430360002030BC7047026891
:1038500022F4F842CB690C6A1C434B6A1C431443A4
:10386000426822F4FF4222F07F024B688D682B43AE
:10387000CD682B430D692B434D692B4389690B435D
:10388000134304604360DFE730B4012A21D082682B
:1038900002F070420B68013B4C68013C43EA0413A0
:1038A0008C68013C43EA0423CC68013C43EA0433BE
:1038B0000C69013C43EA04434C69013C43EA04536C
:1038C0008969013943EA016313438360002030BCF6
:1038D0007047846824F4700424F47044CA68551E48
:1038E0004B695A1E120542EA05322243C46804F0AD
:1038F00070440B68013B4D68013D43EA05138D6838
:10390000013D43EA05230D69013D43EA0543896909
:10391000013943EA016323438260C360D6E770B58F
:1039200082B004461546002301930B684A6813438E
:103930008A68013A43EA4213CA6843EA4223019380
:10394000019B0361FCF7FAFD0646A36913F0200F03
:103950000AD0B5F1FF3FF8D04DB1FCF7EFFD801B69
:10396000A842F2D9032000E0002002B070BD03207D
:10397000FBE7436943EA41014161002070478368E6
:1039800043F00103836000207047836823F0010344
:103990008360002070470000890141F0200101612F
:1039A00000230133054A934205D8026912F0200F23
:1039B000F7D1002070470320704700BF400D03007F
:1039C0001023036100230133054A934205D802699D
:1039D00012F0100FF7D1002070470320704700BF8E
:1039E000400D030003329208002393420CD210B41E
:1039F00000F58054246841F8044B01339342F7D317
:103A000008465DF8044B7047084670474269806974
:103A100010407047406900F00100704710B400F595
:103A20008064D0F8003423F00303C0F80034D0F8E9
:103A3000003401F003021343C0F80034012905D01B
:103A4000022907D000205DF8044B70474BF6803305
:103A50006360F7E741F270736360F3E782B00023BD
:103A60000193D0F840340193019B23F02E0301937E
:103A7000019B13F4805F01D101290CD0019B13F449
:103A8000805F05D021B9019B23F48053C0F84034F6
:103A9000002002B07047019B43F48053C0F84034CB
:103AA000ECE700F58060406980B2704710B400EB2D
:103AB000411101F5A064D1F80035C3F381433BB354
:103AC000022B25D0D1F8003543F08043C1F80035F2
:103AD000D0F8103413F47F0F49D1D1F8003523F01A
:103AE0000043C1F80035D1F8003543F00043C1F878
:103AF0000035D1F8003523F40043C1F80035002328
:103B00000133B3F57A7F27D82268002AF8DB23E057
:103B1000D1F8003543F08043C1F80035C36A13F48F
:103B20007F0F1DD1D1F8003523F00043C1F80035D7
:103B3000D1F8003543F00043C1F80035D1F8003525
:103B400023F40043C1F8003500230133B3F57A7F35
:103B500002D82268002AF8DB00205DF8044B704789
:103B6000D1F8003543F00043C1F80035F4E7D1F84F
:103B7000003543F00043C1F80035EDE770B5054668
:103B80000446FFF702FF10212846FFF705FF2846ED
:103B9000FFF716FF00220AE004EB4211D1F80035CE
:103BA00023F0802343F08043C1F8003501320F2A0F
:103BB000F2D90020034600E001300F2813D804EBAF
:103BC000401606F5A061D6F8002522F4004242F026
:103BD0004042C6F800250133B3F57A7FECD80A6875
:103BE000002AF8DBE8E74FF0FF33C5F814346B61C7
:103BF0002846FFF7C4FE002070BD08B50378DBB28D
:103C00000B2B00D008BDD0F87833002BFAD09B697D
:103C10009847F7E708B5D0F8BC330133C0F8BC3398
:103C2000FFF7EBFF08BD012380F81F337047002327
:103C300080F81F33704710B5044603788BB9012311
:103C400080F81E33D0F8C8330BB104219847012106
:103C5000C4F8D4130022D4F8CC0300F049F80020B3
:103C600010BD90F81F33012BF1D102230370EEE752
:103C700010B5044602F045FB2179204600F027F8F4
:103C80006179204600F023F8002384F81E33D4F82D
:103C9000C83313B1052120469847204602F029FB7E
:103CA000032323700121C4F8D4130022D4F8CC03D9
:103CB00000F01EF8002010BD08B50121C0F8D41393
:103CC0000022D0F8CC0300F013F8002008BD0A2928
:103CD00006D8E03150F82130C3F30E0340F821300C
:103CE00000207047EFF30580003018BF01207047B7
:103CF00030B585B00446019100230393154602B9FF
:103D00000125FFF7EFFF98B1002303AA01A9204680
:103D100000F09CF9012818D1039BC3B10D4B4FF063
:103D200080521A60BFF34F8FBFF36F8F002008E0FF
:103D300000232A4601A9204600F0CAF8012802D132
:103D4000002005B030BDFF20FBE7FF20F9E7002091
:103D5000F7E700BF04ED00E043684B609A688A60B3
:103D60009A68516099600861036801330360704785
:103D700030B40D68B5F1FF3F02D000F1080202E057
:103D8000026904E01A4653681C68AC42FAD95368C9
:103D90004B6099608A605160086103680133036079
:103DA00030BC7047036942688168916082684168ED
:103DB00051605A68824206D0002202611A68013AB4
:103DC0001A601868704782685A60F5E710B50446B3
:103DD00000F090FCA26BE36B9A4204D0002400F048
:103DE000ABFC204610BD0124F9E770B50446164629
:103DF000856B026C5AB903681BB100200135A563BD
:103E000070BD406800F008FC00236360F6E76EB9FF
:103E1000806802F0CDFA226CA3681344A360626844
:103E2000934219D32368A3600020E7E7C06802F03B
:103E3000BFFA226C5242E3681344E36021688B426C
:103E400002D263681A44E260022E01D00020D5E756
:103E500025B1013D0020D1E70020CFE70020CDE7CC
:103E600038B5054600F046FC95F8454064B203E0DD
:103E700000F0BAFB013C64B2002C08DD6B6A33B180
:103E800005F1240000F024FB0028F3D0F0E7FF2325
:103E900085F8453000F050FC00F02CFC95F84440CB
:103EA00064B203E000F0A0FB013C64B2002C08DD2A
:103EB0002B6933B105F1100000F00AFB0028F3D0A4
:103EC000F0E7FF2385F8443000F036FC38BD0000F1
:103ED000F0B585B0019260B1044699B9026C8AB11F
:103EE0004FF0500383F31188BFF36F8FBFF34F8FF1
:103EF000FEE74FF0500383F31188BFF36F8FBFF3DA
:103F00004F8FFEE7022B0BD1E26B012A08D04FF056
:103F1000500383F31188BFF36F8FBFF34F8FFEE71A
:103F20001E460F4600F068FB50B9019B53B14FF09D
:103F3000500383F31188BFF36F8FBFF34F8FFEE7FA
:103F400000253AE0002538E0324639462046FFF7A2
:103F50004CFF636A4BB9A8B13B4B4FF080521A60DB
:103F6000BFF34F8FBFF36F8F0CE004F1240000F01C
:103F7000AFFA38B1344B4FF080521A60BFF34F8F15
:103F8000BFF36F8F00F0D8FB012005B0F0BD00F04B
:103F9000D3FB0020F9E702A800F0DCFA012519E0C4
:103FA000002384F8443021E0002384F8453023E0E6
:103FB0002046FFF755FF00F095F900F09BFBA26B40
:103FC000E36B9A42C0D3022EBED0019B002BDED001
:103FD000002DE0D000F0B0FB00F0F4F800F08AFB18
:103FE00094F844305BB2B3F1FF3FD9D094F8453038
:103FF0005BB2B3F1FF3FD7D000F09EFB01A902A84E
:1040000000F0B2FAC8B92046FFF7E0FE0028CFD092
:10401000019904F1100000F041FA2046FFF720FF5B
:1040200000F060F90028C8D1074B4FF080521A60A9
:10403000BFF34F8FBFF36F8FBFE72046FFF710FF2F
:1040400000F050F90020A0E704ED00E02DE9F8436E
:1040500060B1044699B9006C88B14FF0500383F306
:104060001188BFF36F8FBFF34F8FFEE74FF0500300
:1040700083F31188BFF36F8FBFF34F8FFEE7022BDF
:104080000BD1E06B012808D04FF0500383F3118867
:10409000BFF36F8FBFF34F8FFEE71F4690468946F1
:1040A00000F0AEFBEFF311864FF0500383F311885D
:1040B000BFF36F8FBFF34F8FA26BE36B9A4203D3B3
:1040C000022F01D000200FE094F845506DB23A461F
:1040D00049462046FFF789FEB5F1FF3F08D06B1C2B
:1040E0005BB284F84530012086F31188BDE8F8837F
:1040F000636A5BB104F1240000F0EAF940B1B8F161
:10410000000F07D00120C8F80000EDE70120EBE721
:104110000120E9E70120E7E7074B9B6A1B6833B101
:10412000054B9A6AD268D2685268DA627047024BCD
:104130004FF0FF32DA627047A400002070B50446E9
:104140000E461F4BD3F81451D3F800010430FFF78B
:1041500029FE60B91A4BD3F80021D16A012202FA74
:1041600001F1D3F80C2122EA0102C3F80C21B4F1C9
:10417000FF3F12D02C44124BD3F800315C60A542B3
:1041800014D80F4DA86AD5F800110431FFF7F0FDDF
:10419000EB6AA34212D9EC6210E0002EEAD0084884
:1041A000D0F800110431FFF7D7FD07E0044BD3F836
:1041B000F800D3F800110431FFF7DAFD70BD00BF3D
:1041C000A4000020034AD2F818310133C2F8183194
:1041D000704700BFA40000202DE9F041404BD3F808
:1041E0001831002B6CD13E4BD3F814510135C3F874
:1041F0001451CDB99B6A1B6843B14FF0500383F350
:104200001188BFF36F8FBFF34F8FFEE7344B9A6A6D
:10421000D3F8F8109962C3F8F820D3F820210132BE
:10422000C3F82021FFF778FF2D4BDB6AAB423DD965
:1042300000242B4AD2F80031DB6A03EB8303990098
:104240000A44136B012B42D9012440E00124244B82
:104250009B6A1B6863B3224B9B6ADB68DE687368EA
:104260009D422AD306F104084046FFF79BFDB36A3E
:104270001BB106F11800FFF795FDF36A01229A4081
:10428000174FD7F80C110A43C7F80C2107F130007B
:1042900003EB83039A0041461044FFF75DFDF26A89
:1042A000D7F80031DB6A9A42D0D2D0E70024CEE7BB
:1042B0000B4B4FF0FF32DA62BBE7094AD362B8E733
:1042C000074AD2F824310133C2F824310024044BC8
:1042D000D3F8283103B101242046BDE8F08100BFA6
:1042E000A4000020394BD3F8183143B94FF05003E4
:1042F00083F31188BFF36F8FBFF34F8FFEE770B565
:1043000000F0F8F9314BD3F81821013AC3F818211D
:10431000D3F81831002B54D12C4BD3F8FC3023B9EF
:10432000002400F009FA204670BD0024274B5B6989
:104330002BB3264D2B6ADC6804F11800FFF732FD21
:10434000261D3046FFF72EFDE36A01229A40D5F87C
:104350000C110A43C5F80C2105F1300003EB83036F
:104360009A0031461044FFF7F7FCE26AD5F80031B5
:10437000DB6A9A42DAD30122C5F82821D6E70CB1CC
:10438000FFF7CAFE114BD3F8244164B1FFF724FFB5
:1043900018B10E4B0122C3F82821013CF6D10B4B7A
:1043A0000022C3F82421094BD3F828315BB1084B14
:1043B0004FF080521A60BFF34F8FBFF36F8F01240D
:1043C000AFE70024ADE70024ABE700BFA400002066
:1043D00004ED00E0304BD3F8183123B12E4B01220D
:1043E000C3F82821704710B52B4B0022C3F82821B1
:1043F000D3F800311B6B1A68B2F1A53F03D15A689C
:10440000B2F1A53F1ED0244BD3F80001D3F8001120
:10441000343100F021FA204AD2F80C31B3FA83F398
:10442000DBB2C3F11F0303EB830081000A44126B6C
:104430008AB94FF0500383F31188BFF36F8FBFF336
:104440004F8FFEE79A68B2F1A53FDCD1DB68B3F18C
:10445000A53FD8D1DFE7104A9900CC18A00010443E
:10446000446B646844633032194488000830024465
:10447000944209D0084903EB83039A000A44536B22
:10448000DB68C1F8003110BD61680348142202FBEB
:1044900003025163EEE700BFA400002040B94FF0D3
:1044A000500383F31188BFF36F8FBFF34F8FFEE785
:1044B00010B50C46054BD3F800111831FFF758FC26
:1044C00001212046FFF73AFE10BD00BFA4000020E6
:1044D00038B5C368DC6844B94FF0500383F31188E2
:1044E000BFF36F8FBFF34F8FFEE704F11805284627
:1044F000FFF758FC154BD3F8183103BB251D284690
:10450000FFF750FCE36A01219940104AD2F80C01F0
:104510000143C2F80C11303203EB830398002946A3
:104520001044FFF719FCE26A084BD3F80031DB6A4C
:104530009A4209D90120054BC3F8280138BD294604
:104540000348FFF709FCEEE70020F7E7A40000208E
:10455000B8000020034BD3F820210260D3F81431B7
:1045600043607047A4000020F8B550B1054689B9F2
:104570004FF0500383F31188BFF36F8FBFF34F8F5A
:10458000FEE74FF0500383F31188BFF36F8FBFF343
:104590004F8FFEE70C4600F0ADF8124BD3F8141124
:1045A00068680A1A2368B3F1FF3F17D02F680D4ED1
:1045B000D6F82061B74201D0884211D9934203D87E
:1045C00000232360012405E09B1A23602846FFF79F
:1045D000C1FF002400F0B0F82046F8BD0024F9E740
:1045E0000124F7E7A4000020024B0122C3F8282190
:1045F000704700BFA4000020064BD3F804313BB144
:10460000044BD3F818310BB10020704702207047DB
:1046100001207047A400002000284DD038B5044682
:10462000284AD2F80021824208D04FF0500383F389
:104630001188BFF36F8FBFF34F8FFEE7826C42B9D3
:104640004FF0500383F31188BFF36F8FBFF34F8F89
:10465000FEE7013A8264C06A616C88422ED07ABB60
:10466000251D2846FFF79EFB78B9E26A15491423F9
:1046700003FB02131B6B43B9012303FA02F2D1F8C7
:104680000C3123EA0203C1F80C31626CE262C2F120
:104690000703A361012404FA02F10A4BD3F80C01C9
:1046A0000143C3F80C1130332946142000FB0230BB
:1046B000FFF752FB204638BD002070470020FAE784
:1046C0000020F8E7A4000020000000000000000027
:1046D000074B19680868B0E8F04F80F30988BFF30A
:1046E0006F8F4FF0000080F311887047AFF30080A8
:1046F000A40100204FF0500383F31188BFF36F8FA4
:10470000BFF34F8F0A4A136801331360012B00D0A7
:104710007047084B1B6813F0FF0FF9D04FF05003A0
:1047200083F31188BFF36F8FBFF34F8FFEE700BF96
:104730000800002004ED00E0094B1B6843B94FF06E
:10474000500383F31188BFF36F8FBFF34F8FFEE7E2
:10475000013B034A13600BB983F31188704700BF14
:104760000800002000000000000000000000000021
:10477000EFF30980BFF36F8F154B1A681EF0100F0F
:1047800008BF20ED108A20E9F04F10602DE90900E4
:104790004FF0500080F31188BFF34F8FBFF36F8F3E
:1047A000FFF718FE4FF0000080F3118809BC19686C
:1047B0000868B0E8F04F1EF0100F08BFB0EC108A88
:1047C00080F30988BFF36F8F704700BFAFF300809D
:1047D000A401002008B54FF0500383F31188BFF304
:1047E0006F8FBFF34F8FFFF7F7FC18B1034B4FF0FC
:1047F00080521A60002383F3118808BD04ED00E0A5
:10480000EFF305830F2B0FD9104A9B5CDBB2104AE4
:1048100012789A4208D94FF0500383F31188BFF3FE
:104820006F8FBFF34F8FFEE70A4B1B6803F4E06303
:10483000074A5268934208D94FF0500383F3118816
:10484000BFF36F8FBFF34F8FFEE77047F0E300E0D9
:10485000D00100200CED00E07047F02070474FF4CD
:10486000A070704708B500F021FD08BD08B52920EB
:10487000FFF7F8FF08BD08B52820FFF7F3FF08BDD4
:1048800008B500F0F7FC08BD08B500F08DFCCA20A3
:10489000FFF7E8FFC320FFF7F3FF0820FFF7F0FF63
:1048A0005020FFF7EDFFCF20FFF7DCFF0020FFF7E0
:1048B000E7FFC120FFF7E4FF3020FFF7E1FFED2025
:1048C000FFF7D0FF6420FFF7DBFF0320FFF7D8FFDF
:1048D0001220FFF7D5FF8120FFF7D2FFE820FFF776
:1048E000C1FF8520FFF7CCFF0020FFF7C9FF78202C
:1048F000FFF7C6FFCB20FFF7B5FF3920FFF7C0FF5A
:104900002C20FFF7BDFF0020FFF7BAFF3420FFF790
:10491000B7FF0220FFF7B4FFF720FFF7A3FF202027
:10492000FFF7AEFFEA20FFF79DFF0020FFF7A8FF8B
:104930000020FFF7A5FFB120FFF794FF0020FFF74D
:104940009FFF1B20FFF79CFFB620FFF78BFF0A207D
:10495000FFF796FFA220FFF793FFC020FFF782FF2B
:104960001020FFF78DFFC120FFF77CFF1020FFF71D
:1049700087FFC520FFF776FF4520FFF781FF152051
:10498000FFF77EFFC720FFF76DFF9020FFF778FF4E
:104990003620FFF767FFC820FFF772FFF220FFF70E
:1049A00061FF0020FFF76CFFB020FFF75BFFC22024
:1049B000FFF766FFB620FFF755FF0A20FFF760FFFD
:1049C000A720FFF75DFF2720FFF75AFF0420FFF71E
:1049D00057FF2A20FFF746FF0020FFF751FF002076
:1049E000FFF74EFF0020FFF74BFFEF20FFF748FFD8
:1049F0002B20FFF737FF0020FFF742FF0020FFF7D3
:104A00003FFF0120FFF73CFF3F20FFF739FFF62073
:104A1000FFF728FF0120FFF733FF0020FFF730FFEB
:104A20000620FFF72DFF2C20FFF71CFFC82000F009
:104A300081FC2620FFF716FF0120FFF721FFE02071
:104A4000FFF710FF0F20FFF71BFF2920FFF718FFCC
:104A50002420FFF715FF0C20FFF712FF0E20FFF7B1
:104A60000FFF0920FFF70CFF4E20FFF709FF78200A
:104A7000FFF706FF3C20FFF703FF0920FFF700FFC9
:104A80001320FFF7FDFE0520FFF7FAFE1720FFF7C2
:104A9000F7FE1120FFF7F4FE0020FFF7F1FEE12002
:104AA000FFF7E0FE0020FFF7EBFE1620FFF7E8FE21
:104AB0001B20FFF7E5FE0420FFF7E2FE1120FFF7C1
:104AC000DFFE0720FFF7DCFE3120FFF7D9FE3320A1
:104AD000FFF7D6FE4220FFF7D3FE0520FFF7D0FEFA
:104AE0000C20FFF7CDFE0A20FFF7CAFE2820FFF7B3
:104AF000C7FE2F20FFF7C4FE0F20FFF7C1FE1120D5
:104B0000FFF7B0FEC82000F015FC2920FFF7AAFE31
:104B10002C20FFF7A7FE08BD08B500F0E3FB08BD99
:104B200008B500F041FB0321D320FFF7F5FF80B269
:104B300008BD00002DE9F0478EB0002409940A94C6
:104B40000B940C940D9401945D4B1A6B42F004028B
:104B50001A631A6B02F004020192019A02941A6B12
:104B600042F020021A631A6B02F020020292029AAB
:104B700003941A6B42F080021A631A6B02F08002EF
:104B80000392039A04941A6B42F001021A631A6B9F
:104B900002F001020492049A05941A6B42F0020298
:104BA0001A631A6B02F002020592059A06941A6BB8
:104BB00042F040021A631A6B02F040020692069A13
:104BC00007941A6B42F010021A631A6B02F010027B
:104BD0000792079A08941A6B42F008021A631B6B3B
:104BE00003F008030893089B364F224616213846E7
:104BF000FCF7E2F9DFF8D880224680214046FCF736
:104C0000DBF9314E22464FF440513046FCF7D4F9DF
:104C1000DFF8C09022464FF4C0414846FCF7CCF97B
:104C20001623099301250A950B940C9409A938467B
:104C3000FCF734F848F207030993DFF89CA0CDF89D
:104C400028A00B9409A94046FCF728F88023099373
:104C50000A950B940C9409A94046FCF71FF82023F1
:104C60000993CDF828A00B9409A93846FCF716F84B
:104C7000042309930A940B9409A91448FCF70EF82D
:104C80004FF4006309930A940B9409A93046FCF78A
:104C900005F84FF4405309930A950B940C9409A915
:104CA0003046FBF7FBFF4FF4C04309930A950B9482
:104CB0000C9409A94846FBF7F1FF0EB0BDE8F08758
:104CC0000038024000080240000C0240000402408C
:104CD00000000240001802400000121008B503480E
:104CE000034B0360FBF798FC08BD00BF9C04002049
:104CF0000030024010B5094C094B2360002363606B
:104D0000A360E360A362E362236363632046FBF76F
:104D1000DAFD01212046FBF75FFF10BDCC05002026
:104D200000B0024000B589B01348144B0360012362
:104D30004360002383600421C1601022026140228D
:104D400042614FF4C0728261C3614FF4006202623B
:104D500043624FF4005383620223019307220292BD
:104D60000391049203220592069307936944FDF789
:104D7000BFFC09B05DF804FB0C060020400100A058
:104D800038B50D4C0D4B23600D4B63600025A560BD
:104D9000E5604FF4804323616561A561E5612562AB
:104DA0002046FCF73BFD29462046FCF707FE294636
:104DB0002046FCF725FE38BDF0030020005C0040D3
:104DC000A086010030B58FB03422002101A801F087
:104DD000FAFA244C244B236000256560A560E56049
:104DE0002561092363610123A3611D23E36103237B
:104DF000236240F20D13636240F24313A36240F258
:104E00001713E36240F24713236384F8345084F8A5
:104E1000355084F836502046FCF7DCFE0195F02230
:104E2000029203954FF4A073049302210591FF2190
:104E3000069107954FF4C0610891072109914FF041
:104E400050410A910B920C938DF834508DF83550E7
:104E50008DF836502A4601A92046FCF7A5FF0FB071
:104E600030BD00BFA40400200068014008B50C4814
:104E70000C4B03604FF48273436000238360C36074
:104E8000036143614FF4007282611822C2610362C0
:104E9000436283620A23C362FDF742FD08BD00BF7F
:104EA000440400200050014030B587B00024029433
:104EB000039404940594009401940D4D0D4B2B60C4
:104EC0006C60AC60EC602C616C61AC612846FEF7F4
:104ED0007BF94FF48053029302A92846FEF799F913
:104EE0000094019469462846FEF700FA07B030BDE9
:104EF0008C0500200000014008B50848084B0360FD
:104F00004FF4E133436000238360C36003610C22EC
:104F100042618361C361FEF7DAFB08BD4C050020E6
:104F20000010014030B5A1B030252A46002114A858
:104F300001F049FA00240F941094119412941394E0
:104F40002A46214603A801F03EFA0194204B1A6C30
:104F500042F080521A641B6C03F080530193019B52
:104F600002941C4A136823F4404343F480431360C3
:104F7000136803F440430293029B012314934FF4FC
:104F80008033159302251A954FF480031B93042355
:104F90001C9348231D931E9503231F9314A8FCF70D
:104FA0004BFF0F230F93109511944FF480531293DE
:104FB000139429460FA8FDF777F9082303933223AA
:104FC000079309950C9403A8FDF75EFA21B030BD54
:104FD000003802400070004000B585B0FBF788FA49
:104FE000FFF7A0FFFFF7A6FDFFF778FEFFF782FEB1
:104FF000FFF798FEFFF7C4FEFFF7E4FEFFF736FF6A
:10500000FFF752FFFFF778FF00F070FB4FF05041C1
:10501000002000F0D1F94FF05041012000F0CCF910
:10502000012000F00FFA00F0B3FA4FF06133CDF831
:105030000A30104B93E803000190ADF808104FF4CC
:105040007A730A2201A90C48FEF770FB4FF0FF307B
:1050500000F01CFA012000F06FFA4FF07F4000F0E2
:10506000F7F901A9012000F08FFC4FF4FA70FBF76B
:105070006BFAE4E7ECA000084C05002008B50268D4
:10508000034B9A4200D008BDFBF74CFAFBE700BF88
:105090000010004000B589B000210191124B5A6CFC
:1050A00042F480125A645A6C02F480120192019AFE
:1050B00002911A6B42F020021A631B6B03F020036B
:1050C0000293029B4FF460730393022304930593AE
:1050D000012306930523079303A90448FBF7DEFD8C
:1050E00009B05DF804FB00BF003802400014024024
:1050F00010B51048FDF7FFFE00B110BD0D4C0E4B72
:1051000023601823E3610023A36063612361A3622A
:105110000722E262E36023624FF40072A2616362DD
:105120004FF4827363602046FFF7B4FF2046FDF71B
:10513000F7FBE2E7D80100200050014008B5034822
:10514000FDF72EFCFFF7D4FF08BD00BFD8010020FB
:1051500000B583B002A921F8020D064B1B6801229D
:105160000548FDF733FC10B903B05DF804FBFFF709
:10517000E5FFF9E744000020D801002000B583B026
:10518000074B1B68024601A90648FDF703FE18B944
:10519000019803B05DF804FBFFF7D0FFF8E700BF0C
:1051A00044000020D80100202F4B93F8583003B161
:1051B00070472DE9F04188B001262B4B83F85860E9
:1051C00000250095294C236B43F008032363236BD0
:1051D00003F008030093009B4FF4005303930496DD
:1051E00005954FF00208CDF81880214F03A93846E5
:1051F000FBF754FD0195236B43F008032363236BF6
:1052000003F008030193019B4FF48053039304962A
:105210000595CDF8188003A93846FBF73FFD0295A8
:10522000236B43F004032363236B03F00403029313
:10523000029B0427039704960595CDF81880A4F5E2
:10524000405403A92046FBF729FD2A46394620464B
:10525000FBF7B2FE324639462046FBF7ADFEFFF7BC
:1052600047FF08B0BDE8F081D801002000380240B7
:10527000000C024038B5054601224FF400510948A0
:10528000FBF79AFE084C002204212046FBF794FE0F
:105290002846FFF75DFF012204212046FBF78CFE24
:1052A00038BD00BF000C02400008024038B505467A
:1052B00000224FF400510948FBF77EFE084C002203
:1052C00004212046FBF778FE2846FFF741FF012224
:1052D00004212046FBF770FE38BD00BF000C0240E1
:1052E00000080240F8B507460E46104C0022042183
:1052F0002046FBF761FE0E4D00224FF40051284678
:10530000FBF75AFE3846FFF723FF3046FFF736FF1C
:10531000064601224FF400512846FBF74DFE0122BC
:1053200004212046FBF748FE3046F8BD0008024045
:10533000000C024008B5FBF707F908BDF0B583B0D3
:1053400004460D4616461F4611484FF4403343604D
:1053500000238360089BC3600E4B0360FBF7B3FA26
:1053600008B103B0F0BD21460948FBF735FC002821
:10537000F7D1009733462A4609990548FBF7D0FA3A
:105380000028EED10A210248FBF7E6FAE9E700BF60
:105390003402002000B0024008B5024B1B689B6A33
:1053A000984708BDE806002008B5024B1B68DB6A79
:1053B000984708BDE806002070B58EB005460E4639
:1053C00000240194FFF7E8FF02900394FFF7ECFF3D
:1053D0000490022305930A96FF23069307948DF801
:1053E00034408DF835408DF836404FF4C063089353
:1053F00007230993FFF7D0FF0B90FFF7D5FF0C9021
:105400000D4C2A4601A92046FCF7CEFC0B4A680049
:1054100041198B0013444FF0FF31596408499964D6
:10542000284483001A444FF07F4313642046FCF75E
:10543000E9FC0EB070BD00BF400600203402002021
:1054400058000020014B9865704700BF34020020CF
:10545000034A936D03EB430399000A4410647047B9
:1054600034020020034A936D03EB430399000A447E
:105470009064704734020020034A936D03EB4303AA
:1054800099000A44906C704734020020F0B583B054
:1054900007460B4B9C6D0B4A342303FB0423DD6D45
:1054A000FFF77AFF0646FFF77FFF0197002300937F
:1054B0000346324629462046FFF740FF03B0F0BDC1
:1054C00034020020400600202DE9F04383B08046DE
:1054D0000F4615461E46164CA36D03EB43039A0078
:1054E0002244106CFFF7B4FFA36D124A342101FB74
:1054F0000323D3F85C90FFF74FFF00FB078009EB15
:105500008009D4F85880FFF747FFA36D03EB4303EE
:105510009A001444236C0193401B009033462A46A2
:1055200049464046FFF70AFF03B0BDE8F08300BFDD
:10553000340200204006002070B5144CA16D4A00D2
:105540005518AB0023441E6C5D6C1D6453189A0003
:105550002244936CDD8810FB05F5ADB2FFF71CFF0C
:10556000A36D03EB43039A002244936CDB8882B261
:1055700029460020FFF7A8FFA36D03EB43039A0021
:10558000144426643046FFF763FF70BD34020020E8
:1055900008B5034B1B689B6803B1984708BD00BF63
:1055A000E806002030B58FB000220192484B596CBC
:1055B00041F080615964596C01F080610191019959
:1055C0000292196B41F400011963196B01F4000197
:1055D000029102990392196B41F001011963196B51
:1055E00001F00101039103990492196B41F002014A
:1055F0001963196B01F00201049104990592196B6A
:1056000041F004011963196B01F00401059105993A
:105610000692196B41F008011963196B01F008013A
:10562000069106990792196B41F020011963196BD5
:1056300001F02001079107990892196B41F0400190
:1056400019631B6B03F040030893089B41F6580352
:10565000099302230A930B920C930E230D9309A92D
:105660001C48FBF71BFB4FF4706309931A4D09A903
:105670002846FBF713FB4FF49863099309A91748D1
:10568000FBF70CFB4823099309A91548FBF706FB18
:105690004FF48063099309A91248FBF7FFFA4FF40E
:1056A0000C630993104C09A92046FBF7F7FA032372
:1056B000099309230D9309A92846FBF7EFFA4FF444
:1056C000A053099309A92046FBF7E8FA0FB030BDB3
:1056D000003802400000024000040240000802407E
:1056E000000C0240001402400018024038B5204C63
:1056F000204B2360092363610123A3611D23E36120
:105700000323236240F20D13636240F24313A3624A
:1057100040F21713E36240F247132363002584F835
:10572000365084F8345084F8355013480823C36544
:10573000C023C366042343674FF40033C0F88030AE
:105740005C30FCF7A1FE6560A560E5602561FFF7B0
:1057500029FF2046FCF73EFA084B094A13601B68F4
:10576000984700F039FA0748FFF77CFE284638BD15
:105770004006002000680140340200200C00002098
:10578000E806002058000020F8B507460C461646EB
:10579000064B9B6D064A342101FB0323DD6DFFF7A9
:1057A000FBFD00FB047045F82060F8BD34020020CA
:1057B000400600202DE9F04F83B081460F4600924D
:1057C000334A936D03EB430399000A44936CDA88E0
:1057D00001929D8805F1070B4FEAEB0B4FEACB08CE
:1057E0005FFA88F8EBB2A8EB03085FFA88F84FF08D
:1057F000000A33E0009AD65C002413E00099CB5CE9
:10580000567846EA0326F7E7214A936D03EB4303F4
:1058100099000A4409EB0400526C394680B2FFF744
:10582000B3FF0134A54215D92B1B4344013B012290
:1058300002FA03F33342E7D0154A936D03EB4303B7
:1058400099000A4409EB0400126C394680B2FFF754
:105850009BFFE6E70137BFB20AF1010A019B5345FE
:1058600012D90AFB0BF3009A1A44BBF1010FC1D005
:10587000BBF1020FC2D00099CB5C5678360246EAE3
:10588000034693781E43B7E703B0BDE8F08F00BF2F
:105890003402002038B50A4CA36D03EB43039D008E
:1058A0002C44A36C1C68A2F12005DA8802FB05F2E7
:1058B0009B880733DB1003FB0242FFF77BFF38BDF9
:1058C000340200202DE9F04106460F461546984661
:1058D0001346002401E0013413465A1C1B78002BA8
:1058E000F9D1FFF759FD274A936D03EB4303990064
:1058F0000A44936C9A88B0FBF2F0B8F1010F04D01F
:10590000B8F1020F09D0002420E0031B03FB02F3CF
:10591000C3F34F031E44B6B2F5E7001B10FB02F0C1
:1059200016FA80F6B6B2EEE715F8012B3946304686
:10593000FFF7B0FF134A936D03EB430399000A444A
:10594000936C9B881E44B6B20134A4B295F80080D3
:10595000FFF722FD0B4A936D03EB430399000A44C2
:10596000936C9B8803FB140080B2984234BF0020E4
:105970000120B8F1000F08BF00200028D4D1BDE8F5
:10598000F08100BF3402002038B505460C46FFF711
:1059900073FDC18811FB05F10323224689B2002063
:1059A000FFF790FF38BD00002DE9F04782B0824636
:1059B0004FF00008CDF80480214C0126266008270E
:1059C0006760A660C4F80C8004F110054FF6FF7202
:1059D00021462846FCF7ABFE3046FAF7B5FD022318
:1059E00023606760A660C4F80C804FF6FF72214602
:1059F0002846FCF79CFE0323236067604FF00409F0
:105A0000C4F80890C4F80C804FF6FF72214628466F
:105A1000FCF78DFE4FF40C730193C4F8009067609F
:105A2000A660019BE3604FF6FF7221462846FCF713
:105A30007EFE51462846FCF797FE02B0BDE8F0878F
:105A4000C0020020002800F0B48070B58EB0064679
:105A500000240194574B9A6B42F001029A639A6BAF
:105A600002F001020192019A02941A6B42F4800240
:105A70001A631A6B02F480020292029A03941A6B60
:105A800042F002021A631A6B02F002020392039AB6
:105A900004941A6B42F004021A631A6B02F00402B7
:105AA0000492049A05941A6B42F008021A631A6B66
:105AB00002F008020592059A06941A6B42F0100251
:105AC0001A631A6B02F010020692069A07941A6B78
:105AD00042F020021A631A6B02F020020792079A22
