:020000040800F2
:100000000000032059730008097200080B720008F1
:100010000D7200080F720008117200080000000045
:10002000000000000000000000000000214900085E
:100030001372000800000000C1490008254A0008AA
:10004000A9730008A9730008A9730008A973000820
:10005000A9730008A9730008A9730008A973000810
:10006000A9730008A9730008A9730008A973000800
:10007000A9730008A9730008A9730008A9730008F0
:10008000A9730008A9730008A9730008A9730008E0
:10009000A9730008A9730008A9730008A9730008D0
:1000A000A9730008A9730008A9730008A9730008C0
:1000B000A9730008A9730008A9730008A9730008B0
:1000C000A9730008A9730008A9730008A9730008A0
:1000D000A9730008A9730008A9730008A973000890
:1000E000A9730008A9730008A9730008A973000880
:1000F000A9730008A9730008A9730008A973000870
:10010000A9730008A9730008A9730008A97300085F
:10011000A9730008A973000815720008A9730008E4
:10012000A9730008A9730008A9730008A97300083F
:10013000A9730008A9730008A9730008A97300082F
:10014000A9730008A9730008A9730008A97300081F
:10015000A9730008A9730008A9730008A97300080F
:10016000A9730008A9730008A9730008A9730008FF
:10017000A973000825720008A97300080000000098
:10018000A9730008A9730008A9730008A9730008DF
:10019000A9730008A9730008A9730008A9730008CF
:0C01A00035720008A973000845720008C1
:1001B00010B5054C237833B9044B13B10448AFF3A1
:1001C00000800123237010BDEC000020000000001F
:1001D0000876000808B5034B1BB103490348AFF389
:1001E000008008BD00000000F00000200876000834
:1001F00053B94AB9002908BF00281CBF4FF0FF318E
:100200004FF0FF3000F072B9ADF1080C6DE904CE8B
:1002100000F006F8DDF804E0DDE9022304B07047E1
:100220002DE9F047089E04468846002B4BD18A42B0
:10023000154667D9B2FA82F24AB1C2F1200701FA33
:1002400002F320FA07F7954047EA030894404FEA83
:10025000154E230CB8FBFEF71FFA85FC0EFB178822
:1002600043EA084307FB0CF1994209D9EB1807F15F
:10027000FF3080F01B81994240F21881023F2B44ED
:100280005B1AA4B2B3FBFEF00EFB103344EA034446
:1002900000FB0CFCA44509D92C1900F1FF3380F0B8
:1002A0000781A44540F2048102382C4440EA07400B
:1002B000A4EB0C0400271EB1D4400023C6E9004380
:1002C0003946BDE8F0878B4209D9002E00F0EB805B
:1002D0000027C6E9000138463946BDE8F087B3FA81
:1002E00083F7002F47D18B4202D3824200F2FA807B
:1002F000841A61EB030301209846002EE0D0C6E982
:100300000048DDE702B9FFDEB2FA82F2002A40F0CF
:100310008F80491B4FEA154E1FFA85F80127B1FB64
:10032000FEFC230C0EFB1C1143EA014308FB0CF1FD
:10033000994207D9EB180CF1FF3002D2994200F232
:10034000CD808446591AA3B2B1FBFEF00EFB101407
:1003500043EA044408FB00F8A04507D92C1900F132
:10036000FF3302D2A04500F2B6801846A4EB080481
:1003700040EA0C409FE7C7F1200CBB4022FA0CFE7C
:100380004EEA030E01FA07F420FA0CF521FA0CF3F9
:100390004FEA1E482543B3FBF8F92C0C08FB193330
:1003A0001FFA8EFA44EA034309FB0AF49C4202FA5C
:1003B00007F200FA07F10BD91EEB030309F1FF3036
:1003C00080F087809C4240F28480A9F10209734446
:1003D0001B1BADB2B3FBF8F008FB103345EA034436
:1003E00000FB0AFAA24508D91EEB040400F1FF3312
:1003F0006BD2A24569D90238744440EA0940A0FB97
:100400000289A4EB0A044C45C2464B4654D351D052
:10041000002E69D0B1EB0A0564EB030404FA0CFC6E
:10042000FD40FC404CEA0505C6E90054002747E7BB
:10043000C2F1200320FA03F7954001FA02F021FAF5
:1004400003F34FEA154E3843010CB3FBFEF71FFAD6
:1004500085F80EFB173341EA034107FB08F38B4293
:1004600004FA02F407D9691807F1FF3C2FD28B4236
:100470002DD9023F2944CB1A81B2B3FBFEF00EFB0B
:10048000103341EA034100FB08F38B4207D9691896
:1004900000F1FF3C17D28B4215D902382944C91A02
:1004A00040EA07473BE73746304609E70746E7E6B5
:1004B0001846FBE64145ABD2B8EB020A69EB0E02E7
:1004C00001381346A4E76046E9E7184695E7674612
:1004D000D1E781467CE702382C4447E7ACF1020CB7
:1004E0002B442FE7384608E73746E9E6704700BF58
:1004F000034613F8012B002AFBD1181A0138704764
:1005000008B50B4B1A6842F400721A601A6842F47C
:1005100080621A601A6842F480721A60032000F048
:100520002FF8002006F032FE06F010FC002008BD77
:10053000003C0240034A1168034B1B780B441360D4
:10054000704700BFC40C002000000020014B186859
:10055000704700BFC40C002038B50446FFF7F6FF13
:100560000546B4F1FF3F02D0044B1B781C44FFF753
:10057000EDFF401BA042FAD338BD00BF00000020B1
:10058000074AD36823F4E0631B041B0C000200F449
:10059000E060184340F0BF6040F40030D060704726
:1005A00000ED00E030B4174BDB68C3F30223C3F166
:1005B0000704042C28BF04241D1D062D18D9033B55
:1005C0004FF0FF3505FA04F421EA0401994005FAD9
:1005D00003F322EA0303194300280BDB0901C9B224
:1005E00000F1604000F5614080F8001330BC7047B6
:1005F0000023E5E700F00F000901C9B2024B1954CE
:10060000F4E700BF00ED00E014ED00E0002807DB98
:1006100000F01F02400901239340024A42F82030B3
:10062000704700BF00E100E068B110B504464379AF
:100630002BB10223637101236371002010BD03718C
:1006400006F0A6FBF5E70120704730B405682C687A
:1006500024F480242C60046863608368402B05D0F8
:10066000036899600368DA6030BC704703689A6079
:100670000368D960F8E700000268D3B2103B0B4969
:10068000A1FB03131B090A49C95CC165032B06D8EA
:1006900022F47F7222F003028265806D704722F49B
:1006A0007F7222F0030204328265F6E7ABAAAAAA9F
:1006B00020760008836A826992B9012B0AD01BB1A7
:1006C000022B01D000207047C36A13F0807F2CD129
:1006D00000207047C36AB3F1C07F28D00020704764
:1006E000B2F5005F05D0022B29D9032B15D00020CD
:1006F0007047032B03D8DFE803F01C041C0A00201A
:100700007047C36A13F0807F15D100207047C36A19
:10071000B3F1C07F11D000207047C36A13F0807F0F
:1007200001D0012070470020704701207047012050
:100730007047012070470120704701207047012059
:100740007047000070B50446FFF700FF002C5BD037
:100750000546002384F83430022384F835302268BB
:10076000136823F00103136023681A6812F0010F65
:100770000AD0FFF7EBFE401B0528F5D9202363655F
:10078000032084F8350070BD1A6820481040616865
:10079000A2680A43E1680A4321690A4361690A437E
:1007A000A1690A43E1690A43216A0A430243616A73
:1007B00004291ED01A602668756925F00705636A4A
:1007C0001D43042B07D1A36A1D43E36A1BB12046D6
:1007D000FFF770FF90B975612046FFF74DFFE26D9E
:1007E0003F239340836000206065012384F8353007
:1007F000C9E7E16A206B01430A43DBE740236365F5
:10080000012084F83500BEE70120BCE73F8010F0EE
:1008100000282CD038B5044690F83530DBB2022BD6
:1008200027D00268136823F00103136003680025D2
:100830001D6003685D6003689D600368DD60036898
:100840001D61036821225A61FFF716FFE5632564E5
:100850006564A564E5642565E26D3F23934083608C
:10086000656584F8355084F83450284638BD012039
:1008700070470220FAE738B5856D90F83440012CB6
:1008800031D0012480F8344090F83540E4B2012C96
:1008900004D0002380F83430022038BD0446022002
:1008A00084F83500002060652046FFF7CEFEE26D3B
:1008B0003F239340AB602268136843F01603136034
:1008C0002268536943F080035361236C23B122688B
:1008D000136843F0080313602268136843F00103B0
:1008E00013600020D9E70220D7E770B40668746C63
:1008F00004F04044039D45EA03431C4374640368C9
:10090000DA634368B3F5403F03D00368D96070BC35
:10091000704701F07F4601F47F0301F47F45CAB2BE
:10092000846894B1012C0ED0022C11D0032C17D066
:10093000360F1B0D2D0B190241EA051141EA063154
:1009400041EA121101E021F07F4103689963DEE77B
:10095000DB0CAD0AD90241EA451141EAD201F4E7C4
:10096000F60FDB0CED0A990241EA451141EAC63166
:1009700041EAD201E9E748B310B5044690F83930AE
:10098000FBB1022384F839302268136823F4403322
:1009900061680B4313602268536B23F00703A1685F
:1009A0000B4353632268136C23F47F5323F03F03FC
:1009B000E1680B4313640020E063012384F83930BD
:1009C00010BD80F8383006F0FBF9DAE701207047F7
:1009D00010B582B090F83840012C13D004460120A5
:1009E00084F83800022084F83900049800902046EA
:1009F000FFF77BFF2268136843F0010313600020B8
:100A000002B010BD0220FBE770B582B004460D466F
:100A10000023019303681B6813F0010F11D12268B2
:100A2000D369526A134313F0200F47D1236812226F
:100A30009A60012384F83930002084F8380002B02D
:100A400070BDFFF783FD064623685A6812F0020F57
:100A5000E5D15A680192019A12F0210F14D1B5F133
:100A6000FF3FF1D0FFF772FD801BA84201D8002D97
:100A7000EAD1E36B43F02003E363032084F83900F9
:100A8000002384F83830DAE7019A12F0200F03D0FF
:100A9000E26B42F00202E263019A12F0010F03D00E
:100AA000E26B42F00102E26321229A60042384F89F
:100AB0003930002384F838300120C0E7FFF746FDC5
:100AC000064623685A6812F0100FAFD15A68019297
:100AD000019A12F0290F14D1B5F1FF3FF1D0FFF7C1
:100AE00035FD801BA84201D8002DEAD1E36B43F00D
:100AF0002003E363032084F83900002384F83830AE
:100B00009DE7019A12F0080F03D0E26B42F0040255
:100B1000E263019A12F0200F03D0E26B42F002026E
:100B2000E263019A12F0010F03D0E26B42F001027E
:100B3000E26329229A60042384F83930002384F880
:100B4000383001207BE77047704770B50446036872
:100B50005D681E6815F0010F16D016F4807F13D063
:100B60001A6822F480721A60C36B43F00103C363F6
:100B7000036801229A60042380F83930002380F84A
:100B80003830436903B1984715F0200F18D016F498
:100B9000005F15D02268136823F4005313602368A4
:100BA00020229A60E36B43F00203E363042384F89A
:100BB0003930002384F8383063690BB120469847F8
:100BC00015F0080F18D016F4006F15D022681368BE
:100BD00023F400631360236808229A60E36B43F0F8
:100BE0000403E363042384F83930002384F83830A5
:100BF00063690BB12046984715F0040F02D016F434
:100C0000806F20D115F0020F16D016F4007F13D09C
:100C10002268136823F400731360236802229A6029
:100C2000E36BE363012384F83930002384F8383020
:100C300023690BB12046984715F0100F02D016F427
:100C4000805F0CD170BD2268136823F48063136049
:100C5000236804229A602046FFF775FFD2E72268D6
:100C6000136823F480531360236810229A60E36BA7
:100C7000E363012384F83930002384F838302046B8
:100C8000FFF762FFDEE7000090F83830012B59D003
:100C900030B4012380F83830022380F8393000EB7B
:100CA0000113DA698B1C1B01C35842EA0343093A5A
:100CB000012A1ED98A1C00EB0212526843EA026321
:100CC00041BB0468656A204A2A4013436362026894
:100CD00000EB01139C699461DB69093B012B10D97E
:100CE000012380F83930002380F83830184630BCB2
:100CF00070478A1C00EB0212526802F07F421343D5
:100D0000DEE7023100EB01114B68026823F07F43FC
:100D10009362E5E70468E5690B4A2A401343E361FF
:100D2000026800EB01139C691461DB69093B012B2C
:100D3000D6D8023100EB01114B68026823F07F43E3
:100D40001362CDE702207047F0FFFC0000230F2B59
:100D500000F2E380F0B482B039E0092200E0002222
:100D6000B2403A4302346D4E46F824206C4A14686F
:100D7000EA4302EA04064F6817F4803F01D045EACF
:100D80000406674C2660646802EA04064F6817F49C
:100D9000003F01D045EA0406614C6660A46802EA9F
:100DA00004064F6817F4801F01D045EA04065C4C26
:100DB000A660E46822404E6816F4001F01D045EAA0
:100DC0000402574CE26001330F2B00F2A380012292
:100DD0009A400C6804EA0205AA42F4D14C68022C3D
:100DE00001D0122C10D1DE08083650F826C003F0CE
:100DF0000704A7000F24BC402CEA040C0C69BC407B
:100E000044EA0C0440F8264004685F000326BE4014
:100E1000F64306EA040C4C6804F00304BC4044EAC0
:100E20000C0404604C6804F1FF3CBCF1010F03D9D1
:100E3000112C01D0122C10D1846806EA040CCC6865
:100E4000BC4044EA0C048460446824EA02024C6812
:100E5000C4F300149C4014434460C26816408A687E
:100E6000BA403243C2604A6812F0805FABD00022C1
:100E700001922C4A546C44F480445464526C02F441
:100E800080420192019A9C08A61C244A52F82670BE
:100E900003F0030296000F22B24027EA0207224A1B
:100EA00090423FF45CAF02F58062904222D002F59E
:100EB0008062904220D002F5806290421ED002F5FE
:100EC000806290421CD002F5806290421AD002F5F6
:100ED0008062904218D002F58062904216D002F5EE
:100EE0008062904214D002F5806290423FF435AFA8
:100EF0000A2235E7012233E7022231E703222FE7F6
:100F000004222DE705222BE7062229E7072227E7FF
:100F1000082225E702B0F0BC704770470038014056
:100F2000003C0140003802400000024000230F2B2B
:100F300000F29380F0B529E0092700E0002707FAC6
:100F400005F5B54270D005685E000324B440E44363
:100F500025400560DD08083550F8256003F00707D7
:100F60004FEA870C0F2707FA0CF726EA070640F826
:100F70002560856825408560456825EA0202426053
:100F8000C2681440C46001330F2B65D801229A4017
:100F900002EA0104A242F6D14FEA930C0CF10206D8
:100FA0002E4D55F8266003F00305AD000F2707FA14
:100FB00005FE0EEA06062A4FB842BFD007F5806745
:100FC000B84221D007F58067B8421FD007F5806787
:100FD000B8421DD007F58067B8421BD007F580677F
:100FE000B84219D007F58067B84217D007F5806777
:100FF000B84215D007F58067B84213D007F580676F
:10100000B84299D00A279AE7012798E7022796E77E
:10101000032794E7042792E7052790E706278EE742
:1010200007278CE708278AE70C4E0CF1020556F8D3
:10103000257027EA0E0746F825700A4D2E68E4430E
:1010400026402E606E6826406E60AE682640AE6018
:10105000EE683440EC6076E7F0BD70470038014040
:1010600000000240003C014012B909048161704750
:1010700081617047F8B50668346A04F00F07C4F35D
:101080004343C4F30A14022B2ED16CB307EB87023F
:10109000D3000344596C39B305462246304602F06A
:1010A000B3FDBA003A44D3002B445A6C22445A642C
:1010B000DA6C2244DA6406EB4713D3F810150B4AB6
:1010C0000A408AB1D3F8002522F0804242F0004263
:1010D000C3F80025BB00D919CA002A4492F8503041
:1010E00083F0010382F85030F8BD00BF0000F81F04
:1010F00030B583B005460468D4F840340193D4F881
:1011000040340093009B23F02E030093019B13F0C7
:10111000020F07D0019B13F0010F28D1009B43F071
:1011200002030093019B13F0080F13D0009B43F0C0
:1011300008030093019B13F0040F34D0AB69022B1A
:101140001CD0EB68012B29D0284606F0DFF8284692
:1011500006F0CAF8019B13F0200F03D0009B43F068
:1011600020030093009BC4F8403403B030BDA36952
:1011700023F00053A36106F0B7F8CFE7019B03F417
:10118000C023B3F5802F04D00121286802F058FD58
:10119000DAE70221286802F053FDD5E74EF6602217
:1011A000C4F80424D0E7284606F0B6F8D4F8403452
:1011B00023F02E03C4F840342A68936943F00053A7
:1011C0009361C7E7F8B506460D46076807EB411778
:1011D00007F5A064A36813F0040F3ED00423A360B6
:1011E000E36843F00203E360A36813F4007F6AD16D
:1011F000A36813F0010F00F0878033694BB1AA0098
:101200002A44D30033449A6C2169C1F31201521A63
:10121000DA64AA002A44D3003344012283F85D2013
:1012200000219965A26093F83F30002B57D0022B24
:1012300055D0032B5DD1D7F8003543F00053C7F8E4
:10124000003505EB8502D3003344012283F85C208E
:101250002946304606F054F84BE0A36813F0200FFF
:1012600002D02023A360BFE7A36813F0080F17D1B3
:10127000A36813F4806FB7D0E36843F00203E36020
:10128000006802F025FD1023A36005EB8502D30062
:101290003344082283F85D204FF48063A360A3E702
:1012A000E36843F00203E36001EB8102D3000344EF
:1012B000052283F85D201023A3600823A360006843
:1012C00002F006FD90E7E36843F00203E36029467D
:1012D000306802F0FDFC4FF40073A36013E0E36894
:1012E00043F00203E3602946306802F0F1FC10236A
:1012F000A360AB005919CA00324492F8503083F011
:10130000010382F85030F8BDA36813F0020F62D0D9
:10131000E36823F00203E36005EB8502D300334466
:1013200093F85D30012B17D0052B29D0062B2FD039
:10133000082B2DD0032B16D105EB8502D3003344A7
:10134000022283F85C20D7F8003523F0804343F075
:101350000043C7F8003506E005EB8502D3003344AF
:10136000012283F85C200223A36005EB8502D300F1
:10137000334493F85C202946304605F0C1FFC2E7AC
:1013800005EB8502D3003344052283F85C20EAE7AD
:10139000AA002A44D30033449A6D01329A65032A85
:1013A00011D9AA002A44D300334400229A650422AA
:1013B00083F85C20D7F8003523F0804343F00043E6
:1013C000C7F80035CFE705EB8502D300334402228E
:1013D00083F85C20EEE7A36813F0800F19D1A368AF
:1013E00013F0100F8FD005EB8502D300334493F830
:1013F0003F30032B25D00BB1022B07D105EB850223
:10140000D300334400229A6533694BB31023A360A1
:1014100079E7E36843F00203E360AB005919CA00BF
:101420003244916D013191652B44DA003244062338
:1014300082F85D302946306802F04AFC8023A360C0
:1014400061E705EB8502D300334400229A65E36827
:1014500043F00203E3602946306802F039FCD5E727
:1014600005EB8502D3003344032283F85D20E36853
:1014700043F00203E3602946306802F029FCC5E727
:10148000F8B5036803EB411303F5A064A26812F0FA
:10149000040F24D10E460546A26812F0200F25D075
:1014A0002023A36001EB8102D3001A46034493F882
:1014B0003D30012B19D18B000244002182F83D10F0
:1014C0003344DA000244022382F85C30E36843F0DC
:1014D0000203E3603146006802F0FAFB05E00423F2
:1014E000A360E36843F00203E360F8BDA26812F072
:1014F000400F34D1A26812F4007F4AD1A26812F0E2
:10150000010F51D1A26812F0080F62D1A26812F047
:10151000100F6FD08A000A44D300034400229A655A
:10152000032283F85D2093F83D306BB901EB810213
:10153000D300034493F83C3033B901EB8102D3006C
:101540000344012283F83D20E36843F00203E36093
:101550003146286802F0BCFB1023A360C5E78B006E
:101560005918CA000244042182F85D10012182F852
:101570003D103344DA00024400239365E36843F0EE
:101580000203E3603146006802F0A2FB4023A3603F
:10159000ABE7E36843F00203E360006802F098FB06
:1015A0004FF40073A360A0E78F007A18D3000344C0
:1015B00000229A65E36843F00203E360006802F0EA
:1015C00087FB0123A360B919C800284480F85D3067
:1015D0008BE70823A360E36843F00203E36000683D
:1015E00002F076FB06EB8601C8002844052380F84C
:1015F0005D307AE7A26812F0800F39D1A26812F448
:10160000806F46D1A26812F0020F3FF46EAFE2681D
:1016100022F00202E26001EB8101CA00114602449D
:1016200092F85D20012A48D0032A5AD0042A6CD0AF
:10163000052A72D0062A01D0082A59D1B1003144B6
:10164000CA002A44916D0131916503296BD9282282
:1016500002FB065200219165042182F85C10D3F848
:10166000002522F0804242F00042C3F800253FE00E
:10167000E36843F00203E360006802F029FB06EB35
:101680008601CB002B44062283F85D208023A360D3
:101690002BE7E36843F00203E360006802F018FB05
:1016A0001023A3604FF48063A36006EB8601CB0098
:1016B0002B44082283F85D2017E70B4603440122E0
:1016C00083F85C2093F83F30023BDBB293420FD8A3
:1016D0000B46034493F8512082F0010283F8512015
:1016E00006E006EB8602D3000344022283F85C2066
:1016F0000223A36006EB8602D3002B4493F85C2000
:101700003146284605F0FCFDEFE606EB8602D300E5
:101710000344022283F85C20EAE7282303FB060344
:1017200083F85C20E4E7282202FB0652022182F8BB
:101730005C1094E7F8B504460568284602F07CFA88
:10174000012800D0F8BD206802F072FA0028F9D014
:10175000206802F06DFA10F4001F03D023684FF4E4
:1017600000125A61206802F063FA10F4801F03D05F
:1017700023684FF480125A61206802F059FA10F081
:10178000806F03D023684FF080625A61206802F0B6
:101790004FFA10F0020F02D0236802225A6120682B
:1017A00002F046FA10F0005F25D1206802F040FAFE
:1017B00010F0807F31D1206802F03AFA10F0080F63
:1017C0002FD1206802F034FA10F0007F30D1206869
:1017D00002F02EFA10F0100FB4D02268936923F0B3
:1017E000100393612046FFF745FC2268936943F09C
:1017F00010039361A6E7D5F8403423F02E03C5F813
:101800004034204605F076FD0121206802F018FAE8
:1018100023684FF000525A61C7E72046FFF768FC83
:10182000C9E7204605F05AFD236808225A61C8E737
:10183000206802F048FA0746002604E0F1B220468C
:10184000FFF71EFE0136A368B34212D906F00F035C
:1018500027FA03F313F0010FF4D005EB4613D3F886
:10186000003513F4004FE9D0F1B22046FFF7AAFC8F
:10187000E8E723684FF000725A61A8E738B590F89E
:10188000B832012B0ED00446012580F8B85200680A
:1018900002F088F92946206802F0F2F9002084F865
:1018A000B80238BD0220FCE790F8B832012B0BD00B
:1018B00010B50446012380F8B832006802F070FACF
:1018C000002084F8B80210BD02207047002800F004
:1018D000BE80F8B5044690F83D30002B6BD0242331
:1018E00084F83D302268136823F00103136000F090
:1018F000E5FD6268584B9A4262D8584B98428CBFBB
:1019000000230123002B40F0A480554BA3FB0023B0
:101910009B0C21684A6822F03F021A434A602568FE
:101920002A6A22F03F0266684B498E424ED8013344
:1019300013432B622568E96921F44F4121F0FF012F
:101940006368454A93424BD801385B00B0FBF3F320
:101950000133C3F30B03042B38BF04230B43EB61A8
:1019600021680B6823F0C003E269206A0243134335
:101970000B6021688B6823F4034323F0FF03226983
:10198000E068024313438B602168CB6823F0FF03B8
:101990006269A06902431343CB602268136843F075
:1019A0000103136000202064202384F83D3020636D
:1019B00084F83E00F8BD80F83C3005F021FA8EE74F
:1019C000284B98428CBF002301239BE74FF496716C
:1019D00001FB03F32449A1FB03139B090133A7E790
:1019E000A268BAB9461E03EB4307B6FBF7F6013609
:1019F000C6F30B06B6FA86F6760936BBC2B90138CD
:101A000003EB4303B0FBF3F30133C3F30B0242F4E4
:101A10000043A3E7461E03EB830707EB8707B6FBEC
:101A2000F7F60136C6F30B06B6FA86F67609E4E752
:101A3000013803EB830303EB8303B0FBF3F20132C2
:101A4000C2F30B0242F4404388E7012386E70120FA
:101A500070470120AEE700BFA08601007F841E0012
:101A600083DE1B43FF083D00D34D621090F83D30EC
:101A7000DBB2202B1AD1242380F83D300268136892
:101A800023F0010313600268536A23F010035362CA
:101A90000268536A194351620268136843F00103F4
:101AA0001360202380F83D300020704702207047EB
:101AB00090F83D30DBB2202B19D1242380F83D3043
:101AC0000268136823F0010313600268536A9BB233
:101AD00023F00F03194389B251620268136843F07F
:101AE00001031360202380F83D300020704702205E
:101AF0007047F0B44D680468E368C3F30B431D44BA
:101B0000D2011444D4F8883003F47043C4F8883008
:101B10000B680468E668C6F30B463344013314448B
:101B200043EA0543C4F88830CD680468E368C3F32A
:101B30000A031D441444D4F88C3003F47043C4F8F1
:101B40008C308B680468E668C6F30A0633440133B8
:101B5000144443EA0543C4F88C3003681344D3F8B3
:101B6000944024F00704C3F89440036813440C69BC
:101B7000C3F8944091F831C091F832708E690568CD
:101B80001544D5F89C300024C5F89C4091F83030BD
:101B900043EA0C2343EA07430568154443EA066316
:101BA000C5F89C3003681344D3F8985025F0FF051E
:101BB000C3F89850036813444D69C3F898500368FC
:101BC0001344D3F8A05025F4E06525F00705C3F8C9
:101BD000A050CD690E6A036813443543C3F8A05082
:101BE00003681344D3F8AC50C3F8AC400368134403
:101BF0004C6AC3F8AC400B696BB1012B3CD0042B91
:101C00003CD0022B08D0032B3AD0072B01D0012364
:101C100002E0022300E0042304681444D4F8B05026
:101C200005F0E025C4F8B0508C6A03FB04F54C685D
:101C30000E68A41B03FB04F303330468144443EA53
:101C40000543C4F8B03003681344D3F8B44024F417
:101C5000FF6424F00704C3F8B44003681344C96A5E
:101C6000C3F8B41003681A44D2F8843043F0010377
:101C7000C2F88430F0BC70470323CDE70223CBE7E2
:101C80000223C9E7002872D038B5044690F8A13085
:101C9000002B67D0022384F8A1302268936923F0D7
:101CA0007043936121688A696368A0680343E068B0
:101CB00003432069034313438B6121688A682D4BDA
:101CC0001A408A60656920688268A16941EA054115
:101CD0000A4382602168CA681A40CA60E5692068C0
:101CE000C268216A41EA05410A43C26021680A6963
:101CF0001A400A61656A20680269A16A41EA0541E1
:101D00000A43026121684A6913404B61E06A216815
:101D10004B69226B42EA004213434B6194F8350051
:101D200094F836301B042168CA6A02F07F42CA6206
:101D30002168CA6A43EA002394F83400034313433A
:101D4000CB622268536B43F00603536322689369A6
:101D500043F0010393610020C4F8A400012384F838
:101D6000A13038BD80F8A03005F09EF892E7012040
:101D7000704700BF00F800F070477047704770B5BB
:101D8000044603689D6B5E6B15F0040F02D016F0DD
:101D9000040F12D115F0020F02D016F0020F21D15C
:101DA00015F0010F02D016F0010F32D115F0080F17
:101DB00002D016F0080F3DD170BD5A6B22F004021C
:101DC0005A6303680422DA63D0F8A43043F00103B5
:101DD000C0F8A43080F8A120002380F8A030FFF7DD
:101DE000CBFFD7E72268536B23F0020353632368CA
:101DF0000222DA63D4F8A4301343C4F8A4300423D5
:101E000084F8A130002384F8A0302046FFF7B4FF07
:101E1000C6E72268536B23F0010353632268012352
:101E2000D36384F8A130002384F8A0302046FFF764
:101E3000A4FFBBE72268536B23F0080353632368B6
:101E40000822DA63012384F8A130002384F8A0304B
:101E50002046FFF793FFAFE790F8A030012B27D083
:101E60002DE9F04194460F4606464FF0010880F8F0
:101E7000A080022380F8A130342404FB020438340B
:101E80000D460FCD0FC40FCD0FC40FCD0FC42B685F
:101E90002360624639463046FFF72BFE3368C3F8AD
:101EA000248086F8A180002086F8A000BDE8F0819B
:101EB0000220704790F8A030012B11D0012280F849
:101EC000A020022380F8A13006498B6943F48033B7
:101ED0008B6180F8A120002380F8A030184670475D
:101EE0000220704700680140002800F0BB8170B5F7
:101EF00082B00446036813F0010F3BD0A74B9B68E8
:101F000003F00C03042B2CD0A44B9B6803F00C03B0
:101F1000082B21D06368B3F5803F4FD0B3F5A02FD5
:101F200052D09E4B1A6822F480321A601A6822F44A
:101F300080221A606368002B50D0FEF707FB05462D
:101F4000964B1B6813F4003F14D1FEF7FFFA401BB9
:101F50006428F5D903208AE1904B5B6813F4800F65
:101F6000D8D08E4B1B6813F4003F03D06368002B5E
:101F700000F07A81236813F0020F55D0874B9B68DD
:101F800013F00C0F3ED0854B9B6803F00C03082B1D
:101F900033D0E368002B68D0814B01221A60FEF732
:101FA000D5FA05467D4B1B6813F0020F54D1FEF79E
:101FB000CDFA401B0228F5D9032058E1774A13686F
:101FC00043F480331360B5E7744B1A6842F48022FF
:101FD0001A601A6842F480321A60ABE7FEF7B6FA6C
:101FE00005466E4B1B6813F4003FC3D0FEF7AEFAF4
:101FF000401B6428F5D9032039E1684B5B6813F472
:10200000800FC6D1654B1B6813F0020F04D0E36844
:10201000012B01D001202AE1604A136823F0F80364
:10202000216943EAC1031360236813F0080F40D00D
:10203000636963B35B4B01221A60FEF787FA0546BA
:10204000564B5B6F13F0020F33D1FEF77FFA401B44
:102050000228F5D903200AE1504A136823F0F80357
:10206000216943EAC1031360DEE74D4B00221A6089
:10207000FEF76CFA0546494B1B6813F0020FD3D0EC
:10208000FEF764FA401B0228F5D90320EFE0454B28
:1020900000221A60FEF75AFA0546404B5B6F13F0B8
:1020A000020F06D0FEF752FA401B0228F5D9032092
:1020B000DDE0236813F0040F79D0384B1B6C13F06C
:1020C000805F33D100230193344B1A6C42F080526D
:1020D0001A641B6C03F080530193019B0125324B62
:1020E0001B6813F4807F23D0A368012B34D0052B09
:1020F00038D02A4B1A6F22F001021A671A6F22F0A9
:1021000004021A67A368002B36D0FEF71FFA0646B2
:10211000224B1B6F13F0020F48D1FEF717FA801BFA
:1021200041F288339842F3D90320A0E00025D6E796
:102130001D4A136843F480731360FEF707FA0646DE
:10214000194B1B6813F4807FCED1FEF7FFF9801B7B
:102150000228F5D903208AE0104A136F43F00103E7
:102160001367CFE70D4B1A6F42F004021A671A6F1C
:1021700042F001021A67C5E7FEF7E8F90646074B89
:102180001B6F13F0020F11D0FEF7E0F9801B41F234
:1021900088339842F3D9032069E000BF0038024039
:1021A00000004742800E474200700040E5B9A36935
:1021B000002B5BD0304A926802F00C02082A58D0FB
:1021C000022B17D02D4B00221A60FEF7BFF90446F0
:1021D000294B1B6813F0007F42D0FEF7B7F9001BB4
:1021E0000228F5D9032042E0234A136C23F08053E0
:1021F0001364DCE7214B00221A60FEF7A7F90546BD
:102200001D4B1B6813F0007F06D0FEF79FF9401BA3
:102210000228F5D903202AE0E369226A1343626A9F
:1022200043EA8213A26A5208013A43EA0243E26A8D
:1022300043EA0263104A5360104B01221A60FEF712
:1022400085F904460C4B1B6813F0007F06D1FEF79E
:102250007DF9001B0228F5D9032008E0002006E0E4
:10226000002004E001207047012000E0002002B0BF
:1022700070BD0120FBE700BF00380240600047420C
:10228000324B9B6803F00C03042B5CD0082B01D06D
:102290002F4870472DE9F04B2C4B5A6802F03F0253
:1022A0005B6813F4800F2BD0284B5B68C3F3881353
:1022B0001E4600275C010025E41A65EB0705A9010D
:1022C00041EA9461A001001B61EB0501CB0043EAE8
:1022D0005073C400A01943EB07014B0243EAD053EB
:1022E0004402204619460023FDF782FF174B5B6826
:1022F000C3F3014301335B00B0FBF3F0BDE8F08BA7
:10230000124B5B68C3F388131E4600275C0100254F
:10231000E41A65EB0705A90141EA9461A001001BDD
:1023200061EB0501CB0043EA5073C400A01943EBF5
:1023300007018B0243EA905384022046194600238A
:10234000FDF756FFD2E70348704700BF0038024050
:102350000024F40000127A00002800F09D8070B57F
:1023600004464F4B1B6803F00F038B4209D2CBB2DC
:102370004B4A1370136803F00F038B4201D0012006
:1023800070BD236813F0020F17D013F0040F04D0B0
:10239000444A936843F4E0539360236813F0080FB2
:1023A00004D0404A936843F4604393603D4A936885
:1023B00023F0F003A068034393600D46236813F0F5
:1023C000010F32D06368012B21D09A1E012A25D932
:1023D000344A126812F0020F60D032498A6822F043
:1023E000030213438B60FEF7B1F806462D4B9B6842
:1023F00003F00C036268B3EB820F16D0FEF7A6F869
:10240000801B41F288339842F0D90320B8E7254A6F
:10241000126812F4003FE0D10120B1E7214A1268AE
:1024200012F0007FD9D10120AAE71D4B1B6803F0F1
:102430000F03AB4209D9EAB2194B1A701B6803F0BB
:102440000F03AB4201D001209AE7236813F0040F79
:1024500006D0144A936823F4E053E1680B43936079
:10246000236813F0080F07D00E4A936823F46043E3
:10247000216943EAC1039360FFF702FF094B9B68A0
:10248000C3F30313084AD35CD840084B18600020FC
:1024900004F07CFE002073E70120704701206FE705
:1024A000003C02400038024020B3000884000020B5
:1024B000014B1868704700BF8400002008B5FFF783
:1024C000F7FF044B9B68C3F38223034AD35CD840D5
:1024D00008BD00BF0038024030B3000808B5FFF760
:1024E000E7FF044B9B68C3F34233034AD35CD840F5
:1024F00008BD00BF0038024030B300080F2303605E
:102500000B4B9A6802F0030242609A6802F0F002F4
:1025100082609A6802F4E052C2609B68DB0803F4B0
:10252000E0530361034B1B6803F00F030B6070471C
:1025300000380240003C024030B583B004460368D6
:1025400013F0030F14D1236813F00C0F5AD1236832
:1025500013F0200F40F0AF80236813F0100F00F04D
:10256000118194F82C20884B1A60002003B030BDF4
:10257000864B00221A60FDF7E9FF0546844B1B6875
:1025800013F0006F06D0FDF7E1FF401B0228F5D9DC
:102590000320EBE7236813F0010F07D06268A368FC
:1025A0001B0743EA82137A4AC2F88430236813F087
:1025B000020F15D0764AD2F884106068E3681B06D3
:1025C00043EA801301F0E0410B43C2F88430D2F8B3
:1025D0008C3023F01F03E16901390B43C2F88C30C2
:1025E0006A4B01221A60FDF7B1FF0546684B1B6874
:1025F00013F0006FA7D1FDF7A9FF401B0228F5D902
:102600000320B3E7634B00221A60FDF79FFF0546E6
:102610005F4B1B6813F0005F06D0FDF797FF401B70
:102620000228F5D90320A1E7236813F0040F16D080
:10263000574AD2F88810206963691B0643EA801361
:1026400001F0E0410B43C2F88830D2F88C3023F41B
:10265000F853216A013943EA0123C2F88C30236818
:1026600013F0080F14D04A4AD2F88830216903F0D9
:10267000706343EA8113A16943EA0173C2F88830A9
:10268000D2F88C3023F44033616A0B43C2F88C30AB
:10269000404B01221A60FDF759FF05463C4B1B6871
:1026A00013F0005F7FF453AFFDF750FF401B02288B
:1026B000F4D903205AE700230193354B1A6C42F0FA
:1026C00080521A641B6C03F080530193019B324AC1
:1026D000136843F480731360FDF738FF05462E4BF3
:1026E0001B6813F4807F06D1FDF730FF401B0228E2
:1026F000F5D903203AE7264B1B6F13F4407312D031
:10270000A26A02F440729A420DD0214B1A6F22F451
:102710004072224901200860002008601A671B6F80
:1027200013F0010F12D1A36A03F44072B2F5407F97
:102730001DD0174A936823F4F813936014490B6F64
:10274000A26AC2F30B0213430B6705E7FDF7FEFE17
:1027500005460F4B1B6F13F0020FE4D1FDF7F6FE99
:10276000401B41F288339842F3D90320FEE6084922
:102770008A6822F4F81223F0704323F44073134361
:102780008B60DBE70020F1E6E0114742680047423A
:10279000003802407000474200700040400E47423F
:1027A000D8B138B504460D4690F82C3083B10223D9
:1027B00084F82C30211D206801F03DF9626829461B
:1027C000206801F074F9012384F82C30002038BD12
:1027D00080F82D3004F0D6FCE9E70120704738B5C9
:1027E00090F82C30DBB2022B14D00D4604460223A5
:1027F00080F82C30006801F0A5F92B68022B04D07A
:10280000012384F82C30002038BD052384F82C30B7
:102810000020F9E70220F7E790F82C30DBB2022B1A
:102820000CD010B50446022380F82C30006801F06B
:10283000B3F9012384F82C30002010BD022070472A
:10284000F8B505460F4616461C462B689B6837EAC6
:1028500003030CBF01230023B34237D0B4F1FF3F81
:10286000F3D0FDF773FE069BC01AA04201D2002CE4
:10287000EBD12A68536823F0E00353606B68B3F52B
:10288000827F0BD0AB6AB3F5005F14D0012385F8CB
:102890005130002385F85030032018E0AB68B3F5C1
:1028A000004F02D0B3F5806FECD12A68136823F093
:1028B00040031360E6E72A68136823F400531360AB
:1028C0002A68136843F400531360DFE70020F8BD63
:1028D00030B585B0164C2468164DA5FB0434640D44
:1028E0004FF47A7505FB04F403944468B4F5827FD1
:1028F0000BD0039BC3B1039B013B039303689B680D
:1029000013F0800FF5D100230FE00B460446009230
:1029100000228021FFF794FF034630B1636D43F03E
:1029200020036365032300E00023184605B030BD93
:1029300084000020819F5E1610B582B00446406876
:10294000B0F5827F16D06068B0F5827F2ED1A36883
:10295000B3F5806F1BD000920B46002280212046E9
:10296000FFF76EFF034650B3636D43F020036365CA
:10297000032324E0A368B3F5004F02D0B3F5806FC2
:10298000E1D12068036823F040030360DBE7009295
:102990000B46002201212046FFF752FF034670B18B
:1029A000636D43F020036365032308E000920B4648
:1029B000002201212046FFF743FF034610B91846C5
:1029C00002B010BD636D43F0200363650323F6E797
:1029D00000283BD010B504460023836290F85130A4
:1029E000002B2ED0022384F851302268136823F084
:1029F000400313606368A2681343E26813432269CB
:102A0000134362691343A26902F400721343E2693B
:102A10001343226A1343A16A22680B431360638B3A
:102A200003F00403616A22680B4353602268D36990
:102A300023F40063D36100206065012384F85130E2
:102A400010BD80F8503004F0FBFACBE7012070474E
:102A500090B110B50446022380F851300268136823
:102A600023F04003136004F021FB0020606584F82C
:102A7000510084F8500010BD012070472DE9F0414D
:102A800082B090F85040012C00F0C3801D461746DC
:102A900088460446012380F85030FDF757FD06466E
:102AA00094F85130DBB2012B09D00220012384F8C5
:102AB0005130002384F8503002B0BDE8F081B8F105
:102AC000000F00F09880002F00F09780032384F817
:102AD000513000236365C4F83080A786E786A3637E
:102AE000A387E38763642364A368B3F5004F1CD016
:102AF00023681A6812F0400F03D11A6842F04002AE
:102B00001A60E368B3F5006F15D063680BB1012F4D
:102B100049D1226B236812781A73236B0133236324
:102B2000E38E013B9BB2E3863DE02268136843F4E9
:102B300080431360DCE763680BB1012F15D1226B72
:102B400023681288DA60236B02332363E38E013B30
:102B50009BB2E38609E0FDF7F9FC801BA84202D393
:102B6000B5F1FF3F4BD1002D4BD0E38E9BB2002B34
:102B70002CD023689A6812F0020FECD0226B1288D6
:102B8000DA60236B02332363E38E013B9BB2E3865F
:102B9000EBE7FDF7DBFC801BA84202D3B5F1FF3F5A
:102BA00031D1002D31D0E38E9BB27BB123689A687E
:102BB00012F0020FEDD0226B12781A73236B0133DF
:102BC0002363E38E013B9BB2E386ECE73246294662
:102BD0002046FFF77DFE08B120236365A36833B963
:102BE00001932368DA6801929B680193019B636DEE
:102BF0006BB900205AE7012058E7012056E703206F
:102C000054E7032052E7032050E703204EE701205A
:102C10004CE7022050E72DE9F04383B0DDF828802F
:102C200090F85040012C00F00B811D4617460E46CF
:102C30000446012380F85030FDF788FC814694F863
:102C40005100C0B26368012815D0B3F5827F0AD065
:102C50000223012284F85120002284F850201846D3
:102C600003B0BDE8F083A368002B40F0DB800428AC
:102C700001D00223EDE7002E00F0D680002F00F0F7
:102C8000D580002D00F0D48094F85130DBB2042BB5
:102C900002D0052384F8513000236365A763E587DC
:102CA000A5872663E586A5862364636423681A687E
:102CB00012F0400F03D11A6842F040021A60E36834
:102CC000B3F5006F10D063680BB1012D0AD1226BF0
:102CD000236812781A73236B01332363E38E013B5D
:102CE0009BB2E386012569E063680BB1012D0AD12F
:102CF000226B23681288DA60236B02332363E38E2E
:102D0000013B9BB2E38601251BE023689A6812F021
:102D1000010F0DD0E28F92B252B1DA68A36B1A8024
:102D2000A36B0233A363E38F013B9BB2E3870125CF
:102D3000FDF70CFCA0EB0900404502D3B8F1FF3FC2
:102D400078D1E38E9BB21BB9E38F9BB2002B52D09C
:102D500023689A6812F0020FD7D0E28E92B2002A4E
:102D6000D3D0002DD1D0226B1288DA60236B0233CE
:102D70002363E38E013B9BB2E3860025C5E723680E
:102D80009A6812F0010F0DD0E28F92B252B1DA6858
:102D9000A36B1A70A36B0133A363E38F013B9BB258
:102DA000E3870125FDF7D2FBA0EB0900404502D3E4
:102DB000B8F1FF3F40D1B8F1000F3FD0E38E9BB296
:102DC00013B9E38F9BB2B3B123689A6812F0020F74
:102DD000D5D0E28E92B2002AD1D0002DCFD0226B76
:102DE00012781A73236B01332363E38E013B9BB28A
:102DF000E3860025C3E74A4641462046FFF768FDC3
:102E0000034618B120236365012322E7A268002A44
:102E10007FF41FAF01922268D168019192680192FC
:102E2000019A16E7022314E7012312E7012310E7B2
:102E300001230EE703230CE703230AE7032308E734
:102E400002230CE72DE9F04182B004460F4690467C
:102E50001D464368B3F5827F19D094F85030012B9A
:102E600000F09F80012384F85030FDF76FFB064689
:102E700094F85130DBB2012B15D00220012384F8E5
:102E80005130002384F8503002B0BDE8F0818368EF
:102E9000002BE2D1042380F85130009513460A46F6
:102EA000FFF7B9FEF0E7002F6DD0B8F1000F6CD03E
:102EB000042384F8513000236365A763A4F83C80A1
:102EC000A4F83E802363A386E38623646364A36837
:102ED000B3F5004F0BD023681A6812F0400F03D1EE
:102EE0001A6842F040021A60E36883B12CE022685D
:102EF000136823F480431360EDE7FDF727FB801B85
:102F0000A84202D3B5F1FF3F41D1002D41D0E38F5C
:102F10009BB2002B2BD023689A6812F0010FECD0E3
:102F2000A26B1B7B1370A36B0133A363E38F013B85
:102F30009BB2E387EBE7FDF709FB801BA84202D3B6
:102F4000B5F1FF3F27D145B3E38F9BB27BB1236837
:102F50009A6812F0010FEED0DA68A36B1A80A36BA7
:102F60000233A363E38F013B9BB2E387ECE7324676
:102F700029462046FFF7E0FC08B120236365636D16
:102F80006BB900207AE7012078E7012076E703207B
:102F900074E7032072E7032070E703206EE7012047
:102FA0006CE7022070E790F85100704710B4036A94
:102FB000046A24F001040462846924F0F00444EA01
:102FC000021223F00A030B43826103625DF8044B93
:102FD000704710B4036A23F0100303628469036A24
:102FE00024F4704444EA023223F0A00343EA0113BC
:102FF000826103625DF8044B7047836823F07003BD
:10300000194341F00701816070470268D36843F0BB
:103010000103D3600268936803F00703062B03D013
:10302000136843F001031360002070477047704736
:103030007047704710B5044603681A6912F0020F12
:1030400011D0DA6812F0020F0DD06FF002021A618F
:103050000123037703689B6913F0030F70D0FFF718
:10306000E6FF0023237723681A6912F0040F12D0B9
:10307000DA6812F0040F0ED06FF004021A61022316
:10308000237723689B6913F4407F5FD02046FFF7C6
:10309000CEFF0023237723681A6912F0080F12D09D
:1030A000DA6812F0080F0ED06FF008021A610423DC
:1030B00023772368DB6913F0030F4ED02046FFF718
:1030C000B6FF0023237723681A6912F0100F12D07D
:1030D000DA6812F0100F0ED06FF010021A61082398
:1030E00023772368DB6913F4407F3DD02046FFF748
:1030F0009EFF0023237723681A6912F0010F03D083
:10310000DA6812F0010F36D123681A6912F0800FC5
:1031100003D0DA6812F0800F34D123681A6912F0F4
:10312000400F03D0DA6812F0400F32D123681A69D9
:1031300012F0200F03D0DA6812F0200F30D110BD4A
:10314000FFF774FF2046FFF773FF8AE72046FFF77B
:103150006DFF2046FFF76CFF9BE72046FFF766FFF9
:103160002046FFF765FFACE72046FFF75FFF2046EC
:10317000FFF75EFFBDE76FF001021A61204602F023
:10318000B9FCC1E76FF080021A61204600F02AF90D
:10319000C3E76FF040021A612046FFF74AFFC5E718
:1031A0006FF020021A61204600F01BF9C7E700000B
:1031B0000368304A904212D0B0F1804F0FD0A2F590
:1031C0007C4290420BD002F58062904207D002F51B
:1031D0008062904203D002F57842904203D123F0FE
:1031E00070034A681343234A90422AD0B0F1804FBB
:1031F00027D0A2F57C42904223D002F58062904213
:103200001FD002F5806290421BD002F578429042B6
:1032100017D002F57052904213D002F580629042AE
:103220000FD002F5806290420BD0A2F59832904206
:1032300007D002F58062904203D002F5806290428E
:1032400003D123F44073CA68134323F080034A690F
:10325000134303608B68C3620B688362054B98421B
:1032600003D003F58063984201D10B690363012306
:103270004361704700000140A8B110B5044690F8C2
:103280003D305BB1022384F83D30211D2068FFF7FB
:103290008FFF012384F83D30002010BD80F83C30C2
:1032A00003F01CFFEEE70120704710B4846824F49B
:1032B0007F4442EA03230B43234383605DF8044BBE
:1032C000704790F83C30012B66D010B504460123BE
:1032D00080F83C30022380F83D300268936823F484
:1032E0007F4323F0770393600B68402B4AD013D9B8
:1032F000602B3DD01ED9702B28D0B3F5005F30D1A4
:10330000CB684A6889680068FFF7CFFF2268936836
:1033100043F48043936024E0102B06D004D9202B83
:1033200003D0302B01D01CE0DBB919462068FFF731
:1033300064FE16E0502B14D1CA6849680068FFF794
:1033400035FE50212068FFF758FE0AE0CB684A6836
:1033500089680068FFF7A9FF2268936843F0770344
:103360009360012384F83D30002084F83C0010BDB8
:10337000CA6849680068FFF72CFE60212068FFF7E3
:103380003CFEEEE7CA6849680068FFF70FFE40217F
:103390002068FFF732FEE4E70220704790F83C30E7
:1033A000012B1CD070B4012680F83C60022380F809
:1033B0003D3002685568936825F070050C682C4311
:1033C00023F080054B682B4354600268936080F8BB
:1033D0003D60002380F83C30184670BC70470220E6
:1033E0007047704770470268D36823F0C003D3600A
:1033F000202380F8393070470268D36823F4907333
:10340000D3600268536923F001035361202380F8DD
:103410003A3070472DE9F84304460268136923F4F3
:103420004053C1680B4313618368026913434269C7
:103430001343C2691A430168CB6823F4164323F08F
:103440000C031343CB600268536923F44073816912
:103450000B435361C369B3F5004F60D00368B84AAA
:10346000934200F0148102F58062934200F00F81D4
:10347000FFF724F800EB800000EB80006568AD00EA
:10348000B0FBF5F5AF4FA7FB05356D092E01FFF732
:1034900015F800EB800000EB80006568AD00B0FB24
:1034A000F5F9FFF70BF800EB800000EB8000656892
:1034B000AD00B0FBF5F5A7FB05356D094FF06408CD
:1034C00008FB15952D013235A7FB05356D0905F073
:1034D000F0053544FEF7F2FF00EB800000EB8000C2
:1034E0006668B600B0FBF6F6FEF7E8FF00EB80007A
:1034F00000EB800063689B00B0FBF3F0A7FB00309B
:10350000400908FB10684FEA081808F13208A7FBC9
:103510000837C7F3431723682F449F600DE1036802
:10352000874A93425BD002F58062934257D0FEF700
:10353000C5FF00EB800000EB800065686D00B0FB0C
:10354000F5F5804FA7FB05356D092E01FEF7B6FF97
:1035500000EB800000EB800065686D00B0FBF5F9C2
:10356000FEF7ACFF00EB800000EB800065686D00AB
:10357000B0FBF5F5A7FB05356D094FF0640808FBB6
:103580001595ED003235A7FB05356D096D0005F485
:10359000F8753544FEF792FF00EB800000EB8000E9
:1035A00066687600B0FBF6F6FEF788FF00EB800059
:1035B00000EB800063685B00B0FBF3F3A7FB032321
:1035C0005B0908FB13684FEAC80808F13208A7FB3B
:1035D0000837C7F3421723682F449F60ADE0FEF71A
:1035E0007DFF00EB800000EB800065686D00B0FBA4
:1035F000F5F5544FA7FB05356D092E01FEF76EFF5B
:1036000000EB800000EB800065686D00B0FBF5F911
:10361000FEF764FF00EB800000EB800065686D0042
:10362000B0FBF5F5A7FB05356D094FF0640808FB05
:103630001595ED003235A7FB05356D096D0005F4D4
:10364000F8753544FEF74AFF00EB800000EB800080
:1036500066687600B0FBF6F6FEF740FF00EB8000F0
:1036600000EB800063685B00B0FBF3F3A7FB032370
:103670005B0908FB13684FEAC80808F13208A7FB8A
:103680000837C7F3421723682F449F6055E0FEF7C1
:1036900025FF00EB800000EB80006568AD00B0FB0B
:1036A000F5F5284FA7FB05356D092E01FEF716FF2E
:1036B00000EB800000EB80006568AD00B0FBF5F921
:1036C000FEF70CFF00EB800000EB80006568AD00AA
:1036D000B0FBF5F5A7FB05356D094FF0640808FB55
:1036E00015952D013235A7FB05356D0905F0F0055F
:1036F0003544FEF7F3FE00EB800000EB80006668C7
:10370000B600B0FBF6F6FEF7E9FE00EB800000EB3A
:10371000800063689B00B0FBF3F0A7FB003040091A
:1037200008FB10684FEA081808F13208A7FB0837B1
:10373000C7F3431723682F449F60BDE8F88300BF99
:10374000001001401F85EB512DE9F04105460F4661
:1037500016469846069C2B681B6837EA03030CBF85
:1037600001230023B3421DD1B4F1FF3FF3D02CB1AC
:10377000FCF7ECFEA0EB0800A042ECD92A68D36865
:1037800023F4D073D3602A68536923F00103536193
:10379000202385F8393085F83A30002385F8383011
:1037A000032000E00020BDE8F08158B310B50446C6
:1037B00090F839300BB3242384F839302268D36869
:1037C00023F40053D3602046FFF724FE22681369D8
:1037D00023F4904313612268536923F02A03536151
:1037E0002268D36843F40053D3600020E0632023B1
:1037F00084F8393084F83A3010BD80F8383003F05E
:1038000085FCD8E7012070472DE9F04182B01E46C3
:1038100090F83930DBB2202B55D104460D46904646
:10382000002955D0002A55D090F83830012B53D0BC
:10383000012380F838300023C363212380F8393016
:10384000FCF784FE0746A4F82480A4F8268010E044
:1038500000963B46002280212046FFF775FF002896
:103860003CD12B882268C3F3080353602369C3B992
:103870000235E38C9BB2B3B1E38C013B9BB2E38492
:10388000A368B3F5805FE3D000963B460022802119
:103890002046FFF759FF18BB2A7823685A60013584
:1038A000E7E70135E5E700963B4600224021204648
:1038B000FFF74AFF0346A8B9202284F839200022E6
:1038C00084F8382000E00223184602B0BDE8F081F9
:1038D0000123F9E70123F7E70223F5E70323F3E7E1
:1038E0000323F1E70323EFE730B583B090F83A40C4
:1038F000E4B2202C3DD100293ED0002A3ED090F8E1
:103900003830012B3CD013460A460446012180F88A
:103910003810826283850025C563222180F83A1021
:10392000416B1848C863616B17480864616B17489E
:10393000C864616B0D6521680431606BFCF79BFF07
:10394000019523681A6801925A680192019A84F8D5
:103950003850DA6842F48072DA602268536943F0C2
:10396000010353612268536943F0400353612846C1
:1039700000E0022003B030BD0120FBE70120F9E7A1
:103980000220F7E793390008D3390008DF3900082F
:10399000704708B5836B0268126812F4807F13D1F8
:1039A0000022DA851968CA6822F48072CA60196830
:1039B0004A6922F001024A6119684A6922F040020C
:1039C0004A61202283F83A201846FFF7E1FF08BD3C
:1039D000704708B5806BFFF7FBFF08BD704710B557
:1039E000846B23685A6994F83930DBB2212B10D0EC
:1039F00023685A6902F0400294F83A30DBB2222B75
:103A000011D0E36B43F01003E3632046FFF7E6FFBA
:103A100010BD02F08002002AEAD00023E384204691
:103A2000FFF7E1FCE4E7002AEBD00023E385204622
:103A3000FFF7E2FCE5E730B40B68012B1AD002680F
:103A400022F4FF4222F07F024B688C682343CC684B
:103A500023430C6923434C6923438C692343CC697A
:103A600023430C6A2343496A0B431343036000203A
:103A700030BC7047026822F4F842CB690C6A1C43E0
:103A80004B6A1C431443426822F4FF4222F07F0237
:103A90004B688D682B43CD682B430D692B434D69D3
:103AA0002B4389690B43134304604360DFE730B461
:103AB000012A21D0826802F070420B68013B4C68F9
:103AC000013C43EA04138C68013C43EA0423CC68BC
:103AD000013C43EA04330C69013C43EA04434C696A
:103AE000013C43EA04538969013943EA0163134302
:103AF0008360002030BC7047846824F4700424F490
:103B00007044CA68551E4B695A1E120542EA0532B6
:103B10002243C46804F070440B68013B4D68013DCA
:103B200043EA05138D68013D43EA05230D69013D14
:103B300043EA05438969013943EA0163234382600B
:103B4000C360D6E770B582B00446154600230193E2
:103B50000B684A6813438A68013A43EA4213CA6809
:103B600043EA42230193019B0361FCF7EFFC064605
:103B7000A36913F0200F0AD0B5F1FF3FF8D04DB183
:103B8000FCF7E4FC801BA842F2D9032000E00020EF
:103B900002B070BD0320FBE7436943EA4101416184
:103BA00000207047836843F0010383600020704762
:103BB000836823F00103836000207047890141F08E
:103BC0002001016100230133054A934205D80269AF
:103BD00012F0200FF7D1002070470320704700BF7C
:103BE000400D03001023036100230133054A934273
:103BF00005D8026912F0100FF7D10020704703209A
:103C0000704700BF400D0300033292080023934227
:103C10000CD210B400F58054246841F8044B0133F1
:103C20009342F7D308465DF8044B70470846704747
:103C30004269806910407047406900F00100704798
:103C400010B400F58064D0F8003423F00303C0F80A
:103C50000034D0F8003401F003021343C0F80034FC
:103C6000012905D0022907D000205DF8044B7047D8
:103C70004BF680336360F7E741F270736360F3E7FC
:103C800082B000230193D0F840340193019B23F0CC
:103C90002E030193019B13F4805F01D101290CD005
:103CA000019B13F4805F05D021B9019B23F480535D
:103CB000C0F84034002002B07047019B43F48053A9
:103CC000C0F84034ECE700F58060406980B270478E
:103CD00010B400EB411101F5A064D1F80035C3F335
:103CE00081433BB3022B25D0D1F8003543F080430C
:103CF000C1F80035D0F8103413F47F0F49D1D1F852
:103D0000003523F00043C1F80035D1F8003543F009
:103D10000043C1F80035D1F8003523F40043C1F861
:103D2000003500230133B3F57A7F27D82268002AB3
:103D3000F8DB23E0D1F8003543F08043C1F80035CB
:103D4000C36A13F47F0F1DD1D1F8003523F000436F
:103D5000C1F80035D1F8003543F00043C1F8003513
:103D6000D1F8003523F40043C1F8003500230133B6
:103D7000B3F57A7F02D82268002AF8DB00205DF8CC
:103D8000044B7047D1F8003543F00043C1F80035CB
:103D9000F4E7D1F8003543F00043C1F80035EDE712
:103DA00070B505460446FFF703FF10212846FFF7CC
:103DB00005FF2846FFF716FF00220AE004EB421138
:103DC000D1F8003523F0802343F08043C1F800355B
:103DD00001320F2AF2D90020034600E001300F28FB
:103DE00013D804EB401606F5A061D6F8002522F49E
:103DF000004242F04042C6F800250133B3F57A7F15
:103E0000ECD80A68002AF8DBE8E74FF0FF33C5F882
:103E100014346B612846FFF7C5FE002070BD00001A
:103E200030B40C68630A074AA2FB0323DA09064D83
:103E300005FB1242046804EBD31303600A6030BC34
:103E4000704700BF834B040000CA9A3B08B5037853
:103E5000DBB20B2B00D008BDD0F87833002BFAD0A2
:103E60009B699847F7E708B5D0F8BC330133C0F831
:103E7000BC33FFF7EBFF08BD012380F81F33704709
:103E8000002380F81F33704710B5044603788BB9C0
:103E9000012380F81E33D0F8C8330BB104219847B2
:103EA0000121C4F8D4130022D4F8CC0300F04AF85E
:103EB000002010BD90F81F33012BF1D102230370B5
:103EC000EEE710B5044603F03EFA2179204600F0F3
:103ED00027F86179204600F023F8002384F81E3388
:103EE000D4F8C83313B1052120469847204603F083
:103EF00022FA032323700121C4F8D4130022D4F83A
:103F0000CC0300F01FF8002010BD08B50121C0F857
:103F1000D4130022D0F8CC0300F014F8002008BD20
:103F20000A2906D8E03150F82130C3F30E0340F8D7
:103F3000213000207047EFF30580003018BF0120CA
:103F40007047000030B585B004460191002303930B
:103F5000154602B90125FFF7EEFF98B1002303AA29
:103F600001A9204600F09CF9012818D1039BC3B198
:103F70000D4B4FF080521A60BFF34F8FBFF36F8F1E
:103F8000002008E000232A4601A9204600F0CAF8D4
:103F9000012802D1002005B030BDFF20FBE7FF2043
:103FA000F9E70020F7E700BF04ED00E043684B604D
:103FB0009A688A609A685160996008610368013361
:103FC0000360704730B40D68B5F1FF3F02D000F1D7
:103FD000080202E0026904E01A4653681C68AC4219
:103FE000FAD953684B6099608A6051600861036830
:103FF0000133036030BC7047036942688168916097
:104000008268416851605A68824206D0002202618B
:104010001A68013A1A601868704782685A60F5E7B2
:1040200010B5044600F08EFCA26BE36B9A4204D0FC
:10403000002400F0A9FC204610BD0124F9E770B56A
:1040400004461646856B026C5AB903681BB1002002
:104050000135A56370BD406800F008FC0023636073
:10406000F6E76EB9806803F0CBF9226CA3681344BD
:10407000A3606268934219D32368A3600020E7E736
:10408000C06803F0BDF9226C5242E3681344E36058
:1040900021688B4202D263681A44E260022E01D08A
:1040A0000020D5E725B1013D0020D1E70020CFE772
:1040B0000020CDE738B5054600F044FC95F84540B2
:1040C00064B203E000F0BAFB013C64B2002C08DDEE
:1040D0006B6A33B105F1240000F024FB0028F3D013
:1040E000F0E7FF2385F8453000F04EFC00F02AFC95
:1040F00095F8444064B203E000F0A0FB013C64B2D8
:10410000002C08DD2B6933B105F1100000F00AFB2B
:104110000028F3D0F0E7FF2385F8443000F034FCAA
:1041200038BD0000F0B585B0019260B1044699B980
:10413000026C8AB14FF0500383F31188BFF36F8F85
:10414000BFF34F8FFEE74FF0500383F31188BFF3A7
:104150006F8FBFF34F8FFEE7022B0BD1E26B012A6B
:1041600008D04FF0500383F31188BFF36F8FBFF374
:104170004F8FFEE71E460F4600F068FB50B9019BCB
:1041800053B14FF0500383F31188BFF36F8FBFF328
:104190004F8FFEE700253AE0002538E032463946E9
:1041A0002046FFF74CFF636A4BB9A8B13B4B4FF079
:1041B00080521A60BFF34F8FBFF36F8F0CE004F192
:1041C000240000F0AFFA38B1344B4FF080521A603F
:1041D000BFF34F8FBFF36F8F00F0D6FB012005B008
:1041E000F0BD00F0D1FB0020F9E702A800F0DCFAF6
:1041F000012519E0002384F8443021E0002384F8ED
:10420000453023E02046FFF755FF00F095F900F018
:1042100099FBA26BE36B9A42C0D3022EBED0019BE6
:10422000002BDED0002DE0D000F0AEFB00F0F4F863
:1042300000F088FB94F844305BB2B3F1FF3FD9D073
:1042400094F845305BB2B3F1FF3FD7D000F09CFB50
:1042500001A902A800F0B2FAC8B92046FFF7E0FEB3
:104260000028CFD0019904F1100000F041FA204657
:10427000FFF720FF00F060F90028C8D1074B4FF08E
:1042800080521A60BFF34F8FBFF36F8FBFE7204696
:10429000FFF710FF00F050F90020A0E704ED00E068
:1042A0002DE9F84360B1044699B9006C88B14FF02C
:1042B000500383F31188BFF36F8FBFF34F8FFEE777
:1042C0004FF0500383F31188BFF36F8FBFF34F8F0D
:1042D000FEE7022B0BD1E06B012808D04FF0500312
:1042E00083F31188BFF36F8FBFF34F8FFEE71F4635
:1042F0009046894600F0ACFBEFF311864FF0500377
:1043000083F31188BFF36F8FBFF34F8FA26BE36B03
:104310009A4203D3022F01D000200FE094F84550B9
:104320006DB23A4649462046FFF789FEB5F1FF3F98
:1043300008D06B1C5BB284F84530012086F31188ED
:10434000BDE8F883636A5BB104F1240000F0EAF988
:1043500040B1B8F1000F07D00120C8F80000EDE728
:104360000120EBE70120E9E70120E7E7074B9B6A23
:104370001B6833B1054B9A6AD268D2685268DA6218
:104380007047024B4FF0FF32DA627047080100209D
:1043900070B504460E461F4BD3F81451D3F80001F4
:1043A0000430FFF729FE60B91A4BD3F80021D16A17
:1043B000012202FA01F1D3F80C2122EA0102C3F82A
:1043C0000C21B4F1FF3F12D02C44124BD3F8003132
:1043D0005C60A54214D80F4DA86AD5F800110431CD
:1043E000FFF7F0FDEB6AA34212D9EC6210E0002E59
:1043F000EAD00848D0F800110431FFF7D7FD07E0F4
:10440000044BD3F8F800D3F800110431FFF7DAFDBC
:1044100070BD00BF08010020034AD2F818310133F3
:10442000C2F81831704700BF080100202DE9F041A3
:10443000404BD3F81831002B6CD13E4BD3F81451BC
:104440000135C3F81451CDB99B6A1B6843B14FF0D5
:10445000500383F31188BFF36F8FBFF34F8FFEE7D5
:10446000344B9A6AD3F8F8109962C3F8F820D3F85D
:1044700020210132C3F82021FFF778FF2D4BDB6AA2
:10448000AB423DD900242B4AD2F80031DB6A03EB62
:10449000830399000A44136B012B42D9012440E0A5
:1044A0000124244B9B6A1B6863B3224B9B6ADB6825
:1044B000DE6873689D422AD306F104084046FFF780
:1044C0009BFDB36A1BB106F11800FFF795FDF36A77
:1044D00001229A40174FD7F80C110A43C7F80C2154
:1044E00007F1300003EB83039A0041461044FFF7C5
:1044F0005DFDF26AD7F80031DB6A9A42D0D2D0E78C
:104500000024CEE70B4B4FF0FF32DA62BBE7094ADB
:10451000D362B8E7074AD2F824310133C2F8243114
:104520000024044BD3F8283103B101242046BDE810
:10453000F08100BF08010020394BD3F8183143B98E
:104540004FF0500383F31188BFF36F8FBFF34F8F8A
:10455000FEE770B500F0F6F9314BD3F81821013AB7
:10456000C3F81821D3F81831002B54D12C4BD3F8B1
:10457000FC3023B9002400F007FA204670BD002467
:10458000274B5B692BB3264D2B6ADC6804F11800BE
:10459000FFF732FD261D3046FFF72EFDE36A0122AC
:1045A0009A40D5F80C110A43C5F80C2105F13000EA
:1045B00003EB83039A0031461044FFF7F7FCE26AED
:1045C000D5F80031DB6A9A42DAD30122C5F82821F6
:1045D000D6E70CB1FFF7CAFE114BD3F8244164B102
:1045E000FFF724FF18B10E4B0122C3F82821013C2C
:1045F000F6D10B4B0022C3F82421094BD3F8283104
:104600005BB1084B4FF080521A60BFF34F8FBFF37E
:104610006F8F0124AFE70024ADE70024ABE700BFB4
:104620000801002004ED00E0304BD3F8183123B12D
:104630002E4B0122C3F82821704710B52B4B0022C6
:10464000C3F82821D3F800311B6B1A68B2F1A53FDB
:1046500003D15A68B2F1A53F1ED0244BD3F8000114
:10466000D3F80011343100F01FFA204AD2F80C318F
:10467000B3FA83F3DBB2C3F11F0303EB83008100C2
:104680000A44126B8AB94FF0500383F31188BFF3C9
:104690006F8FBFF34F8FFEE79A68B2F1A53FDCD171
:1046A000DB68B3F1A53FD8D1DFE7104A9900CC18F9
:1046B000A0001044446B646844633032194488009D
:1046C00008300244944209D0084903EB83039A005E
:1046D0000A44536BDB68C1F8003110BD61680348C0
:1046E000142202FB03025163EEE700BF0801002021
:1046F00040B94FF0500383F31188BFF36F8FBFF3BE
:104700004F8FFEE710B50C46054BD3F8001118315A
:10471000FFF758FC01212046FFF73AFE10BD00BF0D
:104720000801002038B5C368DC6844B94FF0500375
:1047300083F31188BFF36F8FBFF34F8FFEE704F150
:1047400018052846FFF758FC154BD3F8183103BB62
:10475000251D2846FFF750FCE36A01219940104AC5
:10476000D2F80C010143C2F80C11303203EB830381
:10477000980029461044FFF719FCE26A084BD3F869
:104780000031DB6A9A4209D90120054BC3F82801A0
:1047900038BD29460348FFF709FCEEE70020F7E79C
:1047A000080100201C010020034BD3F820210260E7
:1047B000D3F814314360704708010020F8B550B1B8
:1047C000054689B94FF0500383F31188BFF36F8F0B
:1047D000BFF34F8FFEE74FF0500383F31188BFF311
:1047E0006F8FBFF34F8FFEE70C4600F0ABF8124B14
:1047F000D3F8141168680A1A2368B3F1FF3F17D081
:104800002F680D4ED6F82061B74201D0884211D9E9
:10481000934203D800232360012405E09B1A236000
:104820002846FFF7C1FF002400F0AEF82046F8BD8F
:104830000024F9E70124F7E708010020024B0122D8
:10484000C3F82821704700BF08010020064BD3F8A9
:1048500004313BB1044BD3F818310BB10020704741
:1048600002207047012070470801002000284DD029
:1048700038B50446284AD2F80021824208D04FF0C9
:10488000500383F31188BFF36F8FBFF34F8FFEE7A1
:10489000826C42B94FF0500383F31188BFF36F8FDE
:1048A000BFF34F8FFEE7013A8264C06A616C8842B1
:1048B0002ED07ABB251D2846FFF79EFB78B9E26A09
:1048C0001549142303FB02131B6B43B9012303FA9D
:1048D00002F2D1F80C3123EA0203C1F80C31626C08
:1048E000E262C2F10703A361012404FA02F10A4B58
:1048F000D3F80C010143C3F80C11303329461420BE
:1049000000FB0230FFF752FB204638BD0020704705
:104910000020FAE70020F8E708010020000000006E
:10492000074B19680868B0E8F04F80F30988BFF3B7
:104930006F8F4FF0000080F311887047AFF3008055
:10494000080200204FF0500383F31188BFF36F8FEC
:10495000BFF34F8F0A4A136801331360012B00D055
:104960007047084B1B6813F0FF0FF9D04FF050034E
:1049700083F31188BFF36F8FBFF34F8FFEE700BF44
:104980000800002004ED00E0094B1B6843B94FF01C
:10499000500383F31188BFF36F8FBFF34F8FFEE790
:1049A000013B034A13600BB983F31188704700BFC2
:1049B00008000020000000000000000000000000CF
:1049C000EFF30980BFF36F8F154B1A681EF0100FBD
:1049D00008BF20ED108A20E9F04F10602DE9090092
:1049E0004FF0500080F31188BFF34F8FBFF36F8FEC
:1049F000FFF71AFE4FF0000080F3118809BC196818
:104A00000868B0E8F04F1EF0100F08BFB0EC108A35
:104A100080F30988BFF36F8F704700BFAFF300804A
:104A20000802002008B54FF0500383F31188BFF34C
:104A30006F8FBFF34F8FFFF7F9FC18B1034B4FF0A7
:104A400080521A60002383F3118808BD04ED00E052
:104A5000EFF305830F2B0FD9104A9B5CDBB2104A92
:104A600012789A4208D94FF0500383F31188BFF3AC
:104A70006F8FBFF34F8FFEE70A4B1B6803F4E063B1
:104A8000074A5268934208D94FF0500383F31188C4
:104A9000BFF36F8FBFF34F8FFEE77047F0E300E087
:104AA000340200200CED00E07047F02070474FF416
:104AB000A070704708B501F0FDFB08BD08B52920BE
:104AC000FFF7F8FF08BD08B52820FFF7F3FF08BD82
:104AD00008B501F0D3FB08BD08B501F069FBCA2099
:104AE000FFF7E8FFC320FFF7F3FF0820FFF7F0FF11
:104AF0005020FFF7EDFFCF20FFF7DCFF0020FFF78E
:104B0000E7FFC120FFF7E4FF3020FFF7E1FFED20D2
:104B1000FFF7D0FF6420FFF7DBFF0320FFF7D8FF8C
:104B20001220FFF7D5FF8120FFF7D2FFE820FFF723
:104B3000C1FF8520FFF7CCFF0020FFF7C9FF7820D9
:104B4000FFF7C6FFCB20FFF7B5FF3920FFF7C0FF07
:104B50002C20FFF7BDFF0020FFF7BAFF3420FFF73E
:104B6000B7FF0220FFF7B4FFF720FFF7A3FF2020D5
:104B7000FFF7AEFFEA20FFF79DFF0020FFF7A8FF39
:104B80000020FFF7A5FFB120FFF794FF0020FFF7FB
:104B90009FFF1B20FFF79CFFB620FFF78BFF0A202B
:104BA000FFF796FFA220FFF793FFC020FFF782FFD9
:104BB0001020FFF78DFFC120FFF77CFF1020FFF7CB
:104BC00087FFC520FFF776FF4520FFF781FF1520FF
:104BD000FFF77EFFC720FFF76DFF9020FFF778FFFC
:104BE0003620FFF767FFC820FFF772FFF220FFF7BC
:104BF00061FF0020FFF76CFFB020FFF75BFFC220D2
:104C0000FFF766FFB620FFF755FF0A20FFF760FFAA
:104C1000A720FFF75DFF2720FFF75AFF0420FFF7CB
:104C200057FF2A20FFF746FF0020FFF751FF002023
:104C3000FFF74EFF0020FFF74BFFEF20FFF748FF85
:104C40002B20FFF737FF0020FFF742FF0020FFF780
:104C50003FFF0120FFF73CFF3F20FFF739FFF62021
:104C6000FFF728FF0120FFF733FF0020FFF730FF99
:104C70000620FFF72DFF2C20FFF71CFFC82001F0B6
:104C80005DFB2620FFF716FF0120FFF721FFE02044
:104C9000FFF710FF0F20FFF71BFF2920FFF718FF7A
:104CA0002420FFF715FF0C20FFF712FF0E20FFF75F
:104CB0000FFF0920FFF70CFF4E20FFF709FF7820B8
:104CC000FFF706FF3C20FFF703FF0920FFF700FF77
:104CD0001320FFF7FDFE0520FFF7FAFE1720FFF770
:104CE000F7FE1120FFF7F4FE0020FFF7F1FEE120B0
:104CF000FFF7E0FE0020FFF7EBFE1620FFF7E8FECF
:104D00001B20FFF7E5FE0420FFF7E2FE1120FFF76E
:104D1000DFFE0720FFF7DCFE3120FFF7D9FE33204E
:104D2000FFF7D6FE4220FFF7D3FE0520FFF7D0FEA7
:104D30000C20FFF7CDFE0A20FFF7CAFE2820FFF760
:104D4000C7FE2F20FFF7C4FE0F20FFF7C1FE112082
:104D5000FFF7B0FEC82001F0F1FA2920FFF7AAFE04
:104D60002C20FFF7A7FE08BD08B501F0BFFA08BD6B
:104D700008B501F01DFA0321D320FFF7F5FF80B23B
:104D800008BD43680B7043681B0A4B70C3888B7067
:104D9000C379CB7083680B7183681B0A4B7143899D
:104DA0008B71C37ACB71082070470B7843604A78C7
:104DB00043EA022343608A7843EA02434360CA78A5
:104DC00043EA026343600B7983604A7943EA022332
:104DD00083608A7943EA02438360CA7943EA0263C3
:104DE000836008207047000000487047C0B4000886
:104DF000004870479CB4000870B40B7883804A78F0
:104E000043EA0223838000242346032B06D8CA18D2
:104E10009278DD00AA4014430133F6E70622A31D71
:104E2000934204D9531E8D5CCD540132F7E705340B
:104E300000220A554C1D84601546032A06D8CC185A
:104E4000A45CD600B44025430132F6E71A1D14468F
:104E50005319A34204D9631E0E5DCE540134F7E703
:104E60005D1E00244C55013A0A44C2602546224684
:104E7000032A06D8CC18A45CD600B44025430132DE
:104E8000F6E704331A465C19944204D9541E8E5C2A
:104E90000E550132F7E7621E00258D54013B0B448D
:104EA00003610B5D621C8A5C43EA0223A21C8A5CDC
:104EB00043EA0243E21C8A5C43EA02634361201D29
:104EC00070BC70470048704744B400080048704701
:104ED00020B4000870B406460B7803710022134614
:104EE000032B07D85D1C4C5DDB0004FA03F31A4367
:104EF0002B46F5E70523501D984204D95C1EC85C7B
:104F000008550133F7E7043200238B540431B160B4
:104F100070BC7047004870470CB4000800487047E8
:104F2000E8B300080048704728760008004870473A
:104F3000C4B3000870B4064600221346032B05D8FC
:104F4000CC5CDD00AC4022430133F7E70423101DA5
:104F5000984204D95C1ECD5C0D550133F7E703324E
:104F600000238B540331716070BC70470048704758
:104F7000F4B4000800487047D0B40008012800D0FD
:104F800070474FF6FF739942FAD1294A294B1360B3
:104F9000002382F8F4342849C2F80815C2F80C3509
:104FA000C2F81435C2F81835C2F82035C2F82435D5
:104FB000C2F82C35182B07D803F583711C4A002042
:104FC00042F821000133F5E70023182B08D803F538
:104FD0008F71174A02EB8102002151600133F4E71F
:104FE0000023B3F5007F05D2114A1A44002111763F
:104FF0000133F6E70023B3F5007F06D20C4A1A44CA
:10500000002182F818120133F5E7094B00225A619A
:105010000A49C3F830150A49C3F834150949C3F8D9
:10502000381503F5A661C3F83C15C3F84825A7E772
:105030003C020020B8B3000888B30008A0B3000801
:1050400098B4000804B5000890F8F4047047000014
:105050002DE9F0478EB0002409940A940B940C9427
:105060000D9401945D4B1A6B42F004021A631A6BA3
:1050700002F004020192019A02941A6B42F020029B
:105080001A631A6B02F020020292029A03941A6BBE
:1050900042F080021A631A6B02F080020392039AB4
:1050A00004941A6B42F001021A631A6B02F00102B7
:1050B0000492049A05941A6B42F002021A631A6B66
:1050C00002F002020592059A06941A6B42F0400221
:1050D0001A631A6B02F040020692069A07941A6B42
:1050E00042F010021A631A6B02F010020792079A3C
:1050F00008941A6B42F008021A631B6B03F0080352
:105100000893089B364F224616213846FBF7ACFF22
:10511000DFF8D880224680214046FBF7A5FF314EBC
:1051200022464FF440513046FBF79EFFDFF8C09017
:1051300022464FF4C0414846FBF796FF16230993D9
:1051400001250A950B940C9409A93846FBF7FEFD3E
:1051500048F207030993DFF89CA0CDF828A00B9430
:1051600009A94046FBF7F2FD802309930A950B94A9
:105170000C9409A94046FBF7E9FD20230993CDF8DB
:1051800028A00B9409A93846FBF7E0FD04230993F6
:105190000A940B9409A91448FBF7D8FD4FF4006357
:1051A00009930A940B9409A93046FBF7CFFD4FF4FD
:1051B000405309930A950B940C9409A93046FBF7C8
:1051C000C5FD4FF4C04309930A950B940C9409A9AB
:1051D0004846FBF7BBFD0EB0BDE8F0870038024043
:1051E00000080240000C024000040240000002409F
:1051F000001802400000121008B50448044BC0F823
:105200004C3500F24C50FBF70FFA08BD3C02002071
:105210000030024010B50E4C0E4BC4F8543500233C
:10522000C4F85835C4F85C35C4F86035C4F87C352A
:10523000C4F88035C4F88435C4F8883504F2545471
:105240002046FBF798FB01212046FBF71DFD10BD12
:105250003C02002000B0024000B589B01A481B4B48
:10526000C0F894350123C0F898350023C0F89C3568
:105270000421C0F8A0151022C0F8A4254022C0F8CF
:10528000A8254FF4C072C0F8AC25C0F8B0354FF473
:105290000062C0F8B425C0F8B8354FF40053C0F828
:1052A000BC35022301930722029203910492032248
:1052B000059206930793694400F29450FDF770FA43
:1052C00009B05DF804FB00BF3C020020400100A0D3
:1052D00038B5134C134BC4F8C835134BC4F8CC3550
:1052E0000025C4F8D055C4F8D4554FF48043C4F811
:1052F000D835C4F8DC55C4F8E055C4F8E455C4F812
:10530000E85504F5B9642046FCF7E0FA2946204642
:10531000FCF7ACFB29462046FCF7CAFB38BD00BFB2
:105320003C020020005C0040A086010030B58FB038
:105330003422002101A802F06EF82B4C2B4BC4F84C
:105340001C360025C4F82056C4F82456C4F8285644
:10535000C4F82C560923C4F830360123C4F8343677
:105360001D23C4F838360323C4F83C3640F20D132D
:10537000C4F8403640F24313C4F8443640F21713E1
:10538000C4F8483640F24713C4F84C3684F85056F7
:1053900084F8515684F8525604F21C642046FCF7F7
:1053A00071FC0195F022029203954FF4A0730493CF
:1053B00002210591FF21069107954FF4C0610891E4
:1053C000072109914FF050410A910B920C938DF8EF
:1053D00034508DF835508DF836502A4601A92046B4
:1053E000FCF73AFD0FB030BD3C02002000680140E0
:1053F00008B51348134BC0F8C4364FF48273C0F895
:10540000C8360023C0F8CC36C0F8D036C0F8D43641
:10541000C0F8D8364FF40072C0F8DC261822C0F865
:10542000E026C0F8E436C0F8E836C0F8EC360A23C7
:10543000C0F8F03600F2C460FDF7CAFA08BD00BF3C
:105440003C0200200050014030B587B00024029497
:1054500003940494059400940194124D124BC5F8E2
:105460001C37C5F82047C5F82447C5F82847C5F8B4
:105470002C47C5F83047C5F8344705F21C75284657
:10548000FDF7FAFE4FF48053029302A92846FDF778
:1054900018FF0094019469462846FDF77FFF07B086
:1054A00030BD00BF3C0200200000014070B582B05A
:1054B00000250195204B1A6B42F480021A631B6B86
:1054C00003F480030193019B1C4C1D4BC4F85C3713
:1054D0004FF00063C4F86037C4F86457C4F86857E5
:1054E0004FF48063C4F86C37C4F87057C4F874572D
:1054F000C4F87857C4F87C57C4F8805704F25C7637
:105500003046FBF71FF9C4F8F06704F2BC73C4F827
:1055100094372A4605213A20FBF744F83A20FBF756
:1055200075F82A4605214620FBF73CF84620FBF794
:105530006DF802B070BD00BF003802403C02002090
:105540004064024010B51148114BC0F8BC374FF40D
:10555000E133C0F8C0370024C0F8C447C0F8C847DA
:10556000C0F8CC470C23C0F8D037C0F8D447C0F8F7
:10557000D84700F2BC70FEF718F9224621462520D4
:10558000FBF710F82520FBF741F810BD3C02002086
:1055900000100140F8B506460D4683880B708388DD
:1055A0001B0A4B708068FAF7A3FF04460023032B05
:1055B00006D8DA0024FA02F2991C6A540133F6E79D
:1055C0002246B168A81D01F01BFF0634F068FAF707
:1055D0008FFF07460023032B06D8DA0027FA02F2D2
:1055E000E1186A540133F6E704343A46F1682819A1
:1055F00001F006FF3C443069FAF77AFF07460023C2
:10560000032B06D8DA0027FA02F2E1186A540133B4
:10561000F6E704343A463169281901F0F1FEE01941
:1056200073692B54190A421CA954190C821CA954E1
:105630001B0EC21CAB540430F8BD70B506460D46B7
:1056400003790B708068FAF753FF04460023032B9D
:1056500005D8DA0024FA02F20133EA54F7E72246C9
:10566000B168681D01F0CCFE601D70BD2DE9F843E6
:1056700006460D4643680B7043681B0A4B70C3888F
:105680008B70C379CB7000220424736893420FD9C6
:10569000F36853F822302B55180A611C6854180C13
:1056A000A11C68541B0EE11C6B5404340132ECE75E
:1056B00033692B5533691B0A621CAB54728AA31CD5
:1056C000EA54F27CE31CEA54043400223369934226
:1056D0000FD9B36953F822302B55180A611C68544E
:1056E000180CA11C68541B0EE11C6B5404340132CD
:1056F000ECE7F3692B55F3691B0A621CAB54F28B80
:10570000A31CEA54F27FE31CEA5404344FF000086F
:105710000AE00434736A3A4653F80910281901F074
:105720006FFE3C4408F10108F369434512D9736ADE
:105730004FEA880953F82800FAF7DAFE07462046B0
:105740000023032BE5D8DA0027FA02F2C1186A54C5
:105750000133F6E72046BDE8F88370B506460D46EE
:105760004068FAF7C5FE04460023032B05D8DA008B
:1057700024FA02F2EA540133F7E722467168281D41
:1057800001F03EFE201D70BDF8B505460C460E78B2
:105790004B7846EA03268B7846EA0346CB7846EAFE
:1057A00003664368B34219D36E60002204266B6817
:1057B000934219D9A35D711C615C43EA0123B11CBA
:1057C000615C43EA0143F11C615C43EA0163AB6045
:1057D0000436E96841F822300132E8E7B100C068D8
:1057E00001F0CAFEE860DFE7A75D731CE35C47EAEF
:1057F0000327B31CE35C47EA0347F31CE35C47EA77
:10580000036704362B69BB4218D32F6100222B6932
:10581000934219D9A35D711C615C43EA0123B11C59
:10582000615C43EA0143F11C615C43EA01636B6123
:105830000436A96941F822300132E8E7B900A869C5
:1058400001F09AFEA861E0E7A75D731CE35C47EAFC
:105850000327B31CE35C47EA0347F31CE35C47EA16
:1058600003670436EB69BB4202D3EF6100271AE0FD
:10587000B900686A01F080FE6862F6E7311D0B46E8
:105880008818984204D9581EE65C26540133F7E77D
:10589000431E0022E25401392144296206466B6A04
:1058A00043F827100137EB69BB420CD9B4460022FC
:1058B0001346032BE2D804EB0C01C95CD8008140ED
:1058C0000A430133F5E73046F8BD000030B585B036
:1058D000632903DD90F8F434002B53D00D460446C1
:1058E00013681B6800F21F2110469847FF2384F8B5
:1058F0001832FE2384F81932C3B284F81A32C0F386
:10590000072284F81B221344DBB2DB4384F81C32E9
:1059100084F81D5245F3072184F81E120523002246
:10592000C11D994205DDE11891F818120A440133AE
:10593000F6E75342D2B2DBB258BF5A4200F1080533
:10594000D243214481F81822B5F5007F0ADC4FF4D8
:105950007A73AAB204F506710B48FDF755FF284685
:1059600005B030BD094B019303238DF80830084B77
:10597000039323681B6801AA0721204698474FF02C
:10598000FF35ECE70025EAE7F809002070B30008CE
:1059900060B4000830B5A1B030252A46002114A813
:1059A00001F039FD00240F94109411941294139473
:1059B0002A46214603A801F02EFD0194204B1A6CC3
:1059C00042F080521A641B6C03F080530193019BD8
:1059D00002941C4A136823F4404343F48043136049
:1059E000136803F440430293029B012314934FF482
:1059F0008033159302251A954FF480031B930423DB
:105A00001C9348231D931E9503231F9314A8FCF792
:105A10006BFA0F230F93109511944FF48053129348
:105A2000139429460FA8FCF797FC0823039332230D
:105A3000079309950C9403A8FCF77EFD21B030BDB7
:105A4000003802400070004000B585B0FAF758FDFC
:105A5000FFF7A0FFFFF7FCFAFFF7CEFBFFF7DAFB3B
:105A6000FFF7FAFBFFF734FCFFF760FCFFF7C0FC21
:105A7000FFF7EAFCFFF71AFD00F03CFE4FF0504143
:105A8000002000F09DFC4FF05041012000F098FCF8
:105A9000012000F0DBFC4FF0FF3000F0FBFC00F0D9
:105AA0007BFD124B4FF06132C3F80228104A92E896
:105AB0000300C3F8FC07A3F80018FFF743FD40F606
:105AC000B830FAF749FD012000F03AFD022000F05D
:105AD00037FD4FF0FF3000F0DDFC4FF07F4000F06D
