:020000040800F2
:10000000000003205D620008710A0008750A0008FC
:10001000790A00087D0A0008810A00080000000033
:100020000000000000000000000000001160000857
:10003000850A000800000000A160000805610008B2
:10004000AD620008AD620008AD620008AD62000854
:10005000AD620008AD620008AD620008AD62000844
:10006000AD620008AD620008AD620008AD62000834
:10007000AD620008AD620008AD620008AD62000824
:10008000AD620008AD620008AD620008AD62000814
:10009000AD620008AD620008AD620008AD62000804
:1000A000AD620008AD620008AD620008AD620008F4
:1000B000AD620008AD620008AD620008AD620008E4
:1000C000AD620008AD620008AD620008AD620008D4
:1000D000AD620008AD620008AD620008AD620008C4
:1000E000AD620008AD620008AD620008AD620008B4
:1000F000AD620008AD620008AD620008AD620008A4
:10010000AD620008AD620008AD620008AD62000893
:10011000AD620008AD620008890A0008AD620008FF
:10012000AD620008AD620008AD620008AD62000873
:10013000AD620008AD620008AD620008AD62000863
:10014000AD620008AD620008AD620008AD62000853
:10015000AD620008AD620008AD620008AD62000843
:10016000AD620008AD620008AD620008AD62000833
:10017000AD620008950A0008AD62000800000000AA
:10018000AD620008AD620008AD620008AD62000813
:10019000AD620008AD620008AD620008AD62000803
:0C01A000A10A0008AD620008AD0A0008CA
:1001B00010B5054C237833B9044B13B10448AFF3A1
:1001C00000800123237010BD5800002000000000B3
:1001D0002463000808B5034B1BB103490348AFF380
:1001E000008008BD000000005C00002024630008BF
:1001F00053B94AB9002908BF00281CBF4FF0FF318E
:100200004FF0FF3000F074B9ADF1080C6DE904CE89
:1002100000F006F8DDF804E0DDE9022304B07047E1
:100220002DE9F047089D04468E46002B4DD18A42A9
:10023000944669D9B2FA82F252B101FA02F3C2F1DC
:10024000200120FA01F10CFA02FC41EA030E94406D
:100250004FEA1C48210CBEFBF8F61FFA8CF708FB8E
:1002600016E341EA034306FB07F199420AD91CEB66
:10027000030306F1FF3080F01F81994240F21C8198
:10028000023E63445B1AA4B2B3FBF8F008FB1033E0
:1002900044EA034400FB07F7A7420AD91CEB040415
:1002A00000F1FF3380F00A81A74240F207816444E5
:1002B000023840EA0640E41B00261DB1D44000236A
:1002C000C5E900433146BDE8F0878B4209D9002DCE
:1002D00000F0EF800026C5E9000130463146BDE858
:1002E000F087B3FA83F6002E4AD18B4202D38242C2
:1002F00000F2F980841A61EB030301209E46002D71
:10030000E0D0C5E9004EDDE702B9FFDEB2FA82F2C5
:10031000002A40F09280A1EB0C014FEA1C471FFA23
:100320008CFE0126200CB1FBF7F307FB131140EA0A
:1003300001410EFB03F0884208D91CEB010103F1D7
:10034000FF3802D2884200F2CB804346091AA4B299
:10035000B1FBF7F007FB101144EA01440EFB00FE6D
:10036000A64508D91CEB040400F1FF3102D2A645D2
:1003700000F2BB800846A4EB0E0440EA03409CE771
:10038000C6F12007B34022FA07FC4CEA030C20FA1E
:1003900007F401FA06F31C43F9404FEA1C4900FA3E
:1003A00006F3B1FBF9F8200C1FFA8CFE09FB1811BB
:1003B00040EA014108FB0EF0884202FA06F20BD92E
:1003C0001CEB010108F1FF3A80F08880884240F27E
:1003D0008580A8F102086144091AA4B2B1FBF9F0C2
:1003E00009FB101144EA014100FB0EFE8E4508D9BD
:1003F0001CEB010100F1FF346CD28E456AD9023842
:10040000614440EA0840A0FB0294A1EB0E01A14226
:10041000C846A64656D353D05DB1B3EB080261EB94
:100420000E0101FA07F722FA06F3F1401F43C5E96E
:10043000007100263146BDE8F087C2F12003D840A4
:100440000CFA02FC21FA03F3914001434FEA1C47E6
:100450001FFA8CFEB3FBF7F007FB10360B0C43EAD8
:10046000064300FB0EF69E4204FA02F408D91CEB88
:10047000030300F1FF382FD29E422DD90238634486
:100480009B1B89B2B3FBF7F607FB163341EA034126
:1004900006FB0EF38B4208D91CEB010106F1FF3875
:1004A00016D28B4214D9023E6144C91A46EA00466C
:1004B00038E72E46284605E70646E3E61846F8E6FE
:1004C0004B45A9D2B9EB020864EB0C0E0138A3E747
:1004D0004646EAE7204694E74046D1E7D0467BE728
:1004E000023B614432E7304609E76444023842E7A0
:1004F000704700BF10B5002394B0CDE90A33CDE9B1
:100500000C33CDE90333CDE905332149019307933A
:10051000086C204A40F080500864096C01F080515A
:10052000019101990293136823F4404343F48043FB
:100530001360136803F44043012202934FF48033A5
:10054000CDE9082304230224029810934FF480017C
:100550004822032308A8CDE90E41CDE911241393C5
:1005600002F0B4FB08B172B6FEE70F210346CDE9F5
:1005700003144FF4805203A82146CDE905320793B6
:1005800002F0BCFD08B172B6FEE714B010BD00BFAA
:1005900000380240007000402DE9F041002498B07E
:1005A00003F0EEFAFFF7A6FFCDE90B44CDE90D44C9
:1005B000A14B01940F941A6BA04842F004021A63F5
:1005C0001A6B02F004020192019A02941A6B42F033
:1005D00020021A631A6B02F020020292029A03941C
:1005E0001A6B42F080021A631A6B02F080020392C7
:1005F000039A04941A6B42F001021A631A6B02F018
:1006000001020492049A05941A6B42F002021A63E2
:100610001A6B02F002020592059A06941A6B42F0D8
:1006200040021A631A6B02F040020692069A07947F
:100630001A6B42F010021A631A6B02F01002079252
:10064000079A08941A6B42F008021A631B6B03F0B6
:100650000803162108932246089B03F057F97848AF
:100660002246802103F052F9764822464FF4405149
:1006700003F04CF9224674484FF4C04103F046F9A8
:10068000012516236D480BA94FF49016CDE90B35C3
:10069000CDE90D4402F03EFF48F2070368480D948F
:1006A0000BA9CDE90B3602F035FF802364480B938C
:1006B0000BA9CDE90C540E9402F02CFF20235F48C7
:1006C0000B930BA9CDE90C6402F024FF04265F48CC
:1006D0000D940BA9CDE90B644FF4006702F01AFFEB
:1006E00058480D940BA9CDE90B7402F013FF4FF499
:1006F000405354480B930BA9CDE90C540E9402F0CF
:1007000009FF4FF4C04350480B930BA9CDE90C549B
:100710000E9402F0FFFE4E484E4B036003F06EFA5B
:1007200008B172B6FEE74C4C4C4BE060C4E90100E6
:10073000C4E90A00C4E90C002046236003F0B8FABB
:1007400008B172B6FEE72046294603F019FC08B14D
:1007500072B6FEE7424B0D964FF40052C3E9090210
:100760001F6202220727CDE90B27CDE910223D4A5F
:100770001A6010244022C3E90150C3E90442D86141
:100780004FF4C0724FF003080BA91846DE600E97B5
:100790009A61CDF83C8003F005FDA0B9324C334A94
:1007A000334BC4E90200C4E90500C4E90700C4E909
:1007B000002320464FF48043236103F041FD0146AE
:1007C00018B172B6FEE772B6FEE7204603F000FEEF
:1007D000014608B172B6FEE7204603F019FE064650
:1007E00008B172B6FEE7234C342201460BA805F08F
:1007F00091FD214B2360092363611D23E36140F2D6
:100800000D1C40F24313C4E909C340F2171E40F225
:100810004713A6862046C4E90166C4E90366C4E915
:100820000BE3C4F82080A56184F8366003F0A0FED5
:10083000024618B372B6FEE70038024000080240D4
:1008400000000240000C0240001802400004024078
:1008500074000020003002407C00002000B0024004
:10086000B8010020400100A0BC000020005C004056
:10087000A08601001001002000680140FF231093B2
:100880004FF4C063CDE911234FF05043CDE913730A
:10089000F0230C93159320464FF4A0730BA90B92F1
:1008A0000D92ADF85C208DF85E200F950E93169397
:1008B00003F036FF024608B172B6FEE75B4B5C48B8
:1008C0004FF48271C3E900014FF400701821C3E9AD
:1008D00006010A211846C3E90222C3E90422C3E93A
:1008E0000822C3E90A2104F035F808B172B6FEE720
:1008F000504C514A226000234FF6FF722046CDE94A
:100900000B33CDE90D33CDE90933C4E90133C4E933
:100910000433E260A36104F01FFD08B172B6FEE784
:100920004FF480530BA920460B9304F047FB03467A
:1009300008B172B6FEE709A92046CDE9093304F0F3
:1009400039FD024608B172B6FEE73C4B3C484FF415
:10095000E131C3E900010C211846C3E90222C3E9D1
:100960000421C3E9062204F0D9FD044608B172B699
:10097000FEE701F053FA01F0EBF84FF0504101208F
:1009800000F094FD012000F0D9FD01F037F84FF49C
:10099000FA7003F021F92B4BADF839400FCB0BADBA
:1009A00007C5294FDFF8A880284E2B702FE000F0F4
:1009B000D7FD012000F0F0FF4FF0FF2000F0C4FD54
:1009C0000BA9012000F068FE304600F0BDFD1922A1
:1009D0008C21642000F0A2FE6FF0FF0000F0B4FD57
:1009E0007822C821282000F06DFE7822DC21282002
:1009F00000F068FE7822E121282000F063FE013437
:100A00004FF47A7003F0E8F80A2C08BF0024E307DB
:100A10003846CCD500F0A4FD012000F0BDFF4FF01A
:100A2000FF2000F091FD4146CBE700BFEC01002024
:100A30000050014044020020000001408C020020D0
:100A4000001001403C630008FF0000FF0000FFFFB2
:100A50004C630008034B02689A4200D0704703F0D1
:100A6000A9B800BF0010004072B6FEE7704700BF93
:100A7000FEE700BFFEE700BFFEE700BFFEE700BFE6
:100A8000FEE700BF704700BF014804F04FBB00BF46
:100A9000D4020020014801F087BB00BF7005002090
:100AA000014803F0DBBD00BF10010020014803F046
:100AB000D3B900BF7C00002082B00E4B0022009210
:100AC000596C41F480415964586C00F480400090A6
:100AD00000980192186C40F0805018641B6C03F071
:100AE00080530193019B0F216FF0010002B002F0CF
:100AF000FBBF00BF003802400B4B02689A4200D097
:100B0000704782B000220192D3F8302842F480521C
:100B1000C3F8302803F500631B6B03F48053019383
:100B2000019B02B0704700BF003002400E4B0268CC
:100B30009A4200D0704700B583B0A3F5F04300227D
:100B40000192196B41F4000119631B6B03F400035C
:100B500001935A200521019B02F0C6FF5A2003B0E1
:100B60005DF804EB02F0FEBF00B002402DE9F04159
:100B7000254B026888B000249A42CDE90344CDE9B0
:100B80000544079402D008B0BDE8F0811F4D0094E1
:100B90002B6B1F4843F004032B632B6B03F0040300
:100BA0000093009B01942B6B43F001032B632B6B91
:100BB00003F00103019312264FF400734FF0010874
:100BC000042703A9019A03930496CDF8148007978C
:100BD00002F0A0FC4FF480730E48039303A9CDE903
:100BE00006470496CDF8148002F094FC02942B6C16
:100BF00043F400032B642B6C03F400030293029B69
:100C000008B0BDE8F08100BF005C00400038024041
:100C10000008024000000240F0B5302299B00446BE
:100C200000210DEB0200CDE90711CDE909110B916F
:100C300005F070FB604B22689A4201D019B0F0BDFC
:100C400032230821052210930CA84FF480330C9115
:100C50001292159302F032FB002840F0A980002484
:100C6000564B00945A6C564842F080625A645A6C53
:100C700002F080620092009A01941A6B42F0200206
:100C80001A631A6B02F020020192019A02941A6B05
:100C900042F001021A631A6B02F001020292029AF8
:100CA00003941A6B02252A431A631A6B2A40039293
:100CB000039A04941A6B42F040021A631A6B02F012
:100CC00040020492049A05941A6B42F004021A63DB
:100CD0001A6B02F004020592059A06941A6B42F010
:100CE00008021A631B6B089503F008030E2606938F
:100CF00007A94FF480630793CDE90944069B0B963F
:100D000002F008FC41F6580307A92E48079309276B
:100D1000CDE90854CDE90A4602F0FCFB032307A9FC
:100D200029480793CDE90854CDE90A4702F0F2FBC0
:100D300007A94FF4706324480793CDE90854CDE91F
:100D40000A4602F0E7FB07A94FF40C631F4807931C
:100D5000CDE90854CDE90A4602F0DCFB07A94FF4BF
:100D600098631B480793CDE90854CDE90A4602F081
:100D7000D1FB07A9482317480793CDE908540B96E0
:100D80000A9402F0C7FB4FF4A05307A90F4807933A
:100D9000CDE90854CDE90A4702F0BCFB2246052103
:100DA000582002F0A1FE582002F0DCFE19B0F0BD80
:100DB000FFF75AFE53E700BF0068014000380240C9
:100DC00000140240000002400004024000180240EB
:100DD00000080240000C024030B5184A016889B092
:100DE00000239142CDE90333CDE90533079301D0C8
:100DF00009B030BD02F568420193516C41F4801195
:100E00005164506C00F48010019001980293136BB0
:100E10000B4843F020031363136B03F0200302938A
:100E20004FF46075052303A90224029A03950494E4
:100E3000079302F06FFB09B030BD00BF00500140C6
:100E400000140240074B02689A4200D07047064ADD
:100E50000648536C23F480134FF46071536402F01E
:100E600095BC00BF00500140003802400014024011
:100E70000A4B02689A4200D0704782B003F59C3357
:100E8000002201925A6C42F001025A645B6C03F03A
:100E900001030193019B02B0704700BF00000140B5
:100EA00030B5194A016889B000239142CDE9033376
:100EB000CDE90533079301D009B030BD02F5943276
:100EC0000193516C41F010015164506C00F010001E
:100ED000019001980293136B0C4843F001031363D4
:100EE000136B03F001030293032207234FF4C06541
:100EF00003A902240395CDE90623029D049402F080
:100F000009FB09B030BD00BF0010014000000240E5
:100F10002DE9F0412C4B86B01C6800220392002C76
:100F20004FD12A4A00944FF00108C3F80080936B18
:100F3000274843EA08039363936B03EA08030227F5
:100F40004FF63F0203260C25009301A90192009B56
:100F50000297CDE9046502F0DDFA1E48059501A966
:100F6000CDE90187CDE9034602F0D4FA48F2331304
:100F70001948019301A9CDE90274CDE9046502F095
:100F8000C9FA4FF683731548019301A9CDE902749C
:100F9000CDE9046502F0BEFA4CF2037310480193E8
:100FA00001A9CDE90274CDE9046502F0B3FA60232A
:100FB0000C48029701A9CDE903460595019302F07B
:100FC000A9FA06B0BDE8F081D00200200038024046
:100FD00000140240000802400018024000100240C5
:100FE000000C02400004024030B5014689B00022E6
:100FF000362002F079FD362002F0B4FD0025164BB4
:1010000002951A6C154C42F010021A641B6C03F026
:10101000100301A903A80293029B02F02DF902F02C
:101020000BF90F4A0F4921604300A2FB03239B0CDD
:10103000013B40F2E7322046C4E903256360A56026
:1010400004F08AF910B1012009B030BD204603F048
:1010500079FF09B030BD00BF00380240D402002043
:1010600083DE1B430010004030B589B01E4C1F4A80
:101070001F49216000230193516C41F48011516498
:10108000516C01F48011019118200199E0610293E3
:10109000116BA36041F020011163126B636102F0D8
:1010A00020020292C4E908332361A362E3604FF493
:1010B00060724FF4827363600392052301220299E8
:1010C0000692079307224FF400730A48E262022552
:1010D00003A9CDE90455A36102F01CFA204609B02A
:1010E000BDE8304003F036BC200300200038024049
:1010F0000050014000140240F0B52C4B1C7889B020
:101100000CB109B0F0BD2A4D009401261E702B6B66
:10111000284843F008032B632B6B049603F0080365
:10112000009302274FF4005303A9009A0393CDE9DB
:10113000054702F0EFF901942B6B1E4843F00803BA
:101140002B632B6B049603F008030193019B03A907
:101150004FF480530393CDE9054702F0DBF9029485
:101160002B6B154843F004032B632B6B069703F09E
:101170000403042503A90293029B0594CDE90356B9
:1011800002F0C8F90C482246294602F0BFFB0A4883
:101190003246294602F0BAFB084803F0CFFE002889
:1011A000AFD1FFF761FF09B0F0BD00BF1C03002005
:1011B00000380240000C02400008024020030020DA
:1011C00010B5012282B004464FF40051124802F0DB
:1011D0009DFB12480022042102F098FB104B11489D
:1011E0001B68ADF8064001220DF1060103F02AFC50
:1011F00038B90A480122042102B0BDE8104002F0CB
:1012000085BB084803F008FC064803F097FE002859
:10121000EFD1FFF729FFECE7000C02400008024085
:10122000000000202003002010B5002282B00446F8
:101230004FF40051124802F069FB124800220421C9
:1012400002F064FB104B11481B68ADF80640012208
:101250000DF1060103F0F6FB38B90A48012204211A
:1012600002B0BDE8104002F051BB084803F0D4FBC7
:10127000064803F063FE0028EFD1FFF7F5FEECE728
:10128000000C024000080240000000202003002063
:1012900070B5002282B00546204E21480C4604213C
:1012A00002F034FB1F4800224FF4005102F02EFBE5
:1012B00033681D48ADF80450012201A903F0C2FBB8
:1012C000A8B933681848224601A903F07FFDC8B9C0
:1012D0001448019C01224FF4005102F017FB104802
:1012E0000122042102F012FB204602B070BD0E481C
:1012F00003F092FB0C4803F021FE0028E1D1FFF738
:10130000B3FEDEE7084803F087FB074803F016FE4C
:101310000028DDD1FFF7A8FEDAE700BF00000020BB
:1013200000080240000C02402003002002F054BCE0
:101330002DE9F04383B0174CDDF82C901746984602
:10134000154A0A9BE3604FF44033C4E90023054685
:10135000002320460E46A36002F0AAFC10B103B0A1
:10136000BDE8F0832946204602F00AFE0028F6D1A7
:10137000CDF800803B4632464946204602F0C6FC86
:101380000028ECD10A21204603B0BDE8F04302F06A
:10139000DBBC00BF7C03002000B002402DE9F04F11
:1013A000DFF800B18DB0DBF8003008913B490A90BE
:1013B00003EB430301EB83039B689988D88806916C
:1013C000CB1DDB100593C1EBC303DBB20790099380
:1013D000002858D000230393DFF8CC8004924B1EE2
:1013E0000B93089B039A9E18059B012BB6B24DD018
:1013F000022B4ED0049A557813782D0245EA034506
:1014000093781D43069B002B33D00B9B099A0A9CB3
:101410009F18069B4FF00109A7EB030A18E020492B
:10142000342000FB03131D4951F82220D8F8001086
:10143000DB6D02920193896A8847DDE9013200FB86
:101440000640013F0134574543F82020A4B210D094
:1014500009FA07F32B42DBF8003003EB4302DED13D
:101460000E4901EB82020E495268342000FB03133F
:10147000DCE7DDE90421039B0A440492079A013367
:1014800093420393ADD10DB0BDE8F08F049B1D785E
:10149000B8E7049B1D886DBAADB2B3E7BC0300206A
:1014A000D803002078030020D4030020F0B51F4E9D
:1014B0008FB03368002501959B6A0F460446984714
:1014C00033680395DB6A029098473368ADF834506F
:1014D000FF228DF836504FF4C06106920722CDE905
:1014E0000812059507959B6A04900A9798473368F8
:1014F0000B90DB6A0E4D9847224601A90C902846B6
:1015000003F00EF90B4B04EB440403EB84024FF0A1
:10151000FF315160084991604FF07F4243F8242029
:10152000284603F033F90FB0F0BD00BFD40300200C
:10153000D8030020BC03002004000020014B1860E9
:10154000704700BF78030020034B044A1B6803EB7D
:10155000430342F82300704778030020BC030020B7
:1015600070B50E4B0E4E1D680E4B342202FB053338
:101570003268D96D926A84B004460391904733680B
:101580000290DB6A9847034600200090DDE90221C3
:1015900001942846FFF7CCFE04B070BD780300200C
:1015A000D4030020D80300202DE9F04F154683B066
:1015B00015F8014B1646074689462CB1002415F84C
:1015C000011B01340029FAD1DFF8C0A0DFF8C0B058
:1015D000DAF800200193926ADFF8B8809047DBF8D0
:1015E0000020019B02EB420208EB8202012B926871
:1015F0009288B0FBF2F041D0022B03D1001B10FB0C
:101600000277BFB2013E002415E03378D588126816
:10161000203B05FB03F30EFB0322FFF7BFFEDBF8C5
:10162000003003EB430308EB830301349B68988885
:101630000744A4B2BFB2DAF8003016F8015F9B6A23
:10164000003D18BF01259847DBF8003003EB43034A
:1016500008EB830384469A68938803FB14CC1FFA33
:101660008CFC03F1070E9C45384649464FEAEE0EC6
:1016700001D3002DC9D103B0BDE8F08F001B02FBE0
:1016800000F007EB5007BFB2BCE700BFD403002057
:1016900078030020BC030020084B094A1B6803EBB9
:1016A000430302EB83030A469968B1F806C01CFBAA
:1016B00000F081B203230020FFF776BF78030020FB
:1016C000BC030020F0B5114E114B0D4611490446E4
:1016D00030680968342785B007FB0033896ADF6DFD
:1016E0000392884700FB054007EB800130680A4BF6
:1016F000039A00EB400453F824400023CDE9003462
:101700000123FFF715FE05B0F0BD00BF78030020F0
:10171000D8030020D4030020BC0300202DE9F04FA3
:10172000530089B0C3F103030493CDE90001DFF84E
:10173000F4A1794E029200230DE00298049A191A3E
:101740000A3202EB81020492421E0292029A013393
:101750009A42C0F0DD809CB20793009BDAF800103B
:101760006E4FBDF808501A1901EB41006C4B57F849
:101770002090019892B24FF0340B039232680BFB29
:101780000131926AD1F85C80471B9047039ADAF8DE
:101790000010634BBFB207FB0020326848F820906E
:1017A00001EB41000BFB01315C4BD1F85C800099EF
:1017B000926A53F820B0A1EB040990471FFA89F907
:1017C00007FB0090326848F820B0DAF80000544B6C
:1017D000916A524F00EB40024FF0340B0BFB00308C
:1017E00057F822200592C76D009A019805EB020870
:1017F000A0EB040B88471FFA88F81FFA8BFB0BFB42
:101800000080059A47F82020454BDAF800703268CE
:101810004249906A4FF0340C07EB47020CFB073744
:1018200051F82210FA6D0592009A0691571B8047D5
:10183000BFB2DDE905210BFB0070394B42F82010E7
:10184000019832680544DAF80000916A4FF0340CD0
:1018500000EB40020CFB0030304BD0F85CB053F88A
:10186000222005928847039A2D4BADB205FB00203C
:10187000059A4BF82020DAF8000032684FF0340C5B
:10188000916A00EB40020CFB0030244BD0F85CB0B6
:1018900053F822200392884705FB0090039A4BF8E7
:1018A0002020DAF8001001981D4B32681B4D926A17
:1018B0004FF0340B044401EB41000BFB013155F8B0
:1018C0002090CD6D9047A4B2DAF80010144B326826
:1018D00004FB0080926A45F8209001EB41000F4D17
:1018E0000BFB013155F82080CD6D9047049A079B82
:1018F00004FB0070002A45F82080BFF61EAF0632B8
:1019000002EB83020492029A01339A42BFF423AF9E
:1019100009B0BDE8F08F00BFD4030020BC03002055
:10192000D8030020780300202DE9F047164FDFF898
:101930006490164E15463A6888460446D9F8001059
:10194000342084B000FB0262896AD2F85CA0039361
:101950008847D9F800203E68926A814609FB08440E
:1019600090470AEB84013C68039B401B2A4604EB2A
:101970004404074D009055F8244001943046FFF789
:10198000D7FC04B0BDE8F08778030020D80300201E
:10199000BC030020D4030020F0B5154D15492B6879
:1019A000154C096803EB43039A0004EB83038F6A29
:1019B000A658D3E901C1CB8844F802C083B013FB19
:1019C00000F081B20191B8472B68019903EB430302
:1019D00004EB830302469B680020DB88FFF7A4FF2B
:1019E0002B6803EB430344F8236003B0F0BD00BF52
:1019F00078030020D4030020BC030020024B1B68A6
:101A00009B6803B118477047D403002030B58FB0EE
:101A1000484B494D494800220192596C41F0806180
:101A20005964596C01F08061019101990292196B1E
:101A300041F400011963196B01F40001029102994C
:101A40000392196B41F001011963196B01F0010157
:101A5000039103990492196B022421431963196BB2
:101A60002140049104990592196B41F00401196316
:101A7000196B01F00401059105990692196B41F06B
:101A800008011963196B01F0080106910699079284
:101A9000196B41F020011963196B01F020010791C6
:101AA00007990892196B41F0400119631B6B0B9267
:101AB00003F04003089341F6580309A90993089BD2
:101AC0000A940E230C940D9301F024FD09A92846D5
:101AD0004FF47063099301F01DFD09A94FF4986359
:101AE0001748184C099301F015FD09A94823164819
:101AF000099301F00FFD09A94FF48063134809937E
:101B000001F008FD09A920464FF40C63099301F088
:101B100001FD032309A92846099309230D9301F028
:101B2000F9FC4FF4A05309A92046099301F0F2FCF7
:101B30000FB030BD003802400004024000000240F7
:101B40000008024000180240000C0240001402404D
:101B500038B5214C214A22600923636101221D23EB
:101B6000C4E90623032240F20D131D48C4E90823EB
:101B700040F2431240F21713C4E90A23082340F24B
:101B8000471203600423002522638361C0224FF4BF
:101B9000003302614362A58684F8365001F08EFB63
:101BA000C4E90155C4E90355FFF730FF204602F0B0
:101BB000DFFC0C4B0C491A680B60904700F02EF9C3
:101BC0000A4B0B4A1B680B4903EB430302EB8303ED
:101BD0002846996038BD00BFD80300200068014046
:101BE0008004002010000020D4030020780300208F
:101BF000BC030020040000202DE9F043234C244DB9
:101C000083B001264FF000080827214681464FF691
:101C1000FF722846C4E90268CDF804802660676038
:101C200002F0E2FA304601F0D7FF214602234FF6D8
:101C3000FF722846C4F80C802360C4E9017602F0E4
:101C4000D3FAC4F80C8021464FF0040803234FF662
:101C5000FF72284623606760C4F8088002F0C4FA67
:101C60004FF40C730193019BA66021464FF6FF725F
:101C70002846C4E90087E36002F0B6FA49462846E0
:101C800003B0BDE8F04302F0C7BA00BFB0040020C3
:101C9000C0040020002800F0AE8070B58EB0564B16
:101CA000564C002501959A6B42F001029A639A6B9B
:101CB00002F001020192019A02951A6B42F480022D
:101CC0001A631A6B02F480020292029A03951A6B4D
:101CD0000646022002431A631A6B02400392039ADB
:101CE00004951A6B42F004021A631A6B02F00402A4
:101CF0000492049A05951A6B42F008021A631A6B53
:101D000002F008020592059A06951A6B42F010023D
:101D10001A631A6B02F010020692069A07951A6B64
:101D200042F020021A631A6B02F020020792079A0F
:101D300008951A6B42F040021A631B6B0A9003F07D
:101D4000400308930C23CDE90B5009A90D932C48AF
:101D5000089B6023099301F0DDFB09A901232948B1
:101D6000099301F0D7FB09A94CF2037326480993A4
:101D700001F0D0FB09A94FF683732448099301F0C1
:101D8000C9FB09A94FF63F032148099301F0C2FBA3
:101D900009A948F233131F48099301F0BBFB8022C5
:101DA0004FF40071C4E901524FF48062C4E9031298
:101DB0004FF480504FF48042C4E905024FF40032E2
:101DC000154B2563C4E90752346303222046236080
:101DD000C4E90952E562A66301F034FE204601F031
:101DE00099FD2A460F21382001F07EFE382001F0AF
:101DF000B9FE0EB070BD70470038024010050020DB
:101E00000004024000080240000C024000100240A2
:101E100000140240001802401064024038B51A4C09
:101E20001A4D1B48206002230722C5E90032C5E98C
:101E30000433AB6110204023C4E904030421EA60A9
:101E40004FF400630122A960E160626000214FF459
:101E5000C072236220464FF40053C4E90621C4E94E
:101E60000913A160FFF716FF2946204602F09AF9F0
:101E7000084C031E18BF012340F26A502370FFF77D
:101E8000BBFE207838BD00BFC0040020F404002051
:101E9000400100A00C000020F02070474FF4A0701B
:101EA000704700BF2920FFF7BFB900BF2820FFF708
:101EB000BBB900BF08B5FFF71FF9CA20FFF7B4F997
:101EC000C320FFF77DF90820FFF77AF95020FFF7CC
:101ED00077F9CF20FFF7A8F90020FFF771F9C120AB
:101EE000FFF76EF93020FFF76BF9ED20FFF79CF953
:101EF0006420FFF765F90320FFF762F91220FFF76E
:101F00005FF98120FFF75CF9E820FFF78DF9852064
:101F1000FFF756F90020FFF753F97820FFF750F943
:101F2000CB20FFF781F93920FFF74AF92C20FFF782
:101F300047F90020FFF744F93420FFF741F9022068
:101F4000FFF73EF9F720FFF76FF92020FFF738F988
:101F5000EA20FFF769F90020FFF732F90020FFF7C8
:101F60002FF9B120FFF760F90020FFF729F91B20B6
:101F7000FFF726F9B620FFF757F90A20FFF720F9F7
:101F8000A220FFF71DF9C020FFF74EF91020FFF740
:101F900017F9C120FFF748F91020FFF711F9C52004
:101FA000FFF742F94520FFF70BF91520FFF708F975
:101FB000C720FFF739F99020FFF702F93620FFF725
:101FC00033F9C820FFF7FCF8F220FFF72DF90020C5
:101FD000FFF7F6F8B020FFF727F9C220FFF7F0F877
:101FE000B620FFF721F90A20FFF7EAF8A720FFF74C
:101FF000E7F82720FFF7E4F80420FFF7E1F82A20AC
:10200000FFF712F90020FFF7DBF80020FFF7D8F800
:102010000020FFF7D5F8EF20FFF7D2F82B20FFF7CD
:1020200003F90020FFF7CCF80020FFF7C9F80120E2
:10203000FFF7C6F83F20FFF7C3F8F620FFF7F4F8E4
:102040000120FFF7BDF80020FFF7BAF80620FFF7E0
:10205000B7F82C20FFF7E8F8C820FFF767F926202B
:10206000FFF7E2F80120FFF7ABF8E020FFF7DCF81C
:102070000F20FFF7A5F82920FFF7A2F82420FFF78B
:102080009FF80C20FFF79CF80E20FFF799F8092025
:10209000FFF796F84E20FFF793F87820FFF790F8B7
:1020A0003C20FFF78DF80920FFF78AF81320FFF78F
:1020B00087F80520FFF784F81720FFF781F8112033
:1020C000FFF77EF80020FFF77BF8E120FFF7ACF880
:1020D0000020FFF775F81620FFF772F81B20FFF7B6
:1020E0006FF80420FFF76CF81120FFF769F807205C
:1020F000FFF766F83120FFF763F83320FFF760F849
:102100004220FFF75DF80520FFF75AF80C20FFF793
:1021100057F80A20FFF754F82820FFF751F82F202E
:10212000FFF74EF80F20FFF74BF81120FFF77CF870
:10213000C820FFF7FBF82920FFF776F8BDE8084034
:102140002C20FFF771B800BF08B5FEF7D5FF0321BB
:10215000D320FFF79DF880B208BD00BFD0F8000380
:1021600004F014B8D0F8000304F030B8D0F800033D
:1021700004F03EB8D0F8000304F058B8D0F80003DB
:1021800004F014B8D0F8000304F01CB808B5D0F877
:10219000D00300F03DFC032896BF024B0220185CE0
:1021A00008BD00BF147E00082DE9F04F056885B01A
:1021B0000446284600F09AFC012802D005B0BDE88C
:1021C000F08F206800F08EFC0028F7D0206800F027
:1021D00089FC10F4001F20681CBF4FF400134361FA
:1021E00000F080FC10F4801F20681CBF4FF48013A7
:1021F000436100F077FC10F0806F20681CBF4FF047
:102200008063436100F06EFC10F0020F20681CBF79
:102210000223436100F066FC10F0005F206840F08C
:10222000A08000F05FFCC20100F1EC80206800F0AB
:1022300059FC030700F1DF80206800F053FCC7065B
:10224000266800F11981304600F04CFC8001B5D5BC
:10225000206800F06DFCA26807462068002A00F0A4
:10226000C68005F5A06500264FF02C084FF0020946
:1022700057E000F5A06303EB4B1A4FEA4B12DAF874
:102280000810490740F185800421CAF80810DAF8DF
:102290000C1041F00201CAF80C10DAF80810880599
:1022A00000F12781DAF80810C90740F1F4802069AD
:1022B00058B1DAF8101008FB0B4CC1F3120EDCF821
:1022C0004810A1EB0E01CCF8501008FB0B414FF069
:1022D000010C4FF0000EC1F85CE081F861C0CAF853
:1022E00008C091F83FE01EF0FD0F00F03F81BEF105
:1022F000030F00F05B82BEF1010F00F07D82012828
:1023000008FB0B4B00F0B4819BF8543083F00103C1
:102310008BF854302068A2680136B24205F12005DE
:1023200065D906F00F0327FA03F3D907F4D52B6814
:102330001B045FFA86FB9CD400F5A06101EB4B1AED
:102340004FEA4B1CDAF8083013F004032FD00423B3
:10235000CAF80830DAF80C3043F00203CAF80C303F
:10236000DAE74FF000534361D5F84034D9073FF521
:1023700058AF1021284600F05DFB284600F074FBA2
:102380000121206800F0B6FB2046FFF7EFFE206831
:1023900047E7DAF80810C90500F15281DAF80810A9
:1023A000890640F1F2802021CAF8081075E7DAF8B2
:1023B00008E01EF0200F00F0AD802021CAF80810C0
:1023C00008FB0B4191F83DC0BCF1010FA4D181F88D
:1023D0003D3081F86090DAF80C3043F00203594642
:1023E000CAF80C3000F0AAFB2068A26894E74FF00E
:1023F00000734361E2E62046FFF7B0FE2068082341
:1024000043611AE72668D6F840340293D6F8403480
:102410000393039B23F02E030393029B9B0707D593
:10242000029BDF0700F16A81039B43F002030393E1
:10243000029B180715D5039B43F008030393029BE7
:10244000590740F15F81A169022900F05F81E368CB
:10245000012B04BF4EF66022C6F804242046FFF785
:102460008DFE029B9A0603D5039B43F02003039342
:10247000039BC6F84034D9E6B36923F01003B36177
:10248000376AC7F34342022A00F0A580B36943F0DC
:102490001003B361D7E6DAF8081011F0020100F07A
:1024A000B680DAF80C1008FB0B4021F00201CAF8E4
:1024B0000C1090F86110012900F0EA80052900F065
:1024C000E780062900F04781082900F044810329AC
:1024D00000F06281072900F0D78090F86010CAF8F8
:1024E00008900A4620465946FFF744FE2068A26835
:1024F00012E7DAF80C30206843F002035946CAF8B4
:102500000C3000F01BFB4FF40073CAF80830206851
:10251000A26801E7DAF8083013F4007340F0E680AF
:10252000DAF808E01EF0010E00F0B580DAF80810C5
:1025300008FB0B424906D36505D5012382F83D30DF
:102540004023CAF80830DAF80C3043F00203CAF826
:102550000C30594608FB0B4B00F0F0FA0123CAF887
:1025600008308BF861302068A268D5E6DAF80C30C4
:10257000206843F00203CAF80C30594600F0DEFA36
:1025800010232069CAF80830B9E6DAF808100907FC
:1025900000F1C780DAF80810490500F1E980DAF89F
:1025A000081009067FF579AEDAF80C1041F0020147
:1025B000CAF80C1008FB0B414FF0060C81F861C003
:1025C0005946CDE9002300F0B9FA8021DDE9002366
:1025D000CAF8081061E6C7F30A12002A3FF456AFA2
:1025E00007F00F074FF02C0808FB0748D8F84410F5
:1025F00000293FF44BAFD8F85030D8F84C001344C2
:10260000834240F20881042388F860303EE7DAF81C
:102610000830D80635D508FB0B4292F83F30032B23
:1026200000F0408113F0FD0304D1D3652369002B32
:1026300000F042811023CAF808302068A2686BE6D7
:1026400008FB0B414FF4807CCAF808C04FF0070C20
:1026500081F861C0DAF80C1041F00201CAF80C10E0
:102660005946CDE9002300F069FADDE9002314E6BC
:10267000BBF84020DBF84830B3FBF2F3DB073FF553
:1026800043AE2068A26847E6C36D0133C3650421E9
:1026900080F8601023E7DAF808305B0600F19380D9
:1026A000DAF8083013F0080340F0E880DAF808E0C0
:1026B0001EF0100F00F0CB8008FB0B420321D36506
:1026C00092F83D3082F8611033B9134692F83C20FD
:1026D00012B9012283F83D20DAF80C3043F00203EE
:1026E0005946CAF80C3000F029FAA3E7DAF80C30A2
:1026F00043F002035946CAF80C3002E72046FFF7C0
:1027000031FD91E62046FFF73DFDAAE6029B2068D9
:1027100003F4C023B3F5802F18BF012100F0EAF9BC
:102720009CE6DAF80C1041F00201CAF80C1008FB24
:102730000B414FF0050CCDE9002381F861C0102159
:10274000CAF808100821CAF80810594600F0F6F92E
:10275000DDE90023A1E508FB0B40C16D0131022931
:10276000C16519D90421002380F86010C365B6E65D
:10277000DAF80C1041F00201CAF80C1008FB0B410A
:102780004FF0080C81F861C01021CAF80810CDE99B
:1027900000234FF48061D6E780F86090D15821F093
:1027A000804141F00041D150022198E6D05840F0DC
:1027B0000050D05081F860C0204662465946FFF76D
:1027C000D9FC20699BE508FB0B43042283F86120B8
:1027D000012283F83D20C3F85CE0DAF80C3043F0C6
:1027E0000203CAF80C30594600F0A8F94023CAF891
:1027F00008302068A2688FE591F8543081F860E0D5
:1028000083F0010381F85430204672465946FFF7A1
:10281000B1FC206973E53046009200F03DF9009A62
:10282000D8F84430B8F84000134406F5A066C8F85C
:102830004430D8F8503006EB471113448242C8F8B0
:10284000503009694FEA471365D026681EE6DAF86A
:1028500008301B0635D52369002B6DD008FB0B43D0
:10286000DA6D0132022ADA6500F2AA8083F86090FC
:102870008023CAF808302068A2684DE50823CAF80A
:102880000830DAF80C3043F00203CAF80C3059462D
:1028900008FB0B4B00F052F905238BF861302068E0
:1028A000A26839E5D1655946DAF80C30206843F062
:1028B0000203CAF80C3016E70323594682F8613048
:1028C000F2E7DAF808305B0545D4DAF808309B0700
:1028D0007FF522ADDAF80C3023F00203CAF80C3091
:1028E00008FB0B4393F86120012A4CD0032A71D0D6
:1028F000042A6FD0052A7DD0062A6ED0082A6CD013
:1029000008FB0B43CAF8089093F86020594620460C
:10291000FFF730FCB5E6C1F3C941002995D09A59BB
:1029200022F0804242F000429A5198F8543083F0ED
:10293000010388F8543088E708FB0B43062283F82C
:102940006120DAF80C3043F002035946CAF80C3023
:1029500000F0F4F88CE7DAF80C3043F00203CAF820
:102960000C30594600F0EAF81023CAF8083008FB8A
:102970000B4B4FF48063CAF8083008238BF86130A2
:102980002068A268C8E483F8602093F83F20023AE8
:10299000012AB5D8226962B1012AB1D1DA6C002AC4
:1029A000AED0B3F84010013A0A44B2FBF1F2D207BC
:1029B000A6D593F8552082F0010283F855209FE7B1
:1029C00004220020D865594683F860202046FFF78E
:1029D000D1FB4DE783F8609092E708FB0B42D36D83
:1029E0000133022BD36508D90023D365042382F871
:1029F000603085E783F8602082E782F8609051F8C4
:102A00000C3023F0804343F0004341F80C3077E76B
:102A100090F8F832012B0BD010B504460123006862
:102A200084F8F83200F0F8F8002084F8F80210BDBD
:102A30000220704782B08901002341F020010193F8
:102A4000084A016103E0036913F0200307D0019BEA
:102A5000013393420193F6D9032002B07047184620
:102A600002B07047400D030082B000211023019195
:102A7000084A036103E0036913F0100307D0019BC8
:102A8000013393420193F6D9032002B070471846F0
:102A900002B07047400D03005FEA920C70B5054626
:102AA00002F003061BD000F5805E0A4600230133C6
:102AB000DEF8004042F8044B9C45F8D101EB8C0055
:102AC00066B105F5805506442968002321FA03F212
:102AD00000F8012BB04203F10803F7D170BD08469E
:102AE000EEE700BF4269806910407047406900F01E
:102AF00001007047D0F8003423F00303C0F800341D
:102B0000D0F8002401F0030313430129C0F8003476
:102B100000F5806006D0022904BF41F27073436063
:102B2000002070474BF6803343600020704700BFA1
:102B300000F58060406980B2704700BF00EB411132
:102B400010B4D1F80035D1F800458268920601F53D
:102B5000A06C4FEA934301D5002C2ADA13F0010F41
:102B6000D1F8003543F08043C1F8003525D18368A2
:102B70009B061ED4C36A13F47F0F42D1D1F80025FF
:102B800022F00042C1F80025D1F8002542F00042B1
:102B9000C1F80025D1F8002522F400424FF47A73E1
:102BA000C1F8002501E0013B03D0DCF80020002A39
:102BB000F9DB00205DF8044B7047D0F8103413F4B3
:102BC0007F0F1ED1D1F8002522F00042C1F8002568
:102BD000D1F8002542F00042C1F80025D1F80025C7
:102BE00022F400424FF47A73C1F8002501E0013B62
:102BF000DFD0DCF80020002AF9DB00205DF8044B70
:102C00007047D1F800355DF8044B43F000430020D5
:102C1000C1F80035704700BF844682B0DCF8083048
:102C2000294A00204FF4846123F00103CCF80830D6
:102C30000190CCF8101003E0DCF81030990604D5B0
:102C4000019B013393420193F6D900211023009197
:102C50001D4ACCF8103003E0DCF81030DB0604D558
:102C6000009B013393420093F6D90CF5A0610CF55B
:102C7000E0600A46136823F0802343F0804342F863
:102C8000203B9042F6D100230A6822F4004242F031
:102C900040420A6002E00A68002A03DA0133B3F511
:102CA0007A7FF8D920318142EED14FF0FF33CCF852
:102CB0001434CCF81430DCF80830002043F0010361
:102CC000CCF8083002B07047400D0300002800F037
:102CD000A2812DE9F0410368DD0782B004462FD5BB
:102CE0009E498A6802F00C02042A00F0ED808A688E
:102CF00002F00C02082A00F0E3806368B3F5803F1D
:102D000000F0EC80B3F5A02F00F07581934D2A6898
:102D100022F480322A602A6822F480222A60002B62
:102D200040F0E18000F052FF064605E000F04EFF63
:102D3000801B642800F201812B689B03F6D4236872
:102D40009F0728D5854A916811F00C0F00F09080FC
:102D5000916801F00C01082900F08680E368002BDF
:102D600000F00E817E4B7D4E01221A6000F02EFF96
:102D7000054605E000F02AFF401B022800F2DD8036
:102D800033689807F6D53368226923F0F80343EADD
:102D9000C203336023681A0751D458072FD56F4AEE
:102DA000136C13F080537FD000256E4E3368D90525
:102DB00040F1B380A368012B00F0C380052B00F025
:102DC0002C81664E326F22F001023267326F22F0A0
:102DD00004023267002B40F0B98000F0F7FE41F2A8
:102DE0008838074605E000F0F1FEC01B404500F2C0
:102DF000A480336F9807F6D4002D40F00681A069B7
:102E0000C8B1564DAB6803F00C03082B00F0C98025
:102E1000534B002202281A6600F0098100F0D6FE0A
:102E2000044605E000F0D2FE001B022800F2858077
:102E30002B689B01F6D4002002B0BDE8F0816369E5
:102E40000BB3474B454E0122C3F8802E00F0BEFE67
:102E5000054604E000F0BAFE401B02286DD8736FEF
:102E60009B07F7D5236898E7526856023FF576AF7F
:102E70003A4A1268950744D5E268012A41D00120F8
:102E800002B0BDE8F081364A344EC2F8803E00F010
:102E90009DFE054604E000F099FE401B02284CD838
:102EA000736F9F07F7D4DDE70193136C43F08053F2
:102EB0001364136C03F080530193019B012574E7A5
:102EC0004A6850027FF519AF244A126891037FF5D2
:102ED00037AF6268002A7FF433AFD0E71F4A136828
:102EE00043F48033136000F071FE1C4E054604E08D
:102EF00000F06CFE401B64281FD833689A03F7D596
:102F00001DE7164920690A6822F0F80242EAC00269
:102F10000A601A077FF541AF91E7336843F4807385
:102F2000336000F053FE07463368DA053FF542AFE1
:102F300000F04CFEC01B0228F6D9032002B0BDE809
:102F4000F081064A136F43F00103136700F03EFE61
:102F5000024F064641F288380BE000BF00380240BD
:102F6000000047420070004000F030FE801B4045EA
:102F7000E3D83B6F9B07F7D5002D3FF440AF44E00B
:102F8000424A434E136000F021FE054604E000F083
:102F90001DFE401B0228D0D833689907F7D4236858
:102FA000F9E601283FF448AF6B68E26903F4800159
:102FB00091427FF464AF226A03F03F0191427FF4B3
:102FC0005EAF616A47F6C0721A40B2EB811F7FF4B0
:102FD00056AFA26A520803F44031013AB1EB024FF6
:102FE0007FF44DAFE26A03F07063B3EB026F14BF7E
:102FF0000120002020E7264B1A6842F480221A6044
:103000001A6842F480321A606DE7214A136C23F08B
:1030100080531364F3E6012070471D4B1A6F42F092
:1030200004021A671A6F42F001021A678EE700F075
:10303000CDFD064605E000F0C9FD801B02283FF6E5
:103040007CAF2B689901F6D4D4E90731626A0B434F
:1030500043EA8213D4E90A21520843EA0163013AA0
:103060000A4943EA024301226B600A6600F0AEFDA2
:10307000074D044605E000F0A9FD001B02283FF6BD
:103080005CAF2B689A01F6D5D5E600BF0000474239
:1030900000380240164908B58B6803F00C03042B76
:1030A0001BD0082B17D14A684B68496813F480037A
:1030B00002F03F0213D10F48C1F38811A1FB0001B8
:1030C000FDF796F80A4B5B68C3F3014301335B00DD
:1030D000B0FBF3F008BD074808BD074808BD064827
:1030E000C1F388110023A1FB0001FDF781F8E9E796
:1030F000003802400024F40000127A00002800F09A
:103100008780484A136803F00F038B422DE9F04192
:103110000D46044609D2CBB21370136803F00F03B7
:103120008B4202D00120BDE8F0812368980714D5B6
:10313000590704D53C498A6842F4E0528A601A076C
:1031400004D539498A6842F460428A603649A068E9
:103150008A6822F0F00202438A60DF0721D56268A4
:10316000012A57D0931E012B2F4B1B684DD999076D
:10317000D8D52D4EB36823F003031343B36000F09A
:1031800025FD41F28838074604E000F01FFDC01B12
:10319000404544D8B368626803F00C03B3EB820F78
:1031A000F3D1204A136803F00F03AB4206D9EBB208
:1031B0001370136803F00F03AB42B3D123685A07AF
:1031C00006D51949E0688A6822F4E05202438A6011
:1031D0001B0707D5144A2169936823F4604343EA27
:1031E000C1039360FFF756FF0F4A104C92681049D5
:1031F000C2F303120346A25C0E48D34000680B6082
:10320000FDF7F2FE0020BDE8F0819801B1D489E716
:1032100001207047044B1B689E03AAD482E7032059
:1032200081E700BF003C024000380240207E0008D9
:10323000500000204C000020044B05499B68054AC3
:103240000868C3F38223D35CD8407047003802403B
:1032500050000020307E0008044B05499B68054A59
:103260000868C3F34233D35CD8407047003802404B
:1032700050000020307E00080E4B0F2202609A683A
:1032800002F0030242609A6802F0F00282609A68DB
:1032900002F4E052C2609B68DB0810B403F4E05310
:1032A000054C036123685DF8044B03F00F030B60CA
:1032B000704700BF00380240003C0240F0B5036890
:1032C00013F0430F83B0044611D113F00C0F6FD1EC
:1032D000980600F1C28013F0100300F0BB80894B08
:1032E00094F82C20C3F8E021002003B0F0BD864BF9
:1032F000864E00229A6600F069FC054604E000F064
:1033000065FC431B022B50D833681801F7D423689F
:10331000D90706D5D4E90112120742EA8112C6F88C
:1033200084209A0715D57949E268D1F88400656848
:10333000120600F0E04042EA85120243C1F8842000
:10334000D1F88C00E26920F01F00013A0243C1F875
:103350008C205B0609D5201D0BC81B066B4A43EA6F
:10336000801343EA0173C2F88430674B674E012231
:103370009A6600F02BFC054604E000F027FC401B99
:10338000022812D833681F01F7D523689DE700F0A3
:103390001DFC41F2883706462B6F9B0700F1A58084
:1033A00000F014FC801BB842F6D9032003B0F0BD36
:1033B000554B564E00221A6700F008FC054604E003
:1033C00000F004FC431B022BEFD833689800F7D4BD
:1033D0002268510715D56369D6F8881020691B0645
:1033E00001F0E04143EA80130B43C6F88830D6F879
:1033F0008C30216A23F4F853013943EA0123C6F8DB
:103400008C30130714D5414AA369D2F8881020697B
:103410001B0701F0706143EA80130B43C2F8883048
:10342000D2F88C30616A23F440330B43C2F88C30FD
:10343000354B364E01221A6700F0C8FB054604E002
:1034400000F0C4FB401B0228AFD833689F00F7D5BB
:1034500023683DE7184603B0F0BD2C4B2C4D0022ED
:1034600001921A6C42F080521A641B6C03F0805374
:103470000193019B2B6843F480732B6000F0A6FB43
:10348000064604E000F0A2FB831B022B8DD82B68BC
:10349000D905F7D51D4DA36A2A6F12F4407211D1D8
:1034A00003F44072B2F5407F21D018498A6822F4B3
:1034B000F8128A60154A116FC3F30B030B431367AD
:1034C000236808E703F440719142EBD02B6F0E4A5A
:1034D0000121C2F8401E23F440730021C2F8401EAF
:1034E0002B672B6FDA073FF552AFA36AD8E707487F
:1034F000826823F0704121F4407122F4F8120A43EB
:103500008260D7E70010474200004742003802407F
:10351000007000402DE9F04F00220C68DFF85CA23B
:103520008F4E85B01346894605E00133102B02F11A
:10353000020200F094800121994001EA040BA143AA
:10354000F3D1D9F804C00CF003014D1E012D40F257
:103550008980032940F0C8809140CD4307683D40F1
:1035600029431CF4403F0160DFD000210391DAF8C9
:10357000441041F48041CAF84410DAF8441001F4D0
:1035800080410391039923F0030101F1804101F58A
:103590009C3103F00307D1F808E0BF000F25BD40C0
:1035A0002EEA05086F4DA8422ED005F58065A84289
:1035B00000F09E806C4DA84200F0A1806B4DA842A7
:1035C00000F0A4806A4DA84200F0A780694DA8428F
:1035D00000F0B180684DA84200F0B480DFF8A0E1AF
:1035E000704500F0A180DFF89CE1704500F0B180EB
:1035F000DFF894E170450CBF4FF0090E4FF00A0E52
:103600000EFA07F748EA0708C1F8088031686FEA40
:103610000B071CF4803F0CBF39404BEA01013160BD
:1036200075681CF4003F0CBF3D404BEA0505756012
:10363000B5681CF4801F0CBF3D404BEA0505B56022
:10364000F1681CF4001F03F101030CBF39404BEA81
:103650000101102BF16002F102027FF46CAF05B0A2
:10366000BDE8F08FD9F80C50876805FA02F80325F9
:1036700005FA02FE27EA0E0748EA0707876047684F
:103680006FEA0E0527EA0B0ECCF300179F4047EABE
:103690000E074760C76807EA050ED9F8087097401B
:1036A00047EA0E070229C76001FA02F17FF456AF1C
:1036B0004FEAD30E00EB8E0E03F00708DEF8207001
:1036C0000097D9F810704FEA880807FA08F70197B1
:1036D0000F2707FA08F8009F27EA0808019F47EA22
:1036E0000807CEF8207039E703259540ED43D1E770
:1036F0004FF0010E0EFA07F748EA070884E74FF08B
:10370000020E0EFA07F748EA07087DE74FF0030EAE
:103710000EFA07F748EA070876E74FF0040E0EFAAC
:1037200007F748EA07086FE74FF0070E0EFA07F7AA
:1037300048EA070868E74FF0050E0EFA07F748EA6F
:10374000070861E74FF0060E0EFA07F748EA070888
:103750005AE74FF0080E0EFA07F748EA070853E752
:10376000003C01400000024000080240000C024002
:1037700000100240001402400018024000380240CD
:10378000001C024000200240002402402DE9F04FBE
:103790000023DFF86891DFF86881DFF868A1DFF8BF
:1037A00068B102E00133102B7BD0012606FA03F248
:1037B00032EA010402EA010CF4D123F0030404F11B
:1037C000804404F59C3403F00305D4F808E0AD0010
:1037D0000F27AF40484507EA0E0E1DD0504563D075
:1037E000584564D03E4EB04265D03E4EB04266D0A1
:1037F0003D4EB04267D03D4EB04254D03C4EB042F8
:1038000065D03C4EB04266D03B4EB04214BF0A2653
:10381000092606FA05F500E00025AE451BD1D8F8CB
:10382000005025EA0C05C8F80050D8F8045025EAE5
:103830000C05C8F80450D8F8085025EA0C05C8F85B
:103840000850D8F80C5025EA0C05C8F80C50A568AB
:1038500025EA0707A760056803265C0006FA04F45A
:1038600025EA0405056023FA06F500EB850503F05B
:1038700007072E6A4FEA870C0F2707FA0CF726EA8C
:1038800007062E62C56825EA0405C560456825EA75
:10389000020242608268013322EA0404102B846031
:1038A00083D1BDE8F08F062606FA05F5B5E70226B6
:1038B00006FA05F5B1E7032606FA05F5ADE7042695
:1038C00006FA05F5A9E7052606FA05F5A5E7072690
:1038D00006FA05F5A1E7082606FA05F59DE700BFFB
:1038E000000C024000100240001402400018024088
:1038F000001C024000200240002402400000024060
:10390000003C0140000402400008024002B90904E2
:103910008161704738B5044600F058F9002C67D033
:1039200023680022022184F8351084F834201A68B4
:1039300022F0010205461A6005E000F047F9431B3A
:10394000052B39D823681A68D107F6D4D4E90120A9
:10395000E16802430A43D4E90451A0692A430A43B7
:10396000E1691D6802430A4333492940256A2A4315
:103970000A43616A042926D01A605A6922F00702B4
:103980001143D8B22D4A59611038A2FB00521209D6
:103990002B4923F47F73895CE16523F003035F28DF
:1039A00088BF04333F228A40A36500209A60012328
:1039B000606584F8353038BD03232022626584F8C1
:1039C0003530184638BDD4E90B5129430A431A60F3
:1039D0005969A26A21F00701114341F00401002D49
:1039E000CFD038B9012A23D032F00202C9D108E081
:1039F000012038BDB0F5005F0CD0022A03D9032A9C
:103A0000BFD1EA01BDD501234022626584F835307B
:103A1000184638BD032AB4D801A050F822F000BFE0
:103A2000073A0008033A0008073A0008313A00084C
:103A3000B5F1C07FA5D1E6E73F8010F0ABAAAAAAF6
:103A4000187E0008002835D090F83530022BD9B206
:103A500031D00368194AD9B2103970B4A2FB0152AF
:103A6000174C1D68120925F00105A65C1D60002297
:103A70001A605A609A60DA601A6121225A6123F44E
:103A80007F7323F003035F2988BF04333F240022A0
:103A9000B440C665C0E90F22C0E91122C0E9132273
:103AA00083659C60426580F8342080F8352070BCC6
:103AB0001046704701210846704700BFABAAAAAA6A
:103AC000187E00080749CA6803024FF6FF0003F496
:103AD000E0630240134343F0BF6343F40033CB6021
:103AE000704700BF00ED00E01C4BDB68C3F302230E
:103AF00000B5C3F1070EBEF1040F03F1040C28BF9B
:103B00004FF0040EBCF1060F1BD9033B4FF0FF3CF6
:103B10000CFA03FC22EA0C024FF0FF3C0CFA0EFCFC
:103B200021EA0C019940002841EA02010CDB00F176
:103B30006040090100F56140C9B280F800135DF8EA
:103B400004FB00221346E7E7054B00F00F000901D4
:103B50000344C9B219765DF804FB00BF00ED00E034
:103B6000FCEC00E0002808DB4109044A00F01F00DB
:103B7000012303FA00F042F82100704700E100E061
:103B800008B50B4B1A6842F400721A601A6842F4C6
:103B900080621A601A6842F480721A600320FFF78C
:103BA00091FF0020FDF720FAFCF786FF002008BDFA
:103BB000003C0240034A044B11681B780B4413601D
:103BC000704700BF7408002048000020014B1868AF
:103BD000704700BF7408002038B50446FFF7F6FFB1
:103BE000631C054602D0044B1B781C44FFF7EEFF14
:103BF000431BA342FAD338BD4800002080B110B562
:103C00004379044603F0FF021BB1012363710020D6
:103C100010BD0271FCF770FF01236371002010BD1D
:103C20000120704770B4039C44EA0343D0E9004686
:103C3000656C05F0404C43EA0C03B6F5403F636405
:103C4000E26302D0E16070BC70478368B3B1012BBE
:103C500017D0022B01F47F0201F47F45C8B21ED0B9
:103C6000032B01F07F410FD0130D2D0B1B0243EAF4
:103C7000051343EA1013090F43EA0131A16370BC35
:103C8000704721F07F41F9E7D20CED0A930243EA35
:103C9000451343EAD003C90F43EAC131EEE7D10C23
:103CA000AD0AC90241EA451141EAD001E6E700BF89
:103CB00048B310B590F83930044603F0FF02EBB179
:103CC00022686168022384F83930136823F4403392
:103CD0000B431360536BA16823F007030B4353633B
:103CE000136CE16823F47F5323F03F030B43136409
:103CF00000200123E06384F8393010BD80F83820BB
:103D0000FCF714FFDCE70120704700BF90F838C0D3
:103D1000BCF1010F16D030B583B04FF0010C069DF9
:103D20000095044680F838C04FF0020C80F839C086
:103D3000FFF778FF22681368002043F00103136047
:103D400003B030BD0220704770B582B00022036816
:103D500001921A68D20705460C460FD4DA69596AEF
:103D60000A43920633D400221220012198601046A3
:103D700085F8391085F8382002B070BDFFF726FFAE
:103D800006462B6801E0601C48D15A689107E5D4CB
:103D90005A680192019A12F0210FF4D0019A960606
:103DA00003D5EA6B42F00202EA63019AD40703D515
:103DB000EA6B42F00102EA632120986004210022AC
:103DC000012085F8391085F8382002B070BDFFF762
:103DD000FDFE06462B6801E0611C31D15A68D2060F
:103DE000C1D45A680192019A12F0290FF4D0019AB5
:103DF000160703D5EA6B42F00402EA63019A9406BF
:103E000003D5EA6B42F00202EA63019AD00703D5B8
:103E1000EA6B42F00102EA632920CEE7FFF7D6FE03
:103E2000801BA04201D8002CABD1EB6B032043F0E8
:103E300020030022EB6385F8382085F839009BE7E2
:103E4000FFF7C4FE801BA042EFD8002CC2D1ECE7E4
:103E5000704700BF704700BF036870B55D681E689B
:103E6000EA07044601D5F10557D4AA0601D5B304E3
:103E70003CD4280701D5310521D46A0701D5730543
:103E800073D4A80701D5B10504D4EA0601D5F3041B
:103E900058D470BD23681A6822F400721A60022296
:103EA0009A60E26BE2632369012284F839200022E0
:103EB00084F83820002BE8D020469847E5E72368AF
:103EC0001A6822F400621A6008229A60E36B626941
:103ED00043F00403E3630421002384F8391084F8D9
:103EE0003830002AC9D020469047C6E723681A68B0
:103EF00022F400521A6020229A60E36B626943F058
:103F00000203E3630421002384F8391084F8383075
:103F1000002AAED020469047ABE71A6822F48072A0
:103F20001A60C26B012142F00102C26342699960CA
:103F3000042380F83930002380F83830002A94D0E8
:103F4000904792E723681A68102022F480521A6082
:103F50009860E26BE2630121002384F8383084F832
:103F600039102046FFF776FF70BD23681A6822F4E7
:103F700080621A6004229A602046FFF769FF80E79A
:103F800090F83830012B4DD00122022370B400EBA1
:103F9000011C80F8382080F83930DCE9072342EA38
:103FA0000343093A012ADCF824201DD943EA0263BD
:103FB00089B101681C4ACD69DCF818402A401343D6
:103FC000CB610C610023012280F8392080F8383061
:103FD00070BC184670470168134A4C6A224013436C
:103FE00084694B628C61EDE702F07F44234361B941
:103FF00001680D4A4C6A85692240446A134324F0E3
:104000007F444B628D618C62DCE704680649E66997
:10401000DCF81850314022F07F420B43E361256108
:104020002262CFE702207047F0FFFC000B68012BF3
:1040300030B41AD003684C688A6823F4FF4323F035
:104040007F0323431343D1E9034223431343D1E9BD
:1040500005422343D1E9075413432B434A6A2343C0
:104060001343036030BC00207047026843684C680B
:104070008D6823F4FF4323F07F032343CC6922F4AC
:10408000F84222430C6A22434C6A2243CC682B43F9
:1040900023430C692343D1E9054123430B430260C9
:1040A00030BC436000207047012A30B421D0D1E9F0
:1040B00000248368013C03F0704343EA0413013A8F
:1040C0001343D1E90242013C43EA0423D1E90454F9
:1040D000013A43EA02338A69691E43EA0143611ED9
:1040E00043EA0153013A43EA0263836030BC002093
:1040F00070474C688268C368651ECC6822F4700201
:10410000013C22F4704242EA04324C69013C42EA2A
:1041100004520C6803F0704343EA0513013C234347
:104120008C68013C43EA04230C6989698260013C84
:1041300043EA0443013943EA0163C36030BC002011
:10414000704700BF70B5D1E9003582B000240194FA
:104150002B4304461546D1E9022043EA4023013AA5
:1041600043EA42130193019B2361FFF72FFD0646AB
:1041700001E06B1C06D1A36913F02003F9D11846A6
:1041800002B070BD25B1FFF721FD801BA842F2D916
:104190000320F5E74269034642EA410100205961E4
:1041A000704700BFF0B138B590F82C300D4604468A
:1041B00003F0FF028BB12146022384F82C3051F822
:1041C000040BFFF733FFD4E900022946FFF76CFF29
:1041D000012384F82C30002038BD80F82D20FCF716
:1041E00097FEE8E70120704738B590F82C30022B95
:1041F0000446D8B20ED002230D4684F82C30206835
:10420000FFF7A0FF2B68022B0CBF0523012384F8C6
:104210002C30002038BD00BF90F82C30022B0CD081
:1042200010B504460223006884F82C30FFF7B2FF73
:10423000012384F82C30002010BDD8B2704700BF95
:10424000002800F0B98070B590F83D30044603F0C6
:10425000FF02002B00F098802368242284F83D2080
:104260001A6822F001021A601A6842F400421A60C9
:104270001A6822F400421A60FEF7DEFF63684F49B5
:104280008B424FD84E4A90427CD94E4D5A00A5FBE6
:104290000035431EB3FBF2F32268506820F03F0064
:1042A00040EA95405060A90C01F1010C116A21F01F
:1042B0003F0141EA0C011162D16940F6FC7E0133F5
:1042C00021F44F4113EA0E0F21F0FF0161D10423C5
:1042D0000B43D361D4E907301168034321F0C001D7
:1042E0000B4313609168D4E9030321F403410343B2
:1042F00021F0FF010B439360D4E90530D1680343FB
:1043000021F0FF010B43D3601168002341F001014C
:1043100020201160236484F83D00236384F83E303C
:10432000184670BD284A90422CD9264D274EA5FB31
:10433000002C2268556825F03F0545EA9C455560EC
:104340004FEA9C414FF4967505FB01F1A6FB015124
:10435000156A890925F03F05013129431162D169A8
:10436000A56821F44F4121F0FF01ADB9013803EBFD
:104370004303B0FBF3F30133C3F30B03D3B143F4B3
:104380000043A5E7012070BD80F83C20FCF7EEFB60
:1043900062E7C3F30B039BE703EB8303013803EBF3
:1043A0008303B0FBF3F30133C3F30B0313B143F403
:1043B00040438DE701238BE701207047A086010071
:1043C0007F841E0083DE1B43FF083D00D34D621037
:1043D00090F83D20202A03465FFA82FC01D002209B
:1043E00070470268242083F83D00106820F0010027
:1043F0001060506A20F010005062506A0143516210
:10440000116841F001011160002083F83DC0704740
:1044100090F83D20202A01D00220704710B45FFAA6
:1044200082FC0468242280F83D20226822F00102E8
:1044300022600346606A4FF6F07202400A4392B26D
:104440006262226842F00102226083F83DC00020CF
:104450005DF8044B704700BF2DE9F0470468D1F8C0
:1044600004A0E5680F68D1F81890D20102F1840029
:104470002318C5F30B4505EB0A065D6805F4704586
:104480005D60E56807F1010CC5F30B45654445EA3D
:1044900006455D60E5689E68D1F80CC006F470467C
:1044A0009E60C5F30A0505EB0C06E568C5F30A0C2A
:1044B0008D680135654445EA06459D601D690E69B4
:1044C00025F007051D614FF0000C1E619D6991F8F4
:1044D000318091F832E0C3F818C091F8305045EAC5
:1044E000096545EA082545EA0E459D615D6925F0A7
:1044F000FF055D614D695D61DD6925F4E06525F0CD
:104500000705DD61D1E907521543DD619D6A4D6AFA
:10451000C3F828C09D624EB1012E25D0B51E022DD4
:1045200024D9072E0CBF0225012500E004258E6A40
:10453000AAEB070205FB02F2033206FB05F542EA8D
:104540000542CD6AD96A01F0E021D962DA621A6BBC
:1045500022F4FF6222F007021A631D63235843F01E
:1045600001032350BDE8F0870325E0E70225DEE7DD
:10457000002869D038B590F8A130044603F0FF0256
:10458000002B5CD00222236884F8A120D4E901200A
:1045900099690243D4E9035021F070419961996906
:1045A0002A4302430A439A6198682849656908408A
:1045B00098609A68A06942EA054202439A60D86806
:1045C000E5690840D860DA68206A42EA0542024399
:1045D000DA601869656A084018611A69A06A42EAD7
:1045E000054202431A615869E56A014059615A69F6
:1045F000216B42EA05420A435A61D96A94F835C0F0
:1046000094F8360001F07F41D962D96A94F83420D9
:104610000A4342EA0C2242EA0042DA625A6B42F052
:1046200006025A639A694FF0010C002142EA0C021B
:104630009A61C4F8A41084F8A1C0084638BD80F877
:10464000A020FCF7E9FA9DE70120704700F800F090
:10465000704700BF704700BF704700BF036870B568
:104660009D6B5E6B6A07044601D571071DD4AA07CE
:1046700001D5B3072DD4E80701D5F10740D42A07A7
:1046800001D5330700D470BD23685A6B082022F08F
:1046900008025A630121D863002384F8A11084F82A
:1046A000A0302046FFF7D8FF70BD5A6B22F00402FD
:1046B0005A630422DA63D0F8A43043F00103C0F84F
:1046C000A430002380F8A12080F8A030FFF7C0FFBD
:1046D000CDE723685A6B22F002025A630222DA63A2
:1046E000D4F8A43043F00203C4F8A4300422002319
:1046F00084F8A12084F8A0302046FFF7A9FFBAE78C
:1047000023685A6B22F001025A630122DA63002304
:1047100084F8A12084F8A0302046FFF79BFFAEE785
:10472000F8B590F8A030012B2DD00127022380F896
:10473000A07080F8A1304FF0340C8E4604460D4630
:1047400016460CFB020CBEE80F000CF1380CACE86E
:104750000F00BEE80F00ACE80F00BEE80F00ACE8A9
:104760000F00DEF80030CCF80030324620462946F3
:10477000FFF772FE22680023576284F8A17084F864
:10478000A0301846F8BD0220F8BD00BF90F8A03058
:10479000012B10D00949022380F8A1308A69002337
:1047A00042F480324FF0010C8A6180F8A1C080F899
:1047B000A030184670470220704700BF00680140D3
:1047C0002DE9F04182B01E4614460D460746FFF71C
:1047D000FDF92644361AFFF7F9F9264B1B68C3F397
:1047E000CB3306FB03F3804601933A6801E0631C78
:1047F00007D1936835EA0303F9D0002002B0BDE881
:10480000F081FFF7E3F9A0EB0800B04208D2019B6A
:10481000002B019B03F1FF3308BF00260193E4E75F
:10482000D7E900315A68B1F5827F22F0E0025A6080
:1048300014D0BA6AB2F5005F07D00122002387F8CE
:10484000512087F850300320D8E71A6822F400522C
:104850001A601A6842F400521A60EEE7BA68B2F5BC
:10486000004F02D0B2F5806FE3D11A6822F0400207
:104870001A60DEE75000002038B513464268B2F5F2
:10488000827F044606D00A460121FFF799FF78B9D6
:10489000002038BD8268B2F5004F1CD0B2F5806FA1
:1048A0000CD00A4620468021FFF78AFF0028EFD06F
:1048B000636D43F020030320636538BD05680A4635
:1048C000296821F0400129600121FFF779FF0028C4
:1048D000EED10020DDE70068026822F040020260AD
:1048E0000A4620468021FFF76BFF0028D0D0DFE783
:1048F00030B5164B164C1B68A4FB033C436883B0D1
:104900004FEA5C5C4FF47A7505FB0CF5B3F5827FDA
:104910000446019507D10CE0019B2268013B0193FD
:1049200093681B0602D5019B002BF5D1002003B034
:1049300030BD13460A468021FFF742FF0028F5D01C
:10494000636D43F0200303206365F0E7500000200F
:10495000819F5E1600285CD0416A70B5044600292C
:1049600047D00023C0E9043394F851200023A36208
:1049700002F0FF00002A42D09C462568A26802236C
:1049800084F851302B6823F040032B60636802F4F5
:10499000044203F482731343E26802F40062134397
:1049A000226902F002021343626902F001021A4313
:1049B000E36901F0100003F03806A169236A03F0EF
:1049C000800E01F4007313433343090C43EA0E03D2
:1049D00001F0040143EA0C0301432B606960EB69B9
:1049E000002023F400630122EB61606584F851200C
:1049F00070BD4368B3F5827FB6D0C161B4E784F877
:104A000050002046FCF7E8F9D4E9091303F4005CF0
:104A1000B3E70120704700BF90B10268022310B5D0
:104A200080F85130136823F0400304461360FCF70C
:104A300009FA0020606584F8500084F8510010BD28
:104A4000012070472DE9F041044690F850000128FC
:104A500082B062D01D46012384F850308846174644
:104A6000FFF7B4F894F85130012B0646D8B209D0BC
:104A700002200122002384F8512084F8503002B033
:104A8000BDE8F081B8F1000FF3D0002FF1D0A2689B
:104A9000C4F8308000230321B2F5004F84F8511090
:104AA000C4E910336365A363A387E786A786E3871A
:104AB00023685DD01A68520603D41A6842F0400297
:104AC0001A60E268B2F5006F62682AD0002A58D0F6
:104AD000012F56D0E38E9BB293B960E0226B12781F
:104AE0001A73B4F836C0236B0CF1FF3C01331FFA84
:104AF0008CFC2363A4F836C0E18E89B200294ED025
:104B000023689A689207E9D4FFF760F8801BA842EF
:104B100042D36B1CF0D00320ABE7022002B0BDE80B
:104B2000F081002A51D1414631F8022BDA60E28E41
:104B30002163013A92B2E286E28E92B26AB92EE025
:104B4000226B32F8021BD960E38E2263013B9BB2D9
:104B5000E386E38E9BB213B323689A689007EFD481
:104B6000FFF734F8801BA84232D3691CF1D0D2E79A
:104B70001A6822F040021A601A6842F480421A60F1
:104B800098E798F800201A73E38E226B013B0132FC
:104B90009BB22263E3869DE7002DADD1BBE7324691
:104BA00029462046FFF7A4FE08B120236365A368C9
:104BB00033B922680193D368019393680193019BF1
:104BC000606D003818BF012053E7012FB4D1AAE768
:104BD000002DBED19FE700BF2DE9F043044690F8B9
:104BE000500083B001280A9D00F083801F460123F6
:104BF00084F8503089469046FEF7E8FF064694F860
:104C0000510063680128C1B211D0B3F5827F09D089
:104C100002200122002384F8512084F8503003B090
:104C2000BDE8F083A268002AF2D10429F0D1B9F1DD
:104C3000000F62D0B8F1000F5FD0002F5DD094F864
:104C40005120C4F83880042A1CBF052284F8512062
:104C500000226265C4E910222268E787E7861168AE
:104C6000A7874906C4F83090A78603D4116841F09D
:104C700040011160E168B1F5006F61D0002B3ED0BA
:104C8000012F3CD00127E38E9BB21BB9E38F9BB26F
:104C9000002B42D02268936899070FD5E38E9BB210
:104CA00063B15FB1236B1B781373E38E226B013BFF
:104CB00001329BB222632268E3860027936813F0D7
:104CC00001030DD0E18F89B251B11F46A36BD268A9
:104CD0001A70A36B0133A363E38F013B9BB2E3879D
:104CE000FEF774FF801BA84214D36B1CCBD00320AB
:104CF0008FE7022003B0BDE8F083012089E799F82F
:104D000000301373E38E226B013B01329BB22263AE
:104D1000E386B7E7002DB6D1E9E7324629462046BB
:104D2000FFF7E6FD00284CD1A368002B7FF471AF9C
:104D300023680190DA6801929B680193019B68E700
:104D4000002B3BD1494631F8023BD360E38E21630F
:104D5000013B9BB2E3860127E38E9BB21BB9E38F35
:104D60009BB2002BD9D0226893689B070DD5E38EA8
:104D70009BB253B14FB1236B33F8021BD160236355
:104D8000E38E013B9BB20027E386936813F0010397
:104D90000CD0E18F89B249B11F46A36BD26823F8CA
:104DA000022BA363E38F013B9BB2E387FEF70EFF69
:104DB000801BA842D0D3681CCED098E7012FCAD15F
:104DC000C0E720236365012023E700BF2DE9F04100
:104DD0004668B6F5827F82B0044690461D460F466F
:104DE00066D094F85030012B6ED0012384F85030F7
:104DF000FEF7ECFE94F851C0BCF1010F06465FFAD5
:104E00008CF009D002200122002384F8512084F87C
:104E1000503002B0BDE8F081002FF4D0B8F1000F9F
:104E2000F1D0A268A76300230421B2F5004F84F8F3
:104E30005110C4E9103363652168A4F83E80A4F8DA
:104E40003C802363A386E38607D10B6823F04003ED
:104E50000B600B6823F480430B600B685F0603D480
:104E60000B6843F040030B60E368002B40D0E38FF6
:104E70009BB28BB92FE0A36BCA6823F8022BB4F85E
:104E80003EC0A3630CF1FF3C1FFA8CFCA4F83EC0AB
:104E9000E38F9BB2FBB121688B68DA07EBD4FEF796
:104EA00095FE801BA84213D36B1CF1D00320AAE708
:104EB0008368002B95D100950425134680F8515046
:104EC0000A46FFF789FEA4E7022002B0BDE8F081A0
:104ED000002DDDD1EAE7324629462046FFF7CCFC1B
:104EE00008B120236365606D003818BF01208AE790
:104EF000E38F9BB29BB9EEE7A36B0A7B1A70B4F801
:104F00003EC0A36B0CF1FF3C01331FFA8CFCA36382
:104F1000A4F83EC0E38F9BB2002BDCD021688B68E5
:104F2000D807E9D4FEF752FE801BA84202D3691CC1
:104F3000F0D0BBE7002DEDD1B8E700BF90F85100ED
:104F4000704700BF90F83D30012B2FD103681949FD
:104F5000022280F83D20DA688B4242F00102DA60DA
:104F600019D0B3F1804F16D0134A934213D002F5F3
:104F7000806293420FD002F5806293420BD002F51B
:104F80007842934207D002F57052934203D0A2F5C3
:104F90009432934204D19A6802F00702062A07D09D
:104FA0001A6842F0010200201A6070470120704721
:104FB00000207047000001400004004090F83C30A1
:104FC000012B75D0024630B40223046882F83D30CC
:104FD000012082F83C00A36823F47F4323F0770389
:104FE000A3600B68602B65D024D8402B7CD04BD9B4
:104FF000502B17D14868CD68216A236A23F001033A
:105000002362A36921F00A0123F0F003014343EA7C
:105010000513A3612162A36823F0700343F05703D3
:105020000020A3600121002382F83D1082F83C306B
:1050300030BC7047B3F5805F38D0B3F5005F10D156
:10504000D1E90153A0682B43CD6820F47F4143EAA6
:1050500005230B43A360A36843F480430020A360AF
:10506000E0E7702BDED1D1E90153A0682B43CD6876
:1050700020F47F4143EA05230B43A360A36843F078
:1050800077030020A360CDE7202B02D00AD9302B74
:10509000C8D1A16821F070010B4343F00703002041
:1050A000A360BFE733F01001BCD1F2E70020B9E7FD
:1050B00002207047206ACB684D6820F01000206203
:1050C000A16921F4704141EA0331236AA16123F00F
:1050D000A00343EA05132362A36823F0700343F09F
:1050E00067030020A3609DE74868CD68216A236AB2
:1050F00023F001032362A36921F00A0123F0F003E6
:10510000014343EA0513A3612162A36823F07003FE
:1051100043F047030020A36084E700BF704700BF4F
:10512000704700BF704700BF704700BF03681A692F
:10513000910710B5044602D5DA6892075FD41A6960
:10514000500702D5DA68510746D41A69120702D50A
:10515000DA6810072ED41A69D20602D5DA68D006AA
:1051600018D41A69D10702D5DA68D2075DD41A6952
:10517000100602D5DA6811065FD41A69520602D504
:10518000DA68500661D41A69910602D5DA68920687
:1051900043D410BD6FF01001082219612277DB693A
:1051A00013F4407F204664D0FFF7BAFF0022236843
:1051B0002277D6E76FF00801042219612277DB69B4
:1051C0009907204652D1FFF7A9FF2046FFF7AAFF13
:1051D000002223682277BEE76FF0040102221961E2
:1051E00022779B6913F4407F20463CD1FFF796FF5E
:1051F0002046FFF797FF002223682277A5E76FF08C
:1052000002010122196102779B699B0725D0FFF7F4
:1052100087FF00222368227791E76FF02002204663
:105220001A61BDE8104000F005B96FF001021A6183
:105230002046FBF70FFC236899E76FF080021A61A4
:10524000204600F0F9F8236897E76FF040021A61F2
:105250002046FFF769FF236895E7FFF75FFF2046C9
:10526000FFF760FFD5E7FFF75BFFC4E7FFF758FFE5
:10527000AEE7FFF753FF2046FFF754FF96E700BF66
:10528000344A0368904230B44CD0B0F1804F34D0EF
:10529000A2F57C42904230D002F5806290422CD040
:1052A00002F58062904228D002F57842904239D0CF
:1052B00002F57052904224D002F58062904220D0D4
:1052C00002F5806290421CD0A2F59832904218D02C
:1052D00002F58062904214D002F58062904210D0B4
:1052E0004D698C680A6823F080032B430360012317
:1052F000C462826230BC436170474A6823F0700325
:105300001343CC684A6923F44073234323F080039A
:1053100013438C680A6803600123C462826230BC54
:10532000436170474C68CA6823F07003234323F439
:10533000407313434A6923F08003134303608B686F
:10534000C3620B6883620B690363012330BC436152
:10535000704700BF0000014050B310B590F83D30D9
:10536000044603F0FF02F3B12146022384F83D30E6
:1053700051F8040BFFF784FF012384F8463084F8CA
:105380003E3084F83F3084F8403084F8413084F86F
:10539000423084F8433084F8443084F8453084F84F
:1053A0003D30002010BD80F83C20FBF761FDDBE7BD
:1053B0000120704790F83C30012B37D0036802225F
:1053C00030B480F83D205A680D689C6822F0700265
:1053D0002A435A60164A93421AD0B3F1804F17D02D
:1053E000A2F57C42934213D002F5806293420FD023
:1053F00002F5806293420BD002F57842934207D0C7
:1054000002F57052934203D0A2F59432934204D134
:105410004A6824F0800414439C600023012280F831
:105420003D2080F83C3030BC184670470220704761
:1054300000000140704700BF704700BF026811695B
:1054400038B50446C068A36821F44051014320697F
:10545000116103436069D1680343E06921F4164197
:1054600021F00C0103430B43D3605369A069284921
:1054700023F4407303438A42536129D0254B9A4257
:1054800026D0FDF7D9FEE369B3F5004F26D1626857
:10549000214D92184FF019014FF000035B41A0FB22
:1054A0000101FAF7A5FEA5FB00325109642303FBB5
:1054B0001103DB003233A5FB0323C3F342121B09A4
:1054C000246802EB011203F4F8731344A36038BD9F
:1054D000FDF7C2FEE369B3F5004FD8D06368192128
:1054E0009A00A0FB01019B0FFAF782FE0A4AA2FB79
:1054F00000135B092168642404FB130000013230AF
:10550000A2FB00201B0103EB5010886038BD00BFD8
:1055100000100140001401401F85EB5160B338B505
:1055200090F83D30044603F0FF0203B322682423C1
:1055300084F83D30D36823F400532046D360FFF74E
:105540007DFF23681A6922F490421A615A6922F099
:105550002A025A61DA680025202142F40052DA60FA
:10556000256484F83D1084F83E10284638BD80F844
:105570003C20FBF795FCD9E701207047034AD2F89D
:10558000883043F47003C2F88830704700ED00E0C3
:1055900043689A688A60026810B49C684B60013264
:1055A000616099605DF8044B08610260704700BF5C
:1055B00030B40D686B1C10D000F108031C465B680A
:1055C0001A68AA42FAD902684B60013299608C606D
:1055D0006160086130BC0260704704696368F2E78B
:1055E000036910B4D0E901125C688A60844251609A
:1055F00008BF5A601A685DF8044B0021013A016146
:105600001A601868704700BF70B50446006CA66B3E
:1056100020B925684DB30136A66370BD1546024614
:105620007DB9606800F068FE6368226C1344A2686C
:105630006360934224BF2368636001362846A663F3
:1056400070BDE06800F058FE226CE36851429B1A7E
:105650002268E360934202D2A3680B44E360022D08
:1056600008D001360020A66370BDA06800F048FC99
:10567000A560D0E7012E38BF01260020CCE700BF8F
:1056800070B5054600F0D6FC95F845305CB2002CAC
:1056900014DD05F1240603E0631EDAB25CB26AB1E0
:1056A0006B6A304653B100F079FB0028F4D000F06B
:1056B00011FC631EDAB25CB2002AF1D1FF2385F837
:1056C000453000F0D9FC00F0B5FC95F844305CB2F0
:1056D000002C14DD05F1100603E0631EDAB25CB2A3
:1056E0006AB12B69304653B100F058FB0028F4D062
:1056F00000F0F0FB631EDAB25CB2002AF1D1FF23A6
:1057000085F84430BDE8704000F0B6BC2DE9F043A8
:1057100085B00192002875D088461E4604460029AF
:1057200064D0022E0BD1E36B012B08D04FF0500355
:1057300083F31188BFF36F8FBFF34F8FFEE700F045
:10574000CFFB0546002866D000254FF0000907E092
:1057500000F092FC2046FFF793FF00F0D7FA0125F6
:1057600000F068FCA26BE36B9A4264D3022E62D015
:10577000019F002F77D0002D59D000F07DFC00F064
:10578000BDFA00F057FC94F84430FF2B08BF84F8B2
:10579000449094F84530FF2B08BF84F8459000F002
:1057A0006BFC01A902A800F04DFB00285FD100F0BE
:1057B00041FCA26BE36B9A42CAD100F05DFC0199F7
:1057C00004F1100000F0D0FA2046FFF759FF00F076
:1057D0009DFA0028C3D14FF0E0234FF08052C3F868
:1057E000042DBFF34F8FBFF36F8FB8E7036C002B0F
:1057F00097D04FF0500383F31188BFF36F8FBFF33F
:105800004F8FFEE74FF0500383F31188BFF36F8F84
:10581000BFF34F8FFEE7019B002B96D04FF0500354
:1058200083F31188BFF36F8FBFF34F8FFEE702A89A
:1058300000F0FCFAA1E7324641462046FFF7E4FEBD
:10584000636ADBB948B14FF0E0234FF08052C3F8F0
:10585000042DBFF34F8FBFF36F8F00F00DFC0120BD
:1058600005B0BDE8F08300F007FC3846F8E72046B5
:10587000FFF706FF00F04AFA0020F1E704F12400E8
:1058800000F08CFA0028E8D0DDE700BF00284BD0FC
:105890002DE9F0410E4617461D46044621B3022D60
:1058A0000BD1E36B012B08D04FF0500383F3118829
:1058B000BFF36F8FBFF34F8FFEE700F039FCEFF3BC
:1058C00011884FF0500383F31188BFF36F8FBFF33C
:1058D0004F8FA26BE36B9A4212D3022D10D000209F
:1058E00088F31188BDE8F081036C002BD7D04FF00E
:1058F000500383F31188BFF36F8FBFF34F8FFEE721
:105900002A4694F84550A36B31466DB22046FFF706
:105910007BFE6B1C11D06B1C5BB284F84530012000
:1059200088F31188BDE8F0814FF0500383F31188AC
:10593000BFF36F8FBFF34F8FFEE7636A002BEED08C
:1059400004F1240000F02AFA0028E8D0002FE6D065
:1059500001203860C4E700BFF8B51B4B1B4E1C6824
:1059600033680546181D0F46FFF73AFE48B93368FD
:105970001749DA6A012303FA02F20B6823EA0203E9
:105980000B606B1C17D0336864195C6007D3114B34
:1059900018683168BDE8F8400431FFF709BE0E4BC6
:1059A000186831680431FFF703FE0C4B1A68A242F5
:1059B00088BF1C60F8BD002FE5D031680848BDE8FD
:1059C000F8400431FFF7E4BD5409002078080020B6
:1059D00018090020800800207C0800201C090020F5
:1059E00040090020204B10B50022204C1A6023688B
:1059F0001B6B1A68B2F1A53F03D15A68B2F1A53FFB
:105A000028D0206821683431FBF730F8184B1B6828
:105A1000B3FA83F3DBB2C3F11F0303EB8303154A2D
:105A2000990002EB8303505840B94FF0500383F3C1
:105A30001188BFF36F8FBFF34F8FFEE758680831AF
:105A4000406858600A44904204BF40685860C36888
:105A5000236010BD9A68B2F1A53FD2D1DB68B3F1E3
:105A6000A53FCED1D2E700BF58090020780800201A
:105A700018090020840800202DE9F04F494B1D68CB
:105A8000013583B01D60002D5FD0474B0193019B12
:105A90001B689D4240D3454EDFF824813368DFF810
:105AA00024911C68002C5DD0414F00244FF0010A66
:105AB00024E00091FFF794FDDBF8282000990BF11A
:105AC000180012B1FFF78CFD0099DBF82C003B6841
:105AD0000AFA00F200EB80001A4308EB80003A60FB
