:020000040800F2
:1000000000500020C50D0008510D0008550D0008D6
:10001000590D00085D0D0008610D0008000000008A
:10002000000000000000000000000000650D000856
:10003000690D0008000000006D0D0008710D00083A
:100040000D0E00080D0E00080D0E00080D0E000824
:100050000D0E00080D0E00080D0E00080D0E000814
:100060000D0E00080D0E00080D0E00080D0E000804
:100070000D0E00080D0E00080D0E00080D0E0008F4
:100080000D0E00080D0E00080D0E00080D0E0008E4
:100090000D0E00080D0E00080D0E00080D0E0008D4
:1000A0000D0E00080D0E00080D0E00080D0E0008C4
:1000B0000D0E00080D0E00080D0E00080D0E0008B4
:1000C0000D0E00080D0E00080D0E00080D0E0008A4
:1000D0000D0E00080D0E00080D0E00080D0E000894
:1000E0000D0E00080D0E00080D0E000800000000A7
:1000F0000000000000000000000000000000000000
:0C01000000000000000000005FF808F1A3
:10010C00044B05481B1A062B02D9044B03B11847A4
:10011C00704700BF0F0000200C0000200000000002
:10012C0005490648091A891001EBD171491002D012
:10013C00034B03B1184770470C0000200C00002043
:10014C000000000010B5064C237843B9FFF7D8FF28
:10015C00044B13B10448AFF300800123237010BD8E
:10016C000C00002000000000100E000808B5084B21
:10017C001BB108490848AFF300800848036813B95D
:10018C00BDE80840CCE7064B002BF9D09847F7E7C1
:10019C000000000010000020100E00080C000020D1
:1001AC000000000070402DE964609FE564509FE5FD
:1001BC00066065E04661B0E10040A0130500000A4E
:1001CC00014084E2043095E40FE0A0E113FF2FE13D
:1001DC00040056E1F9FFFF1A3C609FE53C509FE597
:1001EC00066065E0060300FA4661B0E10040A0132A
:1001FC000500000A014084E2043095E40FE0A0E120
:10020C0013FF2FE1040056E1F9FFFF1A7040BDE81F
:10021C001EFF2FE1480E0008480E00084C0E000887
:10022C00480E0008030010E310402DE93700000AC7
:10023C00000052E3012042E23200000AFFC001E25A
:10024C000030A0E1020000EA000052E3012042E28B
:10025C002C00000A01C0C3E4030013E3F9FFFF1AEA
:10026C00030052E32000009AFFE001E20EE48EE16D
:10027C000F0052E30EE88EE11000009A0240A0E15C
:10028C0010C083E2104044E20F0054E310E00CE590
:10029C000CE00CE508E00CE504E00CE510C08CE289
:1002AC00F7FFFF8A10C042E20FC0CCE30F2002E23E
:1002BC0010C08CE2030052E30C3083E00A00009A79
:1002CC000340A0E102C0A0E104C04CE203005CE3E7
:1002DC0004E084E4FBFFFF8A04C042E203C0CCE3E9
:1002EC0004C08CE20C3083E0032002E2000052E3F5
:1002FC00FF100112022083100200000A0110C3E457
:10030C00020053E1FCFFFF1A1040BDE81EFF2FE175
:10031C000030A0E1D1FFFFEA38B54FF47A730D49F4
:10032C000D4A09781268B3FBF1F30546B2FBF3F002
:10033C0000F094F808B90F2D01D9012038BD0446FE
:10034C00024629464FF0FF3000F052F8034B20468E
:10035C001D6038BD000000200800002004000020B3
:10036C00074A08B51368032043F01003136000F02C
:10037C002DF80020FFF7D0FF00F0C2FC002008BDD4
:10038C0000200240034A044B11681B780B44136095
:10039C00704700BF2800002000000020014B1868A7
:1003AC00704700BF2800002038B50446FFF7F6FF61
:1003BC00631C054602D0044B1B781C44FFF7EEFF70
:1003CC00401B8442FAD838BD000000204FF6FF01D4
:1003DC00064A0002D36800F4E0600B4043F0BF63B0
:1003EC0043F400330343D360704700BF00ED00E0DB
:1003FC00184B70B4DC68C4F30224C4F10706042E55
:10040C0004F1040328BF0426062B17D90125033C4D
:10041C00A540013D2A400123B340013B1940A140B6
:10042C00002841EA02010CDB090100F16040C9B26D
:10043C0000F5614080F8001370BC70470022144630
:10044C00E9E7054B00F00F000901C9B20344197626
:10045C0070BC704700ED00E0FCEC00E00138B0F13E
:10046C00807F0DD230B4F02500220721054B064CBD
:10047C00586084F82350104630BC9A60196070475D
:10048C000120704710E000E000ED00E02DE9F04F96
:10049C004FF0000885B043466FF01F06DFF8E0E12F
:1004AC00DFF8E0C1704F009005E00133102B06F12E
:1004BC00040600F08B8001220C689A401440A24282
:1004CC00F3D14D68122D00F0A58000F28E80022D24
:1004DC0000F0A78040F28380032D00F09F80112D47
:1004EC0002D1CA6802F10408FF2C72D8009A4FEAB4
:1004FC00830A914612680F2505FA0AFB22EA0B02C1
:10050C0008FA0AFA42EA0A02C9F80020D1F804A053
:10051C001AF0805FC9D0DEF8189023F0030249F07E
:10052C000109CEF81890DEF8189002F1804209F01B
:10053C000109CDF80C9002F5803203F00309DDF8C7
:10054C000CB04FEA8909D2F808B005FA09F52BEA84
:10055C00050001900098604579D0444DA84279D0AF
:10056C00434D0098A8427AD0424D0098A8420CBF47
:10057C004FF0030B4FF0040B0BFA09F901981AF426
:10058C00803F40EA090595603A6803F1010314BF06
:10059C002243A2433A607A681AF4003F14BF224304
:1005AC00A2437A60BA681AF4801F14BF2243A24394
:1005BC00BA60FA681AF4001F14BF144322EA040448
:1005CC00102BFC6006F104067FF475AF05B0BDE896
:1005DC00F08F0098B246426800F104098BE7A5B190
:1005EC00012D81D1D1F80C807EE7234885420CD0B7
:1005FC001BD92248854208D000F58030854204D0B2
:10060C00DFF884904D457FF46FAF8D68BDB94FF026
:10061C00040869E7CA6802F10C0865E74FF00008A6
:10062C0062E7CA6802F108085EE7DFF860904D45A2
:10063C00EBD009F580394D457FF456AFE5E70098CE
:10064C00012D0CBF026142614FF008084CE74FF0DE
:10065C00000993E74FF0010B0BFA09F98EE74FF005
:10066C00020B0BFA09F989E700040140000C014068
:10067C000010014000140140000021100000311056
:10068C000010024000080140000022100000111070
:10069C0002B9090401617047C3685940C1607047D1
:1006AC002DE9F041036882B0DD07044630D5AD4931
:1006BC004A6802F00C02042A00F0FA804A6802F040
:1006CC000C02082A00F0F0806368B3F5803F00F05C
:1006DC007481002B00F00481B3F5A02F00F0A981E8
:1006EC00A04B1A6822F480321A601A6822F4802215
:1006FC001A60FFF753FE9B4D064605E0FFF74EFED2
:10070C00801B642800F217812B689A03F6D52368A6
:10071C009F0728D5934A516811F00C0F00F0A9805F
:10072C00516801F00C01082900F09F802369002B0F
:10073C0000F0328101228C4B8A4D1A60FFF72EFE9D
:10074C00064605E0FFF72AFE801B022800F2F38024
:10075C002B689807F6D52B68626923F0F80343EAF7
:10076C00C2032B6023681A075DD45D073AD57D4B15
:10077C00DA69D00000F1A6800125DA6942F08052D6
:10078C00DA61DB6903F080530093009B774B1A68A6
:10079C00D10540F1BF80E368012B00F01481002BE0
:1007AC0000F0CD80052B6F4B1A6A00F04F8122F0C0
:1007BC0001021A621A6A22F004021A62FFF7EEFDB5
:1007CC00684E804641F2883706E0FFF7E7FDA0EB64
:1007DC000800B84200F2AF80336A9B07F5D5002DB4
:1007EC0040F0F780E369D3B15E4D6A6802F00C0209
:1007FC00082A45D0022B4FF000025D4B00F0EF8031
:10080C001A60FFF7CBFD2C46054605E0FFF7C6FD49
:10081C00401B022800F28F8023689B01F6D4002035
:10082C0002B0BDE8F081A369002B2DD00122514B01
:10083C004C4D1A60FFF7B2FD064604E0FFF7AEFD23
:10084C00801B022877D86B6A9B07F7D54A4B4B4A1B
:10085C001B68A2FB03235B0A019300BF019B5A1E7A
:10086C000192002BF9D123687FE75268D6033FF53C
:10087C005DAF3C4A1268950726D52269012A23D020
:10088C00012002B0BDE8F0813A4A364D1360FFF703
:10089C0085FD064604E0FFF781FD801B02284AD83F
:1008AC006B6A9F07F7D4DEE74A68D0037FF50CAF7D
:1008BC002C4A126891037FF52BAF6268002A7FF4F3
:1008CC0027AFDDE7002561E7264960690A6822F059
:1008DC00F80242EAC0020A601A077FF546AFA2E7A7
:1008EC0003F1804303F504331A681D4622F4803269
:1008FC001A601A6822F480221A60FFF74FFD064630
:10090C0004E0FFF74BFD801B642814D82B689B0375
:10091C00F7D4FCE61A681E4642F480721A60FFF7A0
:10092C003DFD07463368DA053FF535AFFFF736FD79
:10093C00C01B6428F6D9032002B0BDE8F08103F196
:10094C00804303F504331A6A1E4622F001021A6230
:10095C001A6A41F2883822F004021A62FFF71EFD6F
:10096C00074612E0001002400000424200700040B6
:10097C00600042428004424208000020D34D6210C5
:10098C00FFF70CFDC01B4045D5D8336A9807F7D448
:10099C00002D3FF427AF1CE0344A354D1360FFF7B0
:1009AC00FDFC064604E0FFF7F9FC801B0228C2D8C8
:1009BC002B689907F7D42368D5E62D4A136843F4BE
:1009CC008033136095E62A4A136A43F001031362DD
:1009DC00F4E6274AD36923F08053D36102E71A6007
:1009EC00FFF7DCFC064604E0FFF7D8FC801B02286E
:1009FC00A1D82B689901F7D4226AB2F5803F2DD08B
:100A0C0001251B4B606A5968024321F47411194883
:100A1C000A435A6005601C46FFF7C0FC054604E01B
:100A2C00FFF7BCFC401B022885D823689A01F7D538
:100A3C00F5E603F18043A3F53C331A6842F48022B7
:100A4C001A601A6842F480321A6052E642F00402CC
:100A5C001A621A6A42F001021A62AFE66B68A16868
:100A6C0023F400330B436B60CAE700BF0000424223
:100A7C00001002406000424270B50126022586B08B
:100A8C00154B0DF1180E0FCB0EE90F00134C8DF812
:100A9C0004608DF80550636803F00C02082A0BD132
:100AAC00C3F383427244DB0312F8102C07D40C48B6
:100ABC0000FB02F006B070BD0A4806B070BD63685A
:100ACC000848C3F3404300FB02F0734413F8143C92
:100ADC00B0FBF3F006B070BD280E00080010024009
:100AEC0000093D0000127A00554A136803F0070311
:100AFC008B420BD2136823F007030B43136013686C
:100B0C0003F00703994201D00120704703682DE9D7
:100B1C00F0419D0714D55C0704D54A4C626842F439
:100B2C00E06262601A0704D5464C626842F4605277
:100B3C006260444C8568626822F0F0022A4362606D
:100B4C00DF0706460C4622D542683E4B012A1B683D
:100B5C0072D0022A6AD0990729D53A4D41F28838C9
:100B6C006B6823F0030313436B60FFF717FC736888
:100B7C000746012B49D0022B05D151E0FFF70EFCA3
:100B8C00C01B404555D86B6813F00C0FF6D12C4A9E
:100B9C00136803F007039C420CD2136823F007037D
:100BAC0023431360136803F007039C4202D0012017
:100BBC00BDE8F08133685A0706D52249F0684A68C7
:100BCC0022F4E06202434A601B0707D51D4A3169D3
:100BDC00536823F4605343EAC1035360FFF74CFF9F
:100BEC00184B19495B68194AC3F30313CB5C20FA01
:100BFC0003F300201360FFF78FFB0020BDE8F081AA
:100C0C00FFF7CCFBC01B404513D86B6803F00C03FB
:100C1C00042BF5D1BBE7FFF7C1FBC01B404508D83F
:100C2C006B6803F00C03082BF5D1B0E7980194D452
:100C3C00BDE70320BDE8F0819D038ED4B7E700BF6C
:100C4C000020024000100240380E0008080000206E
:100C5C0010B590B006A828220021FFF7E3FA002473
:100C6C0001220221102306A806910A920B930194EB
:100C7C000294039404940594FFF712FD0F2301A82A
:100C8C00214602940394049405940193FFF72CFFDE
:100C9C0010B010BD002400B587B0FFF761FBFFF763
:100CAC00D7FF154B0294039404940594996922463A
:100CBC0041F0080199619B694FF4805103F00803DE
:100CCC0001930E48019B4FF48055FFF7E1FC012284
:100CDC00022302A909480494029503920593FFF795
:100CEC00D5FB064C20464FF48051FFF7D5FC4FF452
:100CFC007A70FFF759FBF5E700100240000C014039
:100D0C000E4B82B09A690E4942F001029A619A69BF
:100D1C0002F001020092009ADA6942F08052DA6124
:100D2C00DB6903F080530193019B4B6823F0E06374
:100D3C0043F080634B6002B0704700BF001002406C
:100D4C0000000140704700BFFEE700BFFEE700BF98
:100D5C00FEE700BFFEE700BF704700BF704700BF53
:100D6C00704700BFFFF70EBB30B44FF41F054FF0B8
:100D7C0000640E4B0E4A19680E4841F001011960CF
:100D8C0059680A405A601A6822F0847222F4803240
:100D9C001A601A6822F480221A605A6822F4FE0241
:100DAC005A609D60846030BC704700BF00100240E8
:100DBC000000FFF800ED00E0002103E00B4B5B5856
:100DCC00435004310A480B4B42189A42F6D30A4A54
:100DDC0002E0002342F8043B084B9A42F9D3FFF798
:100DEC00C3FFFFF7DFF9FFF755FF7047500E000800
:100DFC00000000200C0000200C0000202C00002023
:100E0C00FEE70000F8B500BFF8BC08BC9E46704772
:0C0E1C00F8B500BFF8BC08BC9E4670474B
:100E280002030405060708090A0B0C0D0E0F101023
:100E38000000000000000000010203040607080982
:040E48007901000824
:040E4C005101000848
:0C0E5000010000001000000000A24A0495
:0400000508000DC51D
:00000001FF
